S02B0000626F6F746C6F616465722D73746F726167652D696E7465726E616C2D73696E676C652D313533366BE7
S3150800000000100020B5010008B1010008E505000848
S31508000010B1010008B1010008B1010008B1010008EA
S31508000020B1010008B1010008F83A0008B10100085A
S31508000030B1010008383B0008B1010008B101000809
S31508000040B1010008B1010008B1010008B1010008BA
S31508000050B1010008B1010008B1010008B1010008AA
S31508000060B1010008B1010008B1010008B10100089A
S31508000070B1010008B1010008B1010008B10100088A
S31508000080B1010008B1010008B1010008B10100087A
S31508000090B1010008B1010008B1010008B10100086A
S315080000A0B1010008B1010008B1010008B10100085A
S315080000B0B1010008B1010008B1010008B10100084A
S315080000C0B1010008B1010008B1010008B10100083A
S315080000D0B1010008B1010008B1010008B10100082A
S315080000E0B1010008B1010008B1010008B10100081A
S315080000F0B1010008B1010008B1010008B10100080A
S31508000100B1010008B1010008B1010008B1010008F9
S31508000110B1010008B1010008B1010008B1010008E9
S31508000120B1010008B1010008B1010008B1010008D9
S31508000130B1010008B1010008B1010008B1010008C9
S31508000140B1010008B1010008B1010008B1010008B9
S31508000150B1010008B1010008B1010008B1010008A9
S31508000160B1010008B1010008B1010008B101000899
S3150800017010B5054C237833B9044B13B1044800E095
S3150800018000BF0123237010BD1010002000000000DE
S31508000190643C000808B5034B1BB10349034800E05B
S315080001A000BF08BD0000000014100020643C0008D1
S315080001B0FEE7000008B500F021F800F05FFA0A4BE8
S315080001C00A4A0B498B4206D300210A4B0A4A934234
S315080001D006D300F00BFA52F8040B43F8040BF1E7C8
S315080001E043F8041BF3E700BF00100020643C000836
S315080001F01010002010100020AC5D0020044B054AAA
S315080002009A60D3F8882042F47002C3F888207047B1
S3150800021000ED00E0000000084FF098435A6CD20247
S31508000220FCD5586D00F470207047C0F30C032DE917
S31508000230F04105460F4616460BB900F051FB05F589
S31508000240005424F4FF5424F01F0405EB0608A045C7
S3150800025007D8324639462846BDE8F041022300F061
S315080002604DBB204600F03CFB04F50054EFE770B4A4
S315080002704FF00065AD6A03462E69864206D86C695A
S3150800028013449C4202D370BCFFF7CFBF70BC7047C3
S315080002901FB500F1006303F500430393104B1446A2
S315080002A098421BD8039A0F4B9A4217D2039A9B1A65
S315080002B0A34213D358B94FF000639B6A0A4A586998
S315080002C0904204D91869019100F00AFB0199224667
S315080002D0039804B0BDE81040FFF7A7BF04B010BDEF
S315080002E0FF7FFFF700E01708008000087FB5034688
S315080002F0E8B1B0F1006F1AD36D460E4A02F1100646
S315080003002C4610685168083203C4B2422546F7D114
S315080003105A1E0DF10F010F3311F8010912F8014F9A
S31508000320844204D19A42F7D1012004B070BD00205E
S31508000330FBE700BFE43A0008036913F0FE0F0CBFA1
S3150800034001200020704738B504460D46FFF7CEFF5A
S3150800035048B16369012B09D12046FFF7EDFF08B1C3
S31508000360A3692B6038BD01202C60FBE70020F9E764
S315080003702DE9F0410368044603F16043B3F5802F85
S31508000380A0B034D84FF000639B6A42681E69964253
S315080003902DD8394B9A422AD8456B06F14002AA4213
S315080003A068D89D4266D82846FFF7A0FF002861D086
S315080003B02846FFF7C1FF80B16B6973B1022B0FD1D5
S315080003C0AB69C4F1040119444FF0FF32204602F02C
S315080003D033FA2A4BC31A5842584120B0BDE8F08177
S315080003E040F2046328460493FFF780FF08B900200B
S315080003F0F3E72846FFF7A0FF0028F8D04FF000677C
S31508000400D7F834804046FFF771FF0028EFD0403E0A
S31508000410B045ECD8284605A9FFF795FF0028E6D091
S31508000420BA6A059B12699A42E1D89C42DFD8124AF9
S315080004309342DCD806A802F0CFFA059A2146121B89
S3150800044006A802F0D9FA06A802F0D8FA059C02F026
S31508000450D9FA039002F0F4FA21460090039B04F1BE
S31508000460200206A802F038FA04900498B0FA80F040
S315080004704009B2E70120B0E700001808E320BBDE18
S3150800048070B54FF0FF3290B005460C4602F0D4F92D
S315080004901B4B984231D14FF480621A4B00219A6661
S315080004A001A81C2203F009FB174B2946684600934E
S315080004B003F02BF92146684603F027F9684603F04E
S315080004C02DF9FFF7A9FE0646B8B940F2022000F05A
S315080004D0B7F91C22314609A803F0EFFA0B4B294657
S315080004E008A8089303F011F908A8214603F00DF9A6
S315080004F008A803F013F9FFF78FFE002010B070BDAF
S31508000500E320BBDE009000400100054301000643DE
S315080005104FF48062134B10B59A664FF0FF338CB0D8
S315080005201C220021044605A8009303F0C6FA0E4BC8
S31508000530CDF804D00493012302930C4B04A801A917
S31508000540039303F0D8F804A803F0E8F8FFF764FE6D
S3150800055030B9009BA3422CBF002001200CB010BD6F
S315080005600020FBE70090004000000843040000203C
S315080005704FF4806230B50446154B91B09A66002157
S315080005801C2201A803F099FA124B214668460093EB
S3150800059003F0BBF8684603F0C1F8FFF73DFE0546D1
S315080005A098B940F2022000F04BF91C22294609A806
S315080005B003F083FA084B08A82146089303F0A5F828
S315080005C008A803F0ABF8FFF727FE002011B030BDEE
S315080005D000900040000002430000034302F0CCBE36
S315080005E002F02ABF4FF4017000F050B94FF04023D3
S315080005F0D3F8842013B5110606D44FF400621A679F
S31508000600D3F88420D206FBD4FFF7E8FF00F00CF9F4
S3150800061008B900F0F7F802F0DFFC044658B900F014
S3150800062003F908B100F0FAF840F2012000F02EF9BB
S315080006304FF4017018E000F0F7F808B900F0E8F890
S3150800064000F009F9012802D900F0DCF8FEE700F00D
S315080006500CF9094B0193019B002B0ADC40F2054378
S315080006609C42E5D140F2032000F010F9002002B0C8
S3150800067010BD019B013BEDE700350C0013B50124C5
S315080006804FF040238DF806408DF80740D3F8943094
S315080006905B0610D500F00EF9A0F2022080B20728FA
S315080006A009D804FA00F010F0C90F1EBF00238DF810
S315080006B006308DF80730194B5B68013308D14FF4C3
S315080006C0027000F0BDF800238DF806308DF807306B
S315080006D09DF807305BB11148FFF74AFE8DF8060012
S315080006E09DF806301BB94FF4027000F0A9F89DF882
S315080006F0063083B100F098F808B100F08FF8074B80
S31508000700074A93601846016881F3088881F30988C7
S3150800071040688746FEE702B010BD00BF00600008CB
S3150800072000ED00E0B1F50A7F10B5044610D34FF48A
S315080007300A72002103F0C1F9002304F5D872637028
S3150800074004F5A47104F12C00BDE8104001F01EBCAC
S3150800075040F2052010BD13B50446009101462C3021
S3150800076001F04CFCC4F8240218B141F20703984280
S3150800077009D1A3784BB140F2032040F20223E27874
S31508000780002A08BF184602B010BD40F20120FAE759
S315080007902DE9F04387B00DF1080904460E461746C1
S315080007A00021102248461D46DDF8388003F085F9F9
S315080007B000211C22C8F80010284603F07EF93246AC
S315080007C03B462146CDF8009004F12C0001F016FCBA
S315080007D023789A0744BF6268C8F80020DB0705D566
S315080007E01C22284604F1080103F040F9237840F258
S315080007F00640002B18BF002007B0BDE8F0834FF471
S315080008000A7070474FF000534CF23C325A807047DA
S315080008104FF000534AF6C0325A8070474FF00053E3
S315080008204FF20F025A8070474FF000534AF6C03015
S315080008305B8823F00F039BB21B1A58425841704736
S315080008404FF0005208B51080FFF7EEFF10B94FF2CF
S315080008500F03538008BD08B5FFF7E6FF20B14FF038
S315080008600053588800F00F0008BD08B5FFF7DCFFF5
S3150800087050B14FF00052538803F00F010F2914BFEF
S31508000880013323F00F03538008BD000008B5FFF7B6
S31508000890D7FFBFF34F8F0549054BCA6802F4E062DC
S315080008A01343CB60BFF34F8F00BFFDE700ED00E0B9
S315080008B00400FA054FF000534FF20F015A888A4296
S315080008C001D1188870473AB91B8840F20220012BDB
S315080008D018BF4FF4007070474FF40070704700005F
S315080008E04FF4803208B5044B9A6602F01DFEB0FA42
S315080008F080F0400908BD00BF00900040072BF8B5FE
S3150800090006460F4614461D4601D90020F8BD0121AA
S31508000910202002F099FD0121212002F095FD8CB1DD
S3150800092044EA06039B07F0D14FF48032064B314662
S315080009309A66284623463A4602F05AFEB0FA80F0EE
S315080009404009E3E70120E1E700900040134610B5AF
S3150800095062B103439B070BD14FF48034054B9C6669
S3150800096002F00AFEB0FA80F0400910BD0120FCE74B
S315080009700020FAE7009000400A4B186830B9B1F534
S31508000980205F0DD8012208481A607047012806D151
S31508000990B1F5005F03D8022204481A6070470020A8
S315080009A0704700BF2C100020A4300020A0100020A3
S315080009B031B1044A1368002BC4BF03F1FF33136037
S315080009C0704700BF2C10002002232DE9F04F814606
S315080009D08A464FF000088BB0DFF8C4B02C4D04925D
S315080009E08DF81F309DF81F20022A08D0049B002B83
S315080009F047D041F20231012A18BF884641E0DBF8A8
S31508000A000010244EC1F5407308932B6822480993B9
S31508000A100DF11F0302930023019309AB009308AA63
S31508000A201E4B314401F07FF848BB9DF81F3063B375
S31508000A30089BDBF8004031461C4424F003073A467D
S31508000A405346484601F046FABC428046A4EB0702E4
S31508000A5005D03046F119059203F015F8059A09995B
S31508000A60CBF800202A688A4204D90C48521A014455
S31508000A7003F009F82A680999521A2A60B2E741F27E
S31508000A80033840460BB0BDE8F08F41F20238F8E76C
S31508000A90A45A0020A85A002030100020A45800208C
S31508000AA0A85D002010B5084C70220021204603F0EE
S31508000AB004F801220020054BC4E904001A70044B0F
S31508000AC01860044B186010BD30100020A0300020BC
S31508000AD0A85D0020A45A00202DE9F84380465868EE
S31508000AE00F461446994620B31C4B1D787DB100224B
S31508000AF01A7051F8043B0522C8F860301848194B9B
S31508000B0001F0B6F830BB164800F0EBFE1125164E7C
S31508000B10641B3368C3F50073A3420CD333681348C8
S31508000B2022461844791902F0A1FF002033682344AD
S31508000B303360BDE8F883002249464046FFF744FF84
S31508000B400028F6D13368C3F50073A342E6D241F212
S31508000B500430EEE741F20530EBE700BFA030002095
S31508000B603010002000100020A45A0020A4580020AD
S31508000B70436D002B0CBF11200120704770B54C68DF
S31508000B8006460D46C4B10122FFF71EFF044698B972
S31508000B900C4B1A6862B1FF210B4B032A0ED92B4660
S31508000BA004223046084901F095F908B1044603E0E5
S31508000BB00649074801F02EF8204670BDD154013287
S31508000BC0EBE700BFA85D0020A85A0020001000200F
S31508000BD030100020826CF0B5531EB3F5887F18D804
S31508000BE0D0E9093CD0E90B47C91A914228BF1146FA
S31508000BF04569866B2FB9C768A7EB040E8E4598BF63
S31508000C0007630C44521AC462826419448B4201D1A8
S31508000C104362F0BDB34234BF644600249A1B2A449B
S31508000C20125DEA540133F1E72DE9F04F93B00891CC
S31508000C300E92036BD0F82CB00793436A0093079B78
S31508000C40002B40F09D80C368089A0099A3EB0B031C
S31508000C50521A9A4240F294800B444FF0FF37D0E97B
S31508000C600DA98568099307FA05F5ED430F954568BB
S31508000C70C36B07FA05F5ED43109500250193036C40
S31508000C8004690293436C0C950393036804F2446564
S31508000C900D934369026A0493836A05950693D0E91E
S31508000CA006360F9DB6F1807F05EA0B084FEA0A154E
S31508000CB00A9508EB0A1C3CBF13F8015B360234F8A8
S31508000CC01C7038BF45EA0222F50A7D43954240F278
S31508000CD0B680C7F5006607EB561624F81C60079E13
S31508000CE004F66C6C56EA0B0115D0109E00990BEAB7
S31508000CF006070D9EB740002944D1069E013E049979
S31508000D008E5D0D99C1F1080E46FA0EF637444FF47A
S31508000D10C06606FB07CCBAF1060F0BF1010B3DD8EE
S31508000D200126BAF1030F94BFAAEB0A0AAAF1030A2D
S31508000D30B5F1807F38BF13F801EB4FEA460638BF96
S31508000D402D023CF8067038BF4EEA02224FEAD52E2D
S31508000D5007FB0EFE96450CEB060816D9C7F5006587
S31508000D6007EB55177546BFB2FF2EA8F80070DFD9F6
S31508000D700499009FCE5539462E4601310091A7E1C8
S31508000D80089B6AE700994E1EB9E7A7EB5717A5EB2C
S31508000D900E05A2EB0E02BFB20136E5E70099009FE9
S31508000DA0A1EB090606994FF480784F4528BF002124
S31508000DB00F460499BAF10A0F0E44F15D34BF0326B3
S31508000DC00626AAEB060A01260A910A99B5F1807F3A
S31508000DD04FEA410108EB06070A9101EA080138BF04
S31508000DE013F801EB0F4438BF2D020B910CEB4701AA
S31508000DF03CF8177038BF4EEA02224FEAD52E07FB99
S31508000E000EFE964511914FEA46060DD9C7F50065BF
S31508000E1007EB551775460B99BFB228EA01081199D1
S31508000E20FF2E0F80D1D9A3E7A7EB5717DDF82C8043
S31508000E30A5EB0E05A2EB0E02BFB20136EFE7761B55
S31508000E40A7EB5717B6F1807F24F81C70A2EB0502B2
S31508000E500AF1C00E3CBF13F8015B360234F81E7067
S31508000E6038BF45EA0222F50A7D4395424FEA4E0C01
S31508000E7040F2D5800399C7F500660B91029907EBF6
S31508000E8056160391019924F81E60CDE901910AF1DD
S31508000E900C0A04F26467B5F1807F3CBF13F8016B56
S31508000EA02D02B7F800C038BF46EA0222EE0A0CFB4C
S31508000EB006F6964240F27D814FF0000ECCF50065AD
S31508000EC00CEB55153D8007EB081704374FF008095A
S31508000ED04FF0010CB6F1807F38BF13F8018B4FEA4B
S31508000EE04C0C38BF360237F80C5038BF48EA022295
S31508000EF04FEAD62805FB08F8904507EB0C0140F2A7
S31508000F008881C5F5006605EB56154646ADB2CC4553
S31508000F100D80DFD3AEEB090E0EEB0C01BAF10B0F09
S31508000F200A9140F2A982032988BF4FF49C6E4FF0BC
S31508000F3001059CBF4FEAC11E0EF5587EB6F1807FAB
S31508000F404FEA450538BF13F801CB05EB0E0838BF45
S31508000F50360234F8087038BF4CEA02224FEAD62C1B
S31508000F6007FB0CFC944540F25E81C7F5006607EB6B
S31508000F7056176646BFB23F2D24F80870DED9403DA5
S31508000F80032D3DD905F0010C0D2D4FEA55074CF000
S31508000F90020C00F25E814FF0010EC5F10049013FD7
S31508000FA00CFA07FC09F2AF29E1444FEA4901654604
S31508000FB0F1460C910C99B6F1807F4FEA4E0E38BF78
S31508000FC013F8018B714438BF360234F801C038BFB4
S31508000FD048EA02224FEAD6280CFB08F890450B91FE
S31508000FE040F22A81CCF500660CEB561C46461FFAE1
S31508000FF08CFC0B99013F24F801C04FEA4909D9D165
S31508001000079905F10109002940F02282AB4500F253
S315080010102282009B4362012013B0BDE8F08F079936
S31508001020A7EB571751EA0B01A6EB0506A2EB05023B
S3150800103024F81E70EFD0B6F1807F38BF13F8015B35
S315080010400CF1180E38BF360234F80E7038BF45EA70
S315080010500222F50A7D4395425DD9C7F500660A99CD
S3150800106007EB561624F80E60B5F1807F01F1F00EF5
S3150800107038BF13F8016BC64438BF2D0234F81E700A
S3150800108038BF46EA0222EE0A7E4396422AD90099DA
S31508001090C7F5006507EB551524F81E50009FA1EB10
S315080010A0090506990BF1010B4F4528BF00210F468C
S315080010B00499BAF1070F0D44ED5D009F38BF4FF054
S315080010C0090ACD55394628BF4FF00B0A0131009160
S315080010D00999009DA94240F281810E9999423FF6ED
S315080010E0E0AD7BE1AD1B921B019ECDF80490B146A5
S315080010F0A7EB571724F81E700399BAF1070F0B913F
S31508001100029934BF4FF0080A4FF00B0ACDE9029155
S3150800111004F66827BFE6761BA7EB5717B6F1807F5C
S3150800112024F80E70A2EB05020CF1300E3CBF13F842
S31508001130015B360234F80E7038BF45EA0222F50A1A
S315080011407D43954206D9C7F5006607EB561624F87F
S315080011500E60D1E7761BA7EB5717B6F1807F24F808
S315080011600E70A2EB05020CF1480C3CBF13F8015BAC
S31508001170360234F80C7038BF45EA0222F50A7D4378
S3150800118095420AD9C7F5006607EB561624F80C608F
S31508001190DDE9016101910296AEE70399521B751BC1
S315080011A0019E01910299A7EB571724F80C70039139
S315080011B0F1E7AD1BACEB5C1CB5F1807FA7F800C06E
S315080011C0A2EB06023CBF13F8016B2D02B7F802C06A
S315080011D038BF46EA0222EE0A0CFB06F696420BD9FF
S315080011E0CCF500650CEB55157D8007EB08174FF01D
S315080011F0080E07F5827769E6ACEB5C1C921BA7F82C
S3150800120002C04FF0100E4FF4807907F50177AE1B38
S315080012105EE6A5EB5515A6EB0806A2EB0802ADB2ED
S315080012200CF1010C73E6A7EB5717A6EB0C06A2EB1D
S315080012300C02BFB201359EE6ACEB5C1CA6EB0806B9
S31508001240A2EB08021FFA8CFC0EF1010E45EA09050D
S31508001250CFE6053FB6F1807F3EBF13F8015B360245
S3150800126045EA02227608921B4FEA4C0C0CF1010C57
S3150800127006EAE275013F0CEBE27C2A44EAD1B6F1B4
S31508001280807F38BF3602B4F846E64FEA0C154FEAB7
S31508001290D62C0EFB0CFC3CBF13F8017B47EA022256
S315080012A094455ED90227CEF500660EEB561E1FFA48
S315080012B08EFE0599BCF1807FA4F846E631F817E062
S315080012C04FEA470601EB47083EBF13F8017B4FEA92
S315080012D00C2C47EA02224FEADC270EFB07F7974257
S315080012E04BD9CEF5006C0EEB5C1E1FFA8EFE0599E7
S315080012F0A8F800E0B7F1807F31F816C04FEA460E2D
S3150800130001EB46083EBF13F8016B3F0246EA02228C
S31508001310FE0A0CFB06F696423AD9CCF500670CEBAA
S31508001320571C1FFA8CFC0599B6F1807FA8F800C0F7
S3150800133031F81E704FEA4E0C3EBF13F801EB360229
S315080013404EEA02224FEAD62E07FB0EFE96452AD90A
S315080013500599C7F5006607EB561621F80C60764620
S315080013604EE6AEEB5E1EA2EB0C0203271FFA8EFEBC
S3150800137045F00105A6EB0C0C9BE7AEEB5E1ED21BF7
S315080013801FFA8EFE013645F00205ACEB0707AEE7FD
S31508001390ACEB5C1C921B1FFA8CFC0EF1010E45F09F
S315080013A00405BE1BBFE70599A7EB571745F00805C7
S315080013B021F80C70691CA6EB0E06A2EB0E027FF450
S315080013C01FAE0A99AAF10C0A01F589710C91DDE99B
S315080013D001910191039902910B990391B6F1807FCE
S315080013E03CBF13F8014B3602C0E906360C9B38BFE2
S315080013F044EA02228364009B02624362019BC0F8AE
S315080014002CB0C363029BC0F838900364039BC0F8F2
S3150800141034A04364036B1BB9C3685B4598BF036379
S315080014200899FFF7D7FB436A089A9342836C07D259
S3150800143082690E998A4203D2B3F5897FFFF4F9AB24
S31508001440B3F5897F02D94FF4897383640020E3E5F5
S315080014500799A942DBE5BAF1130F34BF4FF0070A23
S315080014604FF00A0A0A99009D01F1020C0999B1EB9D
S31508001470050809D12B46CDE5DDE9019101910399CE
S3150800148002910B990391EDE70099009FA1EB0905DD
S315080014900699E04528BFE0464F4528BF00210D4480
S315080014A0ACEB08010C910699C3444F1BB845049947
S315080014B0009F0F440CD8009907EB080C6D1A41449D
S315080014C0009117F805E007F801EBBC45F9D1FFE5EF
S315080014D008EB070C049911F805E0069907F801EBE3
S315080014E00135A94208BF0025BC45F3D100994144FE
S315080014F044E42DE9F047D0E9075301278468D0F87A
S315080015002C80A740D0F834C0013F066907EA0807CF
S3150800151007EB0C1EB5F1807F36F81E900A4407D2F9
S31508001520914280F0DC8111F8014B2D0244EA032335
S31508001530EC0A09FB04F4A34278D2076B06F66C663C
S3150800154058EA070519D0D0E900E70125BD40013D55
S3150800155005EA080505FA0EF7456AD0F8148005B9B4
S31508001560856A013D18F80550CEF1080E45FA0EF5C4
S315080015703D444FF4C06707FB0566BCF1060F20D84B
S3150800158001204000B4F1807F375A07D2914280F09B
S31508001590A68111F8015B240245EA0323E50A7D4387
S315080015A0AB4229BF01302C46641B5B1BFF28E8D9D8
S315080015B00120B4F1807F80F02281914228BF00206B
S315080015C01DE1876BD0F824C04569BC45ACEB070E16
S315080015D02CBF0027876A05EB0E0010F807C001200C
S315080015E04FF480774FEA4C0C07EA0C0E3D18754409
S315080015F0B4F1807F36F8158007D2914280F06F816A
S3150800160011F8015B240245EA0323E50A08FB05F500
S315080016104000AB422BBF01302C46774627EA0E071F
S3150800162024BF641B5B1BFF28DCD9C1E7281B0CF110
S31508001630C00CB0F1807FA3EB04034FEA4C0436F8E4
S315080016401CC007D2914280F04A8111F8015B000262
S3150800165045EA0323C50A0CFB05F5AB4280F0A080DA
S3150800166002204FF0000E06F2646CB5F1807FBCF8DC
S31508001670008007D2914280F0328111F8014B2D0289
S3150800168044EA0323EC0A08FB04F4A34280F0EB8047
S315080016900CEB071707F1040C00274FF008094FF069
S315080016A001084FEA4808B4F1807F3CF808A007D241
S315080016B0914280F0148111F8015B240245EA032364
S315080016C0E50A0AFB05F5AB4229BF08F101082C46D5
S315080016D0641B5B1BC845E4D3BEF1030F3FF669AF35
S315080016E0A7EB09074744032F88BF4FF49C674FF0C1
S315080016F001059CBFFF0107F558776D0006EB050C41
S31508001700B4F1807F3CF807E007D2914280F0E78089
S3150800171011F801CB24024CEA03234FEAD42C0EFB22
S315080017200CFC634529BF01356446A4EB0C04A3EB06
S315080017300C033F2DE1D9403D032D7FF63AAF0D2D21
S315080017404FEA550700F2B18005F0010C013F4CF055
S31508001750020CC5F100450CFA07FC05F2AF256544F5
S3150800176006EB45064FF0010C4FEA4C0CB4F1807FAE
S3150800177036F80CE007D2914280F0B18011F8015B8F
S31508001780240245EA0323E50A0EFB05F5AB4231BF01
S315080017902C46641B5B1B0CF1010C013FE4D108E7E6
S315080017A0401B3444B0F1807FB4F818C0A3EB05039E
S315080017B007D2914280F0938011F8015B000245EA56
S315080017C00323C50A0CFB05F5AB4222D20EF1F00E37
S315080017D0B5F1807F36F81E4006D291427FD211F8C5
S315080017E0010B2D0240EA0323E80A6043834208D22C
S315080017F0B0F1807F71D2914234BF03200020BDE84A
S31508001800F0872D1A1B1A03204FF00C0E06F6682CCB
S315080018102BE7401BB0F1807FB4F830C0A3EB05037B
S3150800182006D291425BD211F8015B000245EA032316
S31508001830C50A0CFB05F5AB42E5D3401BB0F1807F2A
S31508001840B4F84840A3EB050306D2914247D211F8F3
S31508001850015B000245EA0323C50A6543AB4224BF80
S315080018605B1B451BCFE72D1BB5F1807FBCF80280BB
S31508001870A3EB040306D2914231D211F8014B2D0293
S3150800188044EA0323EC0A08FB04F4A34205D20CEB52
S31508001890071707F5827C0827FFE61B1B10274FF45E
S315080018A080790CF5017C2C1BF9E6053FB4F1807FA5
S315080018B006D2914213D211F8015B240245EA0323AA
S315080018C064081D1BED0F013D2540013FA3EB0503F1
S315080018D0ECD1042706F2446644E703208FE700208C
S315080018E08DE700230122C0E90B33C0E912324362B7
S315080018F08365026570472DE9F04F98460025044632
S3150800190085B09DF83830DDF83CB0D8F80070C8F8D6
S31508001910005007EE901A16460293FFF75BF98BF80C
S315080019200050A36CB3F5897F09D1236A13B9012343
S315080019308BF80030256A003D18BF01251EE0E36CD0
S315080019404BB3A36DA7B1042B04D994F85C30CBB183
S31508001950012513E05A1CA26516F8012B234483F8C7
S315080019605C20D8F80030013F0133C8F80030E8E7BA
S31508001970042BEAD8032300258BF80030284605B047
S31508001980BDE8F08FD4F85D20E36412BA22624FF006
S31508001990FF32A365E26117EE902A636A93420DD37C
S315080019A0A36C002B40F0B180256A002D40F0B5806D
S315080019B004238BF80030E1E70223DCE700230193D8
S315080019C0236D9BB1D4E900321A444FF44073934017
S315080019D00022216903F23673934225D80123C4E90C
S315080019E01033C4E90E33002363632365D4F8589093
S315080019F0B9F1000F5DD1132F01D9019B03B33A4604
S31508001A0031462046FFF775FD054698B93A463146F0
S31508001A1004F15C0002F02AF8A765D8F800303B44C8
S31508001A20C8F800300323C4E74FF4806021F8120099
S31508001A300132D1E7019A0AB102286AD1324602E098
S31508001A40A7F11402324417EE901A2046A661FFF752
S31508001A50EBF800287FF47CAFA169D8F800308E1B1C
S31508001A603344C8F80030BF1B0E465AE716F80A205A
S31508001A7009F1010903F809200AF1010AB9F1130F5E
S31508001A8001D8BA45F2D1B9F1130FC4F8589004F148
S31508001A905C0301D9019AAAB119464A46204603931E
S31508001AA0FFF727FD039B054640B9D8F80030534495
S31508001AB0B6E74FF0000A04F15B03DFE7019909B1C5
S31508001AC0022826D11A4617EE901A2046A3610193DA
S31508001AD0FFF7AAF800287FF43BAFA269019BD31A47
S31508001AE0994510D3A9EB030292450CD3D8F80020E8
S31508001AF05344A3EB09010A444F44C8F80020314473
S31508001B00FF1AA065B0E70B2538E7029B002B3FF4C8
S31508001B1053AF02238BF800301AE7029B002B3FF4E1
S31508001B204BAF01234BE72DE9F04F89B099469DF855
S31508001B304C3004460393002388461646DDF848A031
S31508001B401768DAF800B01360CAF80030D4E909312A
S31508001B508B4204BF00236362656A149A4B1BBB421F
S31508001B6032BF0023039B7919CDE9003220464A4645
S31508001B7007ABCDF81CB0FFF7BEFE079ADAF80030BF
S31508001B8061691344CAF80030636A029029444046E2
S31508001B909144ABEB020B5A1B0593049201F066FFC6
S31508001BA0059B049AED1A3368904413443360029BEC
S31508001BB02F4413B90AB1002FC8D1029809B0BDE85D
S31508001BC0F08F10B504464B680846216998470023EC
S31508001BD0236110BD70B5D1E900532B444FF440750D
S31508001BE09D4003690446164605F2367523B1436DD2
S31508001BF0AB4201D1002070BD31462046FFF7E1FF18
S31508001C003046336869009847656520610028F1D138
S31508001C100220F0E738B504460D46FFF7D2FF6B6899
S31508001C202846616998470023636138BD042A01D8AC
S31508001C3004207047D1F80130B3F5805F38BF4FF400
S31508001C408053C3600A78E02AF2D80923B2FBF3F37B
S31508001C5003EBC301521AD2B202600522B3FBF2F2B9
S31508001C60826002EB82029B1ADBB243600020704757
S31508001C702DE9F04385B0E846044640469946FFF705
S31508001C80D5FF054670BB4A4641462046FFF7A2FFE8
S31508001C90054638BB039FB7F1804F27D240F6FF763B
S31508001CA0164BB7F5800F28BF1E46F31923EA06061A
S31508001CB06169B74238BF374611B1A36ABB4217D02C
S31508001CC04846D9F8043098470023394663614846A0
S31508001CD0D9F800309847606150B949462046FFF761
S31508001CE070FF0225284605B0BDE8F083044EDCE700
S31508001CF098E80F00A76284E80F00F3E7FFFF0F00DC
S31508001D00FFFF3F000068024BC31A5842584170470C
S31508001D10FD0707FD034A044B90420CBF18460020F6
S31508001D20704700BFFD0707FD783B000870B5D1E98D
S31508001D300152AA4205D290F840302B449B1A402BF8
S31508001D4010D9002012E00A6890F84040D65C90F856
S31508001D5041200133224402F03F02013486548B604D
S31508001D6080F840408B689D42EDD8012070BD2DE972
S31508001D70F8431D461746D1E901329B1A90F84020D0
S31508001D80044613449D420E469DF820909DF82480F3
S31508001D9056D9FFF7CBFF00285CD1142341F2020085
S31508001DA084F84630BDE8F88394F84120A25CFA54DA
S31508001DB094F841200133013202F03F0284F84120B1
S31508001DC094F84020013A84F8402094F840200AB15B
S31508001DD09D42E9D1D6E90121914201D29D4231D8ED
S31508001DE09D42DAD129463846D4F8882000F024FDE9
S31508001DF0C4F88800B9F1000F04D02A463946E06CC9
S31508001E0000F0FAFDB8F1000F08D094F843308BB112
S31508001E102B463A463946A06C00F04CFD94F8433000
S31508001E2043B1E36DA26D2B449342E36524BF0023BF
S31508001E3084F84330636D41F203002B446365B1E7D0
S31508001E400023C2E73268525CFA54B26801330132A1
S31508001E50B260BFE70020A5E77FB50023CDE90033D0
S31508001E60082315460DEB03020446FFF780FF41F2EF
S31508001E7003039842064626D194F8433063B10822F4
S31508001E80E06C0DEB020100F0B7FD08230DEB030231
S31508001E901146A06C00F00EFD039A029B6A6094F846
S31508001EA043202B605AB9094A934208D0084A9342FC
S31508001EB005D00822E06C0DEB020100F09DFD6B6871
S31508001EC0236500236365304604B070BDF70A0AF738
S31508001ED0FC0404FC2DE9F743044658680F461646E9
S31508001EE09846002847D08B0748D14FF000639B6A75
S31508001EF0216E1B6902EB010C1D1D65451CD81C33A0
S31508001F00994219D28D42284638BF08469C4594BF47
S31508001F10C0EB0C02C0EB0302411AC5F1680507EBDA
S31508001F200109284449462044019201F09FFDFF21FA
S31508001F304846019A01F0C1FD236E124DAB4210D8F6
S31508001F40114AF11891420CD3ED1A3D440422294650
S31508001F5004F1800001F08AFD0422FF21284601F0E1
S31508001F60ACFDD8E900353246206E3946A847002030
S31508001F70226E3244226603B0BDE8F08341F20200C5
S31508001F80F9E700BF0480000808800008F8B503F0E8
S31508001F902003002580F842304FF0FF3304460F46F1
S31508001FA01646C0F888301822FF21C0E91855A0F84F
S31508001FB0405080F84350A0F8445080F846506830A6
S31508001FC001F07BFD0422FF2104F1800001F075FD7C
S31508001FD00422FF2104F1840001F06FFD88222946BE
S31508001FE0C4E9127604F1900001F067FD84F81851EF
S31508001FF016B1E06C00F0F0FC0020F8BD2DE9F04FBA
S31508002000A7B0CDE913230293002304460E46309D5C
S31508002010DFF8A0931593159A029B9A4201D30020E4
S31508002020C7E094F84630142BF6D8DFE813F06700BB
S31508002030AE00A800520039002E004D0239004502B4
S315080020403900FC01390045029A03FD0315008C018D
S3150800205040034003D202FD034FF00008636D0F2BC7
S3150800206000F291800127102316AA2046CDF8048095
S31508002070009713A9FFF77BFE41F203030990099A1B
S315080020809A4200F05281099B44E00127D4E91432B0
S31508002090934200F25E8184F8467041F2030339E008
S315080020A04FF0FF0BD4E91437BB426CD9DB1BDDE9D3
S315080020B01472BF1A94F84020032B174440F2088282
S315080020C0032F00F20882204613A9FFF72FFE0023EC
S315080020D020E00127636D072BDFD8082316AA2046C0
S315080020E0CDE9007713A9FFF742FE41F203030C90EE
S315080020F00C9A9A4200F0AC810C9B0BE016AA20467B
S3150800210013A9FFF7A9FE41F203020690069B934224
S3150800211002D0069B059345E0179A16992265002278
S315080021206265994A914240F0A081022284F84620CD
S31508002130F0E7012316AA009320460823019713A95E
S31508002140FFF715FE41F203030790079A9A4201D05A
S31508002150079BDFE7169B03F07F43B3F1407F05D06B
S31508002160142384F8463041F20903D3E7179BD907AD
S3150800217006D594F8423043F0010384F8423000272C
S31508002180636D072BD5D901239BE1204616AA13A90F
S31508002190FFF762FE41F203030890089F9F420BD0A7
S315080021A0089F059741F20303059A9A423FF433AF15
S315080021B0059827B0BDE8F08F94F84420169B2AB1FD
S315080021C0724A934240F087800D2336E094F8422005
S315080021D0D20741D594F84320002A3DD16C498B4259
S315080021E033D022D86B4A934275D014D86A4A9342A0
S315080021F000F0888004D8644A93426CD04B456AD074
S31508002200142316A884F84630FFF77CFD002865D10C
S3150800221041F20807C5E7614A934279D0F0D8604A87
S31508002220934258D05F4A9342E9E7584A9342CBD043
S3150800223006D85D4A9342E3D10F2384F84630B0E7C7
S315080022405A4A934247D05A4AEDE7102384F8463053
S31508002250236DC4E91632A4E7524A93424AD02BD8D2
S315080022604C4A934244D022D84B453FD04A4A9342DF
S3150800227044D016A8FFF746FD00284BD0132316981E
S3150800228084F84630C4F88C00FFF744FD94F84230D1
S315080022909B0686D5002884D04368002B81D020462B
S315080022A098470890089B002B3FF47BAF16E03C4A02
S315080022B09342DED10323C0E73C4A93421CD010D890
S315080022C0364A934220D0314A9342D2D194F84330C9
S315080022D0002B3FF479AF142384F8463041F2010706
S315080022E05FE7334A9342C4D10823A6E70A23A4E743
S315080022F00523A2E70623A0E70C239EE794F84330BC
S31508002300002BE8D1112398E794F84330002BE2D14B
S31508002310122392E7142384F8463094F84330002BAE
S315080023203FF476AF41F204073BE7D4F848A000F043
S31508002330A5FB80230221CDE9000317AA3B46504698
S3150800234000F092FA8AE6012384F8433084F846308E
S3150800235061E616AA2046CDE9007713A9FFF707FD1F
S3150800236041F203030A900A9A9A4201D00A9BD1E6DF
S315080023701C2216A906F1080001F078FB337843F011
S315080023800103337082E600BFEB17A603FC0404FCC6
S31508002390F90707F9F40A0AF4F30B0BF3F70A0AF735
S315080023A0F50909F5F60808F6FA0606FAFD0303FD27
S315080023B0FE0101FEEB17A65E337843F00403337083
S315080023C0199BB36273785F072AD5EB238DF85830CB
S315080023D017238DF85930A6238DF85A305E23042228
S315080023E004F1500104F184008DF85B3001F03EFBE6
S315080023F0002094F84530606643F0020384F84530BF
S31508002400EF686FB104222B6816A9B8470822606ED8
S315080024102B68EF6818A91044B847636E10336366D3
S315080024200B2384F84630636D072B3FF636AE01233F
S3150800243018AACDE900332046082313A9FFF797FC0D
S3150800244041F203030B900B9A9A42B5D00B9B61E6B7
S31508002450337843F002033370169B7360236D083B91
S315080024607362179BB3F1006F05D0142384F84630C6
S3150800247041F201034EE6042384F8463094F84530C9
S3150800248043F0010384F845300023636622E60423FB
S3150800249016AA2046CDE9007713A9FFF768FC41F292
S315080024A003030D900D9A9A4201D00D9B32E6236DD7
S315080024B0042B02D9169B23660127636D032BE6D9E5
S315080024C0092384F84630E8E50023636607233DE7D9
S315080024D09F42FFF4F8AD402B28BF40239F4228BFF8
S315080024E01F460123032F88BF27F003070DF158085D
S315080024F04246CDE9003320463B4613A9FFF737FC91
S3150800250041F203030E900E9A9A4201D00E9B01E601
S3150800251094F84620072A27D1D5F808A0BAF1000F63
S3150800252022D02B683A464146606ED047636E3B44DC
S315080025306366B7E508F803B00133032BFAD9042F0D
S31508002540C7F1040A88BF4FF0000A092ABA440DD118
S315080025502B46524641462046FFF7BCFC0E900E9B82
S31508002560002B3FF49FADD1E73B46E6E7042A25D189
S31508002570737898077FF596ADEB68002B3FF492AD1C
S31508002580636E042B10D80AEB030106290CD917AF82
S31508002590FF1A394604F18400039201F067FAFF2115
S315080025A03846039A01F089FAEF68524641462B6885
S315080025B0606EB847676E5744676673E50B2A7FF403
S315080025C071AD737859077FF56DADEF68002FECD1C3
S315080025D068E594F8427017F0200707D0D4F88C0005
S315080025E0FFF798FB074600283FF442AF4FF0010A71
S315080025F042E04BB347B33B6933B320469847DDE91E
S31508002600143294F840809B1A43448342FFF45BAD2E
S31508002610D4E91421A2EB0108B8F1400F28BF4FF006
S315080026204008984528BF984616AA43462046CDE94D
S3150800263000AA13A9FFF79BFB41F203030F900F9A19
S315080026409A4203D00F9B65E50120D8E794F84230FB
S315080026509A0611D5002F3FF40BAFD7F808B0BBF197
S31508002660000F3FF405AF2B464246204616A9D84729
S315080026700F900F9B002BE5D1D4E9142194F8423032
S31508002680914203F02003B4D3002B3FF47CAD002F16
S315080026903FF479ADFB68002B3FF475AD294620461B
S315080026A098470F900F9B002B3FF46DADCAE74FF08C
S315080026B000618A6A496B1269403A91423FF6D8AE80
S315080026C0112B0FD194F81831002B7FF45CAD41F231
S315080026D006031093109A9A4202D1142384F84630BE
S315080026E0109B17E594F84430002B7FF44CADCDE9E8
S315080026F0003316AA4023204613A9FFF738FB41F2F8
S3150800270003031090109A9A42EAD1E06C00F076F929
S3150800271094F81831A3B104F1B403E06C00931EAA2F
S3150800272004F1940316A900F0D7F81090109B9BB1FA
S315080027300023F370142384F8463041F20603E9E4D3
S31508002740E76C00F05FF9039000F07AF9039B0090BC
S315080027501EAA384616A9E6E70123F37084F8443022
S3150800276011E5002316AACDE900332046042313A950
S31508002770FFF7FDFA41F203031190119A9A4202D02B
S31508002780119B059314E5D4F88820294B9A4205D065
S31508002790142384F8463041F20503F2E70123F37067
S315080027A094F845309B0707D0EF682FB104222B68B1
S315080027B0104604F18401B847236E73B36B6863B39C
S315080027C04FF0FF3304F18001042212A812930291FC
S315080027D001F03CF928B1D5E90037042202991548D9
S315080027E0B84704F168090422494612A801F02EF9EF
S315080027F098B14FF000639B6A1422D3F8108004F155
S315080028006C0108F10800D5E90037B847D5E9003763
S315080028100422494608EB0200B8470123B3700E2389
S3150800282084F846300023ACE741F20700C1E400BF54
S31508002830E320BBDE0480000830B50824094B0025D8
S315080028405C66012403F5FE235C6001449D601A6101
S31508002850DC60884201D1586A30BD10F8012B1A6233
S31508002860F7E700BF00900040F7B516464FF48062C0
S315080028701D460F4B04469A6620300F46019000F01D
S31508002880A1FFDDE90812019800F0A0FF00230C2241
S315080028906364314684F8587004F1590001F0E6F88B
S315080028A02B0C6DBA84F86530A4F8665003B0F0BDF9
S315080028B0009000401FB50C46194600F14803CDE9C3
S315080028C00142009300F1440200F15803203000F061
S315080028D0F9FF04B010BD00002DE9F04315464FF48A
S315080028E080621C46364B99B0DDF880900E46074646
S315080028F09A66002861D000295FD0002D5DD0002C93
S3150800290058D0304B304AB9F1000F14BF984690465C
S315080029101C22002111A801F0D0F82C4B414610A822
S31508002920109300F0F2FE202110A800F0EEFE01221E
S31508002930274B019402920393CDF8109005920693C3
S3150800294054B1B9F1000F07D001A910A800F0C9FECB
S3150800295004A910A800F0C5FE079701271C4C07A973
S3150800296010A80897099400F0BCFE0AA910A80A96B0
S315080029700B970C940D950E970F9400F0B2FE0DA9C7
S3150800298010A800F0AEFE10A800F0C8FE114B009388
S315080029904FF098435A6CD202FCD55B6D40F2046046
S315080029A003F470230093009B002B08BF002019B086
S315080029B0BDE8F083DFF81080AAE740F20160F6E789
S315080029C0009000401F2400801F24FC84000001069C
S315080029D020000020785634124FF4806210B5044661
S315080029E0044B9A6600F0FCF82046BDE8104000212A
S315080029F000F0FAB80090004000F0FBB8014600F07D
S31508002A0005B900004FF4806200B50B4B91B09A6689
S31508002A106946002340224FF4807000F09DFEB0F511
S31508002A20A02F07D0B0F5302F044818BF002011B0EA
S31508002A305DF804FB0148FAE7009000404CE31708EC
S31508002A404FF4806200B50B4B91B09A666946002335
S31508002A5040224FF4807000F07FFEB0F5A02F07D01B
S31508002A60B0F5302F044818BF002011B05DF804FBFC
S31508002A700148FAE7009000406CE3170800487047E1
S31508002A8086E217082DE9F34799460A9B0C4619680A
S31508002A9005463F29164642D85A68002A41D0224A96
S31508002AA0002E14BFB046904601F03F07091928BF0B
S31508002AB05A68196024BF01325A60AFB1C7F1400A9B
S31508002AC0A24521D82946524609EB070000F0CEFF59
S31508002AD00123414600934A463346002000F09EF8FB
S31508002AE0B046403C55443C443F2C0CD9A3092A46E1
S31508002AF0009341463346002000F090F824F03F0347
S31508002B001D4404F03F0400272CB12246294609EB50
S31508002B10070000F0ABFF002002B0BDE8F087904642
S31508002B20C2E7DFF80480BFE78C3B000830B40546EF
S31508002B30084611461A46DDE9023425B931B1029430
S31508002B4030BCFFF79FBF024830BC70470846FBE71A
S31508002B5080AFFFFF2DE9F0431546146887B0994604
S31508002B60E3008DF80F30630956688DF80E30630B55
S31508002B708DF80D30630D8DF80C30F30003EB5473AC
S31508002B808DF80B3004F03F047309372C8DF80A30A2
S31508002B904FEA563394BFC4F13802C4F178020746A7
S31508002BA08846CDE900158DF809300C490346760D9F
S31508002BB000208DF80860FFF7B9FF082143463A461A
S31508002BC00DEB01000095FFF75DFF202239464846C8
S31508002BD000F04CFF002007B0BDE8F083AC3B0008CE
S31508002BE06822002100F069BF0023C0E900331846B7
S31508002BF0704707B500F128030190009300F1080318
S31508002C000020FFF793FF03B05DF804FB02460B466E
S31508002C1000F128010830FFF79DBF0000F0B5174600
S31508002C204FF480621D46254B93B00E469A660446BD
S31508002C30202200210AA800F040FF01204FF0005290
S31508002C4001970290039204960590069207950890BC
S31508002C500992002C2FD1189C194BA40121460AA8C9
S31508002C600A9300F052FD03990AA80C430394069BA5
S31508002C7004A943F020030693099B43F02003099314
S31508002C8000F02FFD01A90AA800F02BFD07A90AA844
S31508002C9000F031FD0AA800F041FD4FF098435A6C48
S31508002CA0D202FCD55B6D13F4702F0CBF00206FF0B9
S31508002CB06F0013B0F0BD6FF07100FAE700900040A6
S31508002CC0000401032DE9F041A0B0502204460D4648
S31508002CD00CA8002100F0F1FE30220021684600F021
S31508002CE0ECFE684600F074FA039B012B0ED800230D
S31508002CF04FF0FF3223600123AB4203D3002020B0FC
S31508002D00BDE8F08144F823200133F5E7AB426AD3E6
S31508002D1000F05EF9049B0C220CA90646DF6800F059
S31508002D203BFB0028EBD1DFF8C8800C9B434516D146
S31508002D300E9A0CA9304600F02FFB4FF0FF320E9981
S31508002D400CA8FFF779FD294B984233D04FF0FF3393
S31508002D5004EB8505A54213D044F8043BFAE737444B
S31508002D600C2238460CA900F017FB0028C7D10C9B8B
S31508002D7043450BD04FF0FF3304EB8505AC4202D137
S31508002D8040F20550BBE744F8043BF7E70CA9384680
S31508002D900E9A00F001FB049B3046D96800F02CFB24
S31508002DA00028ACD130460E9A0CA900F005FB002885
S31508002DB0BED0A4E70E9B2246103B9B08AB4228BF19
S31508002DC02B460FA904EB8300824207D14FF0FF324E
S31508002DD0AB4293D244F823200133F9E751F8046B48
S31508002DE042F8046BF0E740F2045088E7E320BBDEC4
S31508002DF039528FE1F0B5A1B00C46442200210646AF
S31508002E000FA800F05AFE01232F4A0021CDE90C2312
S31508002E105023302268460E9300F04FFE684600F0B5
S31508002E20D7F9039BA3424CD3012B08D8336840F249
S31508002E3004500133012B98BF002021B0F0BD00F0EB
S31508002E40C7F8049B102C214628BF1021DF6833469B
S31508002E50054607440FAA06EB8100984226D14FF093
S31508002E60FF33102927D14C214FF0FF320CA8FFF76A
S31508002E70E3FCC043049B1F90D968384600F0BCFAAF
S31508002E800028DAD1502238460CA900F095FA002815
S31508002E90D3D1049B2846D96800F0AEFA0028CCD1D5
S31508002EA0502228460CA900F087FAC6E753F8044BC7
S31508002EB042F8044BD1E70CAA02EB8102D360013138
S31508002EC0CFE740F20450B8E739528FE130B59DB0EC
S31508002ED0302200210546684600F0EFFD684600F0FE
S31508002EE077F9039C012C1ED921460CA8FFF7EAFEA8
S31508002EF018B140F2055398420ED100230CAA52F895
S31508002F00041B481C0AD11CAA02EB8303214643F87A
S31508002F10405C0CA8FFF76EFF1DB030BDA94205D076
S31508002F2001339C42EBD140F20250F5E740F20350E0
S31508002F30F2E7000010B5ADF50A7D4FF40A7269464E
S31508002F40002000F067F940F201240021684600F0ED
S31508002F509CF8A042F9D040F2032398421FD19DF86D
S31508002F60003059070CD49DF800309A071CD4DB07AB
S31508002F7015D50399869800F0BFF980B1002010E0B6
S31508002F800A98FDF7C5FA0028EDD0869800F072F980
S31508002F900028E8D00D48FDF7EBFA0028E3D140F207
S31508002FA005400DF50A7D10BD4FF00062926A019941
S31508002FB092689142DBD9869800F07AF90028EED01B
S31508002FC009990248FDF75CFAE9E700BF00800008A6
S31508002FD00048704700000E08FFF7ACBF31B10A4B36
S31508002FE05A68824205D80023C1E9003340F20140FD
S31508002FF07047013053F8302003EBC00043680A607D
S3150800300000204B60704700BF543C000801221A702C
S315080030107047000070B40C4611460C4A5568854244
S315080030200DD9013002EBC0067668E518B5420AD814
S3150800303052F830001A46204470BC00F0ADB940F290
S31508003040014070BC704740F20240FAE7543C000861
S3150800305030B504460D46A3B0D0F8201202AA802344
S31508003060D0F81802FFF7D6FF80232146009502AA5A
S3150800307004F12C00FEF7C2FFD4F82032C4F824026B
S315080030808033C4F8203223B030BD1FB50023CDE904
S315080030900033CDE90213D0F82432044693B9D0E9B7
S315080030A087329A420ED26946FFF7D2FFD4F8240235
S315080030B098B141F2070240F20123904208BF184630
S315080030C004B010BDA3785BB140F2022040F203239E
S315080030D0E278002A18BF1846F2E740F20120EFE727
S315080030E040F20220ECE7000070B50D46002186B0DC
S315080030F00DF1070302931D4B044616461160284638
S315080031001C22CDE903338DF80710059300F0D5FC92
S315080031109DF8073053B994F87230132B06D0D4F8BB
S3150800312024321BB9D4E987329A4217D323789A07EF
S3150800313044BF62683260DB0705D51C22284604F1C5
S31508003140080100F093FC9DF8073063B9237840F234
S315080031500640002B18BF002006B070BD204602A905
S31508003160FFF776FFD4E70020F6E700BF0D3000082A
S3150800317070B40C4611460C4A556885420DD9013083
S3150800318002EBC0067668E518B5420AD852F8300050
S315080031901A46204470BC00F00FB940F2014070BCDA
S315080031A0704740F20240FAE7543C0008074B5A6859
S315080031B0824207D9013003EBC002516853F8300048
S315080031C000F01AB940F20140704700BF543C0008AD
S315080031D070B5054688B0C0B14FF4003200236C467E
S315080031E0C0E900230A4B05F114061A785B680272D7
S315080031F0C360684600F0B2F80FCC0FC605F1140399
S3150800320094E8070086E807002B6108B070BD00BF88
S31508003210543C000837B50C46054611462046FDF7CE
S3150800322081FA48B969462846FFF7D8FE20B9019BB6
S31508003230C4F81852C4F81C3203B030BD38B500F5CE
S31508003240D87204460D46202300F5A4712C30FEF7EB
S315080032509DFED4F824321BB9D4E987329A4203D3A7
S31508003260A07800B1E07838BD29462046FFF7F0FE81
S31508003270EFE7000000B5ADF50F7D4FF40A7204A91B
S31508003280FFF7C8FF78B904238DF81130074BCDE94D
S3150800329000000290694604A80393FFF7CFFF0DF5D7
S315080032A00F7D5DF804FB0020F9E700BF91020008D6
S315080032B04FF0006300B59B6AADF50F7D9B688B42A6
S315080032C004D300200DF50F7D5DF804FB4FF40A7258
S315080032D004A9FFF79FFF0028F3D102238DF81130C8
S315080032E0044BCDE900000290694604A80393FFF752
S315080032F0A5FFE7E79102000800B5ADF50F7D4FF48D
S315080033000A7204A9FFF786FF78B901238DF81130F0
S31508003310074B0090CDE901300390694604A8FFF7F2
S315080033208DFF0DF50F7D5DF804FB0020F9E700BF62
S315080033306F020008B1F5C01F0BD800F17843B3F54A
S31508003340C01F06D80844044988428CBF00200120C3
S3150800335070470020704700BF0000180870B5044683
S315080033600646044D0FCD0FC495E8070084E807000C
S31508003370304670BD383C00084FF48032014B0020BF
S315080033809A66704700900040024BD86900F0010029
S31508003390704700BF0000034038B50C461146054685
S315080033A0FFF7C8FF28B12946204600F05FFB00203A
S315080033B038BD40F20240FBE738B50D4611460446D3
S315080033C0FFF7B8FF80B940F2024038BDE158013135
S315080033D00CD104339A42F9D829462046FDF7B6FAA5
S315080033E00028F0D00020F0E70023F3E740F203407E
S315080033F0EBE74FF0FF30704738B541EA0003C3F3F7
S315080034000C0304460D469BB9FFF794FF48B12544C3
S31508003410204604F50054FDF763FAAC4204D00028B0
S31508003420F6D140F2024038BD0028FAD00020FAE76B
S3150800343040F20440F7E700004FF48032014B0020C9
S315080034409A66704700A00040430905D0012B0DD0AD
S31508003450022B094B18BF002300F01F0041B103F5EA
S315080034608053012202FA00F018607047034BF3E715
S3150800347003F50053F5E700BF68800040648000400C
S31508003480F0B5114A114C124E00F00105E3695F07C9
S3150800349013D40DB9334213D103EA00078F4207D17B
S315080034A00B4A1A40002A14BF6FF001000020F0BD35
S315080034B0013AEBD16FF00200F9E74FF0FF30F6E77B
S315080034C06FF00100F3E700BF809698000000034004
S315080034D00200010070B5134C6061E3695B071ED4F6
S315080034E00E4656F8043B8D18A361AE420BD1042351
S315080034F0002121202361FFF7C3FF58B9BDE87040BA
S315080035002120FFF7BDBF08210846FFF7B9FF10B114
S315080035100423236170BD56F8043BA361E5E74FF029
S31508003520FF30F7E7000003404FF4803238B50E4B02
S315080035300E4C9A66E56941F6713315400122E3633C
S315080035400B4B0021DA600223606121202361FFF71B
S3150800355097FF10B92120FFF793FF0122054BDA6088
S315080035600DB10023E36338BD00900040000003401E
S3150800357000100340002003402DE9F84315464FF498
S315080035808032184B89469A6603F51C33DF6906466E
S31508003590174041F67132DA63012203F58053DFF8EA
S315080035A04C80DA6055B9284601220F4BDA601FB104
S315080035B00022A3F50053DA63BDE8F88306F5005444
S315080035C004EA0804A41BAC4228BF2C4649462246F6
S315080035D03046FFF77FFF0028E6D12644A1442D1B7D
S315080035E0E0E700BF009000400020034000E0FFFF36
S315080035F02DE9F04F06464FF430250120B400DFF8D8
S31508003600C0C004F1402404F58024CCF804006560A9
S31508003610302500244FF48037DFF8A8E0DFF8A890BB
S3150800362005FB06E5EC652C662C67234CDFF89CA0A9
S31508003630A76641F6713704F51C34D4F81C80E76395
S31508003640E76800FA06F60743E7604BB9E26818F43C
S31508003650803F22F00102E26000D0E363184628E0CA
S3150800366001F5005000EA0900401A984228BF18469A
S315080036706161D4F81CB087081BF0040F17D1013F0D
S315080036803F0147F060576F66AA66C5F86CA0CCF88C
S315080036902460DEF834703E42FBD0084F01447E6356
S315080036A00427CCF82860024427611B1ACDE74FF09F
S315080036B0FF30BDE8F08F00BF0090004000200440B6
S315080036C0001004400000044000E0FFFF180003401B
S315080036D04FF098435A6CD202FCD5586D00F470200E
S315080036E07047436813B9416070475B685A68012A96
S315080036F0FBD159607047836813B9816070475B686E
S315080037005A68012AFBD159607047C369032B9FBFCA
S3150800371000EB83020133D160C3617047C369042B90
S3150800372015D84FF09842116CC902FCD504339B009A
S3150800373013650168103B116041680C30116050F840
S31508003740041C034411604FF09842984200D1704718
S3150800375050F8041B1160F8E7F0B507460F4D1048FE
S315080037608DB0002B08BF05460E46144600211C22C4
S3150800377005A800F0A2F9012304A801A93D4344F0D5
S3150800378000540196049502930394FFF7B4FFFFF7DC
S31508003790C5FFFFF79DFF0DB0F0BD00BF01000AFF92
S315080037A0010008FF4FF48062014B00209A667047BB
S315080037B0009000404FF48062014B00209A667047E3
S315080037C000A000402422002100F077B970B5154604
S315080037D00E4624220021044600F06FF925F0400326
S315080037E0802B02D0B5F5807F08D12046314640F8B7
S315080037F0045BEA0800F03AF9002070BD6FF01F007C
S31508003800FBE700002DE9F04104681E4624F040035A
S31508003810802B05468846174692B002D0B4F5807FBD
S3150800382043D11C2200210BA800F047F9224A234B5A
S315080038300121B8F1010F18BF13460A932B1D0193F6
S31508003840E4081F4B44F0005402910AA80394049715
S31508003850059106930796089101A90993FFF741FF79
S3150800386004A90AA8FFF73DFF07A90AA8FFF743FF1F
S3150800387029680AA8C908FFF748FF10210AA8FFF710
S3150800388044FFFFF78FFF98B90AA8FFF747FF4FF0E5
S3150800389098435A6CD202FCD55C6DFFF78BFF04F493
S315080038A07024204612B0BDE8F0816FF07100F9E788
S315080038B04FF0FF30F6E700BF0001010400010004E5
S315080038C0100000202DE9F04F9BB007468946984620
S315080038D01646DDF894B072B115683B6823F04002CD
S315080038E0802A03D0B3F5807F40F0A6800BEB09034E
S315080038F0002400930DE01546EFE795B1249A1BF8CE
S315080039000430525D01355340269A05F00F051355CC
S3150800391001344C45F1D3002E00F09180002035602B
S3150800392067E0A9EB040ABAF10F0F57D91C222946FA
S3150800393013A800F0C2F8434B3A6812933B1D039351
S315080039400123D20842F00052049305923E4A269972
S31508003950CDF818802AF00F0A07930892CDF824802C
S315080039600A930B920BEB04020C9221444AF0005284
S315080039700D9312A80E920F9103A910931192FFF7B7
S31508003980B0FE06A912A8FFF7ACFE0CA912A8FFF70D
S31508003990A8FE0FA912A8FFF7AEFE09A912A8FFF7FD
S315080039A0AAFE396812A8C908FFF7AFFE514612A841
S315080039B0FFF7ABFEFFF7F6FEC8B912A8FFF7AEFE93
S315080039C04FF098435A6CD202FCD55B6D544403F40D
S315080039D070230193FFF7EEFE019B5BBB269B0BEB67
S315080039E0040A1C44009B9A4506D14C4691E74FF0C1
S315080039F0FF301BB0BDE8F08F8DB94246012138462D
S31508003A00249BFFF7FFFE0028F3D108F1100212F8F5
S31508003A10013D0133DBB213700BB99045F7D1249AF7
S31508003A201AF8013B525D0135534004F8013B05F095
S31508003A300F05D7E71846DCE76FF01F00D9E73046D1
S31508003A40D7E700BF03030004100000200139024431
S31508003A5010B5904201D1002005E0037811F8014F16
S31508003A60A34201D0181B10BD0130F2E70A44431ED9
S31508003A70914200D1704710B511F8014B914203F8F5
S31508003A80014FF9D110BD884210B501EB020402D9E5
S31508003A908442234607D8431EA14208D011F8012BB9
S31508003AA003F8012FF8E7024401468A4200D110BD07
S31508003AB013F8014D02F8014DF7E702440346934215
S31508003AC000D1704703F8011BF9E70000F8B500BFFD
S31508003AD0F8BC08BC9E467047F8B500BFF8BC08BCE1
S31508003AE09E467047B814B6F1E0CFF3ADB7DD25C9E9
S31508003AF0FA79B7130000000007B0CD5E0100000098
S31508003B0002000002783C0000006000080000180867
S31508003B10F0000100DD050008E10500087103000852
S31508003B202507000857070008EC3B0008910700081E
S31508003B30FF0700080000000013B779FAC925DDB7AA
S31508003B40ADF3CFE0F1B614B80101000000000000A3
S31508003B50743C000040000000020000020000000063
S31508003B600000000000000000000000000000000047
S31508003B700000000000000000FD0707FDA50A000878
S31508003B80D90A00087D0B0008710B00086A09E66768
S31508003B90BB67AE853C6EF372A54FF53A510E527F60
S31508003BA09B05688C1F83D9AB5BE0CD1980000000AC
S31508003BB000000000000000000000000000000000F7
S31508003BC000000000000000000000000000000000E7
S31508003BD000000000000000000000000000000000D7
S31508003BE000000000000000000000000000010000C6
S31508003BF0D1310008DD2F00081530000871310008A2
S31508003C00AD310008F52D0008C52C0008CD2E00089A
S31508003C10153200088B300008E9300008893300089F
S31508003C2099330008B9330008F9330008F33300085C
S31508003C304546523332000000010203002800000006
S31508003C40280000000020000000001800303C000892
S31508003C5004000000010000000100000000000E083A
S30908003C60FFFF07004D
S31508003C6479090008B10900089501000871010008DE
S705080001B53C
