S02B0000626F6F746C6F616465722D73746F726167652D696E7465726E616C2D73696E676C652D4252443431E4
S3150800000000800020A10000089D0000080B010008E0
S315080000109D0000089D0000089D0000089D0000083E
S315080000209D0000089D000008483B00089D00000848
S315080000309D000008883B00089D0000089D000008F8
S3150800004010B5054C237833B9044B13B1044800E0C6
S3150800005000BF0123237010BD10010020000000001E
S31508000060C83C000808B5034B1BB10349034800E028
S3150800007000BF08BD0000000014010020C83C0008AD
S31508000080044B054A9A60D3F8882042F47002C3F8F4
S315080000908820704700ED00E000000008FEE7000039
S315080000A008B5FFF7EDFF00F079F80E4B0E48DA1C9D
S315080000B0121AC11E22F00302994288BF00220B4978
S315080000C003F007FD0A4B0B48DA1C121AC11E22F070
S315080000D00302994288BF0022002103F021FD00F0A7
S315080000E019F800BF1001002000010020CC3C0008D0
S315080000F0AC4E0020100100200020704770470120F8
S31508000100704701F043BE01F0A1BE4FF4017003F041
S31508000110A1BC00004FF040234FF4006213B51A67E4
S31508000120D3F88420D206FBD4FFF7EBFF03F061FC7B
S3150800013008B903F04CFC02F079F8044658B903F004
S3150800014058FC08B103F04FFC40F2012003F082FC92
S315080001504FF4017018E003F04CFC08B903F03DFCBD
S3150800016003F05EFC012802D903F03DFCFEE703F02C
S3150800017061FC094B0193019B002B0ADC40F2054305
S315080001809C42E5D140F2032003F064FC002002B053
S3150800019010BD019B013BEDE700350C0013B50124AA
S315080001A04FF040238DF806408DF80740D3F8943079
S315080001B05B0610D503F062FCA0F2022080B2072885
S315080001C009D804FA00F010F0C90F1EBF00238DF8F5
S315080001D006308DF80730194B5B68013308D14FF4A8
S315080001E0027003F012FC00238DF806308DF80730F4
S315080001F09DF807305BB1114803F07CFA8DF80600CC
S315080002009DF806301BB94FF4027003F0FEFB9DF80B
S31508000210063083B103F0EDFB08B103F0E4FB074BAE
S31508000220074A93601846016881F3088881F30988AC
S3150800023040688746FEE702B010BD00BF00600008B0
S3150800024000ED00E00020704730B50824094B002572
S315080002505C66012403F5FE235C6001449D601A6117
S31508000260DC60884201D1586A30BD10F8012B1A6249
S31508000270F7E700BF00900040F7B516464FF48062D6
S315080002801D46114B04469A6620300F46019001F030
S31508000290EEFDDDE90812019801F0EDFD002384F872
S315080002A0587063643368C4F859307368C4F85D30AD
S315080002B0B368C4F861302B0C6DBA84F86530A4F8BD
S315080002C0665003B0F0BD00BF009000401FB50C4655
S315080002D0194600F14803CDE90142009300F14402B2
S315080002E000F15803203001F03DFE04B010BD0000B7
S315080002F02DE9F04315464FF480621C46364B99B0FB
S31508000300DDF880900E4607469A66002861D00029D7
S315080003105FD0002D5DD0002C58D0304B304AB9F153
S31508000320000F14BF984690461C22002111A803F01E
S31508000330F7FB2C4B414610A8109300F0F8FA202141
S3150800034010A800F0F4FA0122274B019402920393B5
S31508000350CDF810900592069354B1B9F1000F07D065
S3150800036001A910A800F0CFFA04A910A800F0CBFA4A
S31508000370079701271C4C07A910A80897099400F0AD
S31508000380C2FA0AA910A80A960B970C940D950E970F
S315080003900F9400F0B8FA0DA910A800F0B4FA10A846
S315080003A000F0CEFA114B00934FF098435A6CD202E4
S315080003B0FCD55B6D40F2046003F470230093009B48
S315080003C0002B08BF002019B0BDE8F083DFF81080C5
S315080003D0AAE740F20160F6E7009000401F2400807B
S315080003E01F24FC84000001062000002078563412E1
S315080003F04FF4806210B50446044B9A6600F0C2F8C2
S315080004002046BDE81040002100F0C0B8009000402A
S3150800041000F0C1B8014600F0CBB800002DE9F3475B
S3150800042099460A9B0C46196805463F29164642D83E
S315080004305A68002A41D0224A002E14BFB046904678
S3150800044001F03F07091928BF5A68196024BF01320D
S315080004505A60AFB1C7F1400AA24521D8294652468B
S3150800046009EB070003F035FB0123414600934A4692
S315080004703346002000F0A4F8B046403C55443C44BE
S315080004803F2C0CD9A3092A4600934146334600203F
S3150800049000F096F824F03F031D4404F03F040027BB
S315080004A02CB12246294609EB070003F012FB00206F
S315080004B002B0BDE8F0879046C2E7DFF80480BFE7E0
S315080004C0C83B000830B40546084611461A46DDE919
S315080004D0023425B931B1029430BCFFF79FBF0248F8
S315080004E030BC70470846FBE780AFFFFF2DE9F041B7
S315080004F01746146886B01E46E3008DF80F30630968
S3150800050052688DF80E30630B8DF80D30630D8DF83B
S315080005100C30D30003EB54738DF80B3004F03F0412
S315080005205309372C8DF80A304FEA52334FEA5252A4
S3150800053005468DF80820884694BFC4F13802C4F1F0
S315080005407802CDE900178DF809300D4903460020D9
S31508000550FFF7B8FF082143462A4600970DEB01002E
S31508000560FFF75CFF284605F1200350F8042B984254
S3150800057046F8042BF9D1002006B0BDE8F08100BF8B
S31508000580E83B00086822002103F0CABA0023C0E944
S3150800059000331846704707B500F128030190009309
S315080005A000F108030020FFF78DFF03B05DF804FB98
S315080005B002460B4600F128010830FFF797BF0000F6
S315080005C0F0B517464FF480621D46244B93B00E468D
S315080005D09A660446202200210AA803F0A1FA0120FF
S315080005E04FF00052019702900392049605900692E6
S315080005F0079508900992002C2ED1189C184BA40137
S3150800060021460AA80A9300F092F903990AA80C430E
S315080006100394069B04A943F020030693099B43F021
S315080006202003099300F06FF901A90AA800F06BF9F5
S3150800063007A90AA800F071F90AA800F081F94FF095
S3150800064098435A6CD202FCD55B6D064813F4702F9A
S3150800065008BF002013B0F0BD0348FBE70090004038
S315080006600004010380ADFFFF80AFFFFF430905D0FB
S31508000670012B0DD0022B094B18BF002300F01F00D9
S3150800068041B103F58053012202FA00F01860704761
S31508000690034BF3E703F50053F5E700BF6880004016
S315080006A064800040F0B5114A114C124E00F0010565
S315080006B0E3695F0713D40DB9334213D103EA000780
S315080006C08F4207D10B4A1A40002A14BF6FF0010067
S315080006D00020F0BD013AEBD16FF00200F9E74FF0C8
S315080006E0FF30F6E76FF00100F3E700BF8096980049
S315080006F0000003400200010070B5134C6061E36915
S315080007005B071ED40E4656F8043B8D18A361AE420D
S315080007100BD10423002121202361FFF7C3FF58B919
S31508000720BDE870402120FFF7BDBF08210846FFF746
S31508000730B9FF10B10423236170BD56F8043BA361C9
S31508000740E5E74FF0FF30F7E7000003404FF480324B
S3150800075038B50E4B0E4C9A66E56941F6713315406D
S315080007600122E3630B4B0021DA600223606121203A
S315080007702361FFF797FF10B92120FFF793FF0122A6
S31508000780054BDA600DB10023E36338BD00900040E5
S315080007900000034000100340002003402DE9F84301
S315080007A015464FF48032184B89469A6603F51C3372
S315080007B0DF690646174041F67132DA63012203F50E
S315080007C08053DFF84C80DA6055B9284601220F4B72
S315080007D0DA601FB10022A3F50053DA63BDE8F88397
S315080007E006F5005404EA0804A41BAC4228BF2C46AC
S315080007F0494622463046FFF77FFF0028E6D12644C1
S31508000800A1442D1BE0E700BF0090004000200340F4
S3150800081000E0FFFF2DE9F04F06464FF43025012092
S31508000820B400DFF8C0C004F1402404F58024CCF8F5
S3150800083004006560302500244FF48037DFF8A8E00F
S31508000840DFF8A89005FB06E5EC652C662C67234CBB
S31508000850DFF89CA0A76641F6713704F51C34D4F876
S315080008601C80E763E76800FA06F60743E7604BB9BA
S31508000870E26818F4803F22F00102E26000D0E363E8
S31508000880184628E001F5005000EA0900401A984287
S3150800089028BF18466161D4F81CB087081BF0040FFE
S315080008A017D1013F3F0147F060576F66AA66C5F842
S315080008B06CA0CCF82460DEF834703E42FBD0084FBA
S315080008C001447E630427CCF82860024427611B1A7A
S315080008D0CDE74FF0FF30BDE8F08F00BF0090004035
S315080008E000200440001004400000044000E0FFFF20
S315080008F0180003404FF098435A6CD202FCD5586D45
S3150800090000F470207047436813B9416070475B680C
S315080009105A68012AFBD159607047836813B9816008
S3150800092070475B685A68012AFBD159607047C369EA
S31508000930032B9FBF00EB83020133D160C36170476D
S31508000940C369042B15D84FF09842116CC902FCD51F
S3150800095004339B0013650168103B116041680C3035
S31508000960116050F8041C034411604FF098429842F5
S3150800097000D1704750F8041B1160F8E7F0B5074638
S315080009800F4D10488DB0002B08BF05460E4614467D
S3150800099000211C2205A803F0C3F8012304A801A915
S315080009A03D4344F000540196049502930394FFF7DF
S315080009B0B4FFFFF7C5FFFFF79DFF0DB0F0BD00BF01
S315080009C001000AFF010008FF826CF0B5531EB3F55B
S315080009D0887F18D8D0E9093CD0E90B47C91A914253
S315080009E028BF11464569866B2FB9C768A7EB040E61
S315080009F08E4598BF07630C44521AC4628264194430
S31508000A008B4201D14362F0BDB34234BF6446002431
S31508000A109A1B2A44125DEA540133F1E72DE9F04F97
S31508000A2093B008910E92036BD0F82CB00793436AE3
S31508000A300093079B002B40F09D80C368089A009995
S31508000A40A3EB0B03521A9A4240F294800B444FF0E0
S31508000A50FF37D0E90DA98568099307FA05F5ED432F
S31508000A600F954568C36B07FA05F5ED431095002504
S31508000A700193036C04690293436C0C950393036812
S31508000A8004F244650D934369026A0493836A0595E3
S31508000A900693D0E906360F9DB6F1807F05EA0B0866
S31508000AA04FEA0A150A9508EB0A1C3CBF13F8015BC6
S31508000AB0360234F81C7038BF45EA0222F50A7D432F
S31508000AC0954240F2B680C7F5006607EB561624F83D
S31508000AD01C60079E04F66C6C56EA0B0115D0109E36
S31508000AE000990BEA06070D9EB740002944D1069ED9
S31508000AF0013E04998E5D0D99C1F1080E46FA0EF66F
S31508000B0037444FF4C06606FB07CCBAF1060F0BF163
S31508000B10010B3DD80126BAF1030F94BFAAEB0A0AC6
S31508000B20AAF1030AB5F1807F38BF13F801EB4FEA43
S31508000B30460638BF2D023CF8067038BF4EEA022238
S31508000B404FEAD52E07FB0EFE96450CEB060816D97E
S31508000B50C7F5006507EB55177546BFB2FF2EA8F80F
S31508000B600070DFD90499009FCE5539462E460131CB
S31508000B700091A7E1089B6AE700994E1EB9E7A7EB23
S31508000B805717A5EB0E05A2EB0E02BFB20136E5E735
S31508000B900099009FA1EB090606994FF480784F4506
S31508000BA028BF00210F460499BAF10A0F0E44F15DD9
S31508000BB034BF03260626AAEB060A01260A910A99D5
S31508000BC0B5F1807F4FEA410108EB06070A9101EA71
S31508000BD0080138BF13F801EB0F4438BF2D020B91FB
S31508000BE00CEB47013CF8177038BF4EEA02224FEA71
S31508000BF0D52E07FB0EFE964511914FEA46060DD9EE
S31508000C00C7F5006507EB551775460B99BFB228EA75
S31508000C1001081199FF2E0F80D1D9A3E7A7EB571723
S31508000C20DDF82C80A5EB0E05A2EB0E02BFB201364D
S31508000C30EFE7761BA7EB5717B6F1807F24F81C70F1
S31508000C40A2EB05020AF1C00E3CBF13F8015B36029F
S31508000C5034F81E7038BF45EA0222F50A7D439542EC
S31508000C604FEA4E0C40F2D5800399C7F500660B9102
S31508000C70029907EB56160391019924F81E60CDE9EF
S31508000C8001910AF10C0A04F26467B5F1807F3CBF52
S31508000C9013F8016B2D02B7F800C038BF46EA0222E6
S31508000CA0EE0A0CFB06F6964240F27D814FF0000EE6
S31508000CB0CCF500650CEB55153D8007EB0817043796
S31508000CC04FF008094FF0010CB6F1807F38BF13F8D2
S31508000CD0018B4FEA4C0C38BF360237F80C5038BF38
S31508000CE048EA02224FEAD62805FB08F8904507EBA2
S31508000CF00C0140F28881C5F5006605EB5615464697
S31508000D00ADB2CC450D80DFD3AEEB090E0EEB0C0170
S31508000D10BAF10B0F0A9140F2A982032988BF4FF452
S31508000D209C6E4FF001059CBF4FEAC11E0EF5587E1A
S31508000D30B6F1807F4FEA450538BF13F801CB05EBBE
S31508000D400E0838BF360234F8087038BF4CEA02225B
S31508000D504FEAD62C07FB0CFC944540F25E81C7F59A
S31508000D60006607EB56176646BFB23F2D24F8087093
S31508000D70DED9403D032D3DD905F0010C0D2D4FEA76
S31508000D8055074CF0020C00F25E814FF0010EC5F1DA
S31508000D900049013F0CFA07FC09F2AF29E1444FEA82
S31508000DA049016546F1460C910C99B6F1807F4FEAE8
S31508000DB04E0E38BF13F8018B714438BF360234F82B
S31508000DC001C038BF48EA02224FEAD6280CFB08F8C9
S31508000DD090450B9140F22A81CCF500660CEB561C27
S31508000DE046461FFA8CFC0B99013F24F801C04FEACE
S31508000DF04909D9D1079905F10109002940F022824C
S31508000E00AB4500F22282009B4362012013B0BDE885
S31508000E10F08F0799A7EB571751EA0B01A6EB0506C2
S31508000E20A2EB050224F81E70EFD0B6F1807F38BF1A
S31508000E3013F8015B0CF1180E38BF360234F80E7041
S31508000E4038BF45EA0222F50A7D4395425DD9C7F5C2
S31508000E5000660A9907EB561624F80E60B5F1807FEE
S31508000E6001F1F00E38BF13F8016BC64438BF2D02E6
S31508000E7034F81E7038BF46EA0222EE0A7E439642CE
S31508000E802AD90099C7F5006507EB551524F81E50B1
S31508000E90009FA1EB090506990BF1010B4F4528BFE9
S31508000EA000210F460499BAF1070F0D44ED5D009F26
S31508000EB038BF4FF0090ACD55394628BF4FF00B0AFF
S31508000EC0013100910999009DA94240F281810E994C
S31508000ED099423FF6E0AD7BE1AD1B921B019ECDF832
S31508000EE00490B146A7EB571724F81E700399BAF178
S31508000EF0070F0B91029934BF4FF0080A4FF00B0AFF
S31508000F00CDE9029104F66827BFE6761BA7EB5717CB
S31508000F10B6F1807F24F80E70A2EB05020CF1300EB4
S31508000F203CBF13F8015B360234F80E7038BF45EA49
S31508000F300222F50A7D43954206D9C7F5006607EBF6
S31508000F40561624F80E60D1E7761BA7EB5717B6F1AD
S31508000F50807F24F80E70A2EB05020CF1480C3CBF0A
S31508000F6013F8015B360234F80C7038BF45EA0222E2
S31508000F70F50A7D4395420AD9C7F5006607EB56166A
S31508000F8024F80C60DDE9016101910296AEE7039948
S31508000F90521B751B019E01910299A7EB571724F85E
S31508000FA00C700391F1E7AD1BACEB5C1CB5F1807FCF
S31508000FB0A7F800C0A2EB06023CBF13F8016B2D028E
S31508000FC0B7F802C038BF46EA0222EE0A0CFB06F65C
S31508000FD096420BD9CCF500650CEB55157D8007EBD1
S31508000FE008174FF0080E07F5827769E6ACEB5C1C2C
S31508000FF0921BA7F802C04FF0100E4FF4807907F540
S315080010000177AE1B5EE6A5EB5515A6EB0806A2EB27
S315080010100802ADB20CF1010C73E6A7EB5717A6EB65
S315080010200C06A2EB0C02BFB201359EE6ACEB5C1CCB
S31508001030A6EB0806A2EB08021FFA8CFC0EF1010EBD
S3150800104045EA0905CFE6053FB6F1807F3EBF13F8AE
S31508001050015B360245EA02227608921B4FEA4C0CDF
S315080010600CF1010C06EAE275013F0CEBE27C2A441E
S31508001070EAD1B6F1807F38BF3602B4F846E64FEAC1
S315080010800C154FEAD62C0EFB0CFC3CBF13F8017B63
S3150800109047EA022294455ED90227CEF500660EEB92
S315080010A0561E1FFA8EFE0599BCF1807FA4F846E607
S315080010B031F817E04FEA470601EB47083EBF13F839
S315080010C0017B4FEA0C2C47EA02224FEADC270EFB8B
S315080010D007F797424BD9CEF5006C0EEB5C1E1FFA4C
S315080010E08EFE0599A8F800E0B7F1807F31F816C0A2
S315080010F04FEA460E01EB46083EBF13F8016B3F0266
S3150800110046EA0222FE0A0CFB06F696423AD9CCF5C6
S3150800111000670CEB571C1FFA8CFC0599B6F1807F0B
S31508001120A8F800C031F81E704FEA4E0C3EBF13F8FF
S3150800113001EB36024EEA02224FEAD62E07FB0EFED6
S3150800114096452AD90599C7F5006607EB561621F87C
S315080011500C6076464EE6AEEB5E1EA2EB0C0203274B
S315080011601FFA8EFE45F00105A6EB0C0C9BE7AEEBCD
S315080011705E1ED21B1FFA8EFE013645F00205ACEB49
S315080011800707AEE7ACEB5C1C921B1FFA8CFC0EF152
S31508001190010E45F00405BE1BBFE70599A7EB5717D7
S315080011A045F0080521F80C70691CA6EB0E06A2EBA3
S315080011B00E027FF41FAE0A99AAF10C0A01F589718D
S315080011C00C91DDE901910191039902910B99039123
S315080011D0B6F1807F3CBF13F8014B3602C0E90636EC
S315080011E00C9B38BF44EA02228364009B0262436276
S315080011F0019BC0F82CB0C363029BC0F83890036407
S31508001200039BC0F834A04364036B1BB9C3685B45F2
S3150800121098BF03630899FFF7D7FB436A089A934276
S31508001220836C07D282690E998A4203D2B3F5897F05
S31508001230FFF4F9ABB3F5897F02D94FF48973836458
S315080012400020E3E50799A942DBE5BAF1130F34BF9D
S315080012504FF0070A4FF00A0A0A99009D01F1020C9D
S315080012600999B1EB050809D12B46CDE5DDE90191D0
S315080012700191039902910B990391EDE70099009F5B
S31508001280A1EB09050699E04528BFE0464F4528BF6A
S3150800129000210D44ACEB08010C910699C3444F1B81
S315080012A0B8450499009F0F440CD8009907EB080C21
S315080012B06D1A4144009117F805E007F801EBBC45A3
S315080012C0F9D1FFE508EB070C049911F805E0069932
S315080012D007F801EB0135A94208BF0025BC45F3D143
S315080012E00099414444E42DE9F047D0E90753012722
S315080012F08468D0F82C80A740D0F834C0013F06692E
S3150800130007EA080707EB0C1EB5F1807F36F81E9032
S315080013100A4407D2914280F0DC8111F8014B2D0274
S3150800132044EA0323EC0A09FB04F4A34278D2076BC8
S3150800133006F66C6658EA070519D0D0E900E70125D4
S31508001340BD40013D05EA080505FA0EF7456AD0F8DD
S31508001350148005B9856A013D18F80550CEF1080EC6
S3150800136045FA0EF53D444FF4C06707FB0566BCF128
S31508001370060F20D801204000B4F1807F375A07D2E3
S31508001380914280F0A68111F8015B240245EA032305
S31508001390E50A7D43AB4229BF01302C46641B5B1B23
S315080013A0FF28E8D90120B4F1807F80F0228191429C
S315080013B028BF00201DE1876BD0F824C04569BC45CD
S315080013C0ACEB070E2CBF0027876A05EB0E0010F85A
S315080013D007C001204FF480774FEA4C0C07EA0C0E41
S315080013E03D187544B4F1807F36F8158007D29142CE
S315080013F080F06F8111F8015B240245EA0323E50AB0
S3150800140008FB05F54000AB422BBF01302C4677465A
S3150800141027EA0E0724BF641B5B1BFF28DCD9C1E73C
S31508001420281B0CF1C00CB0F1807FA3EB04034FEA34
S315080014304C0436F81CC007D2914280F04A8111F854
S31508001440015B000245EA0323C50A0CFB05F5AB421E
S3150800145080F0A08002204FF0000E06F2646CB5F111
S31508001460807FBCF8008007D2914280F0328111F863
S31508001470014B2D0244EA0323EC0A08FB04F4A342B9
S3150800148080F0EB800CEB071707F1040C00274FF0F0
S3150800149008094FF001084FEA4808B4F1807F3CF884
S315080014A008A007D2914280F0148111F8015B24024A
S315080014B045EA0323E50A0AFB05F5AB4229BF08F10D
S315080014C001082C46641B5B1BC845E4D3BEF1030F19
S315080014D03FF669AFA7EB09074744032F88BF4FF4C8
S315080014E09C674FF001059CBFFF0107F558776D0013
S315080014F006EB050CB4F1807F3CF807E007D2914271
S3150800150080F0E78011F801CB24024CEA03234FEA66
S31508001510D42C0EFB0CFC634529BF01356446A4EBAD
S315080015200C04A3EB0C033F2DE1D9403D032D7FF6B8
S315080015303AAF0D2D4FEA550700F2B18005F0010CC0
S31508001540013F4CF0020CC5F100450CFA07FC05F208
S31508001550AF25654406EB45064FF0010C4FEA4C0CE7
S31508001560B4F1807F36F80CE007D2914280F0B18062
S3150800157011F8015B240245EA0323E50A0EFB05F58B
S31508001580AB4231BF2C46641B5B1B0CF1010C013FBF
S31508001590E4D108E7401B3444B0F1807FB4F818C0A2
S315080015A0A3EB050307D2914280F0938011F8015B03
S315080015B0000245EA0323C50A0CFB05F5AB4222D215
S315080015C00EF1F00EB5F1807F36F81E4006D2914234
S315080015D07FD211F8010B2D0240EA0323E80A604383
S315080015E0834208D2B0F1807F71D2914234BF032082
S315080015F00020BDE8F0872D1A1B1A03204FF00C0EA9
S3150800160006F6682C2BE7401BB0F1807FB4F830C093
S31508001610A3EB050306D291425BD211F8015B0002E7
S3150800162045EA0323C50A0CFB05F5AB42E5D3401B87
S31508001630B0F1807FB4F84840A3EB050306D2914287
S3150800164047D211F8015B000245EA0323C50A654340
S31508001650AB4224BF5B1B451BCFE72D1BB5F1807F33
S31508001660BCF80280A3EB040306D2914231D211F8EA
S31508001670014B2D0244EA0323EC0A08FB04F4A342B7
S3150800168005D20CEB071707F5827C0827FFE61B1B1C
S3150800169010274FF480790CF5017C2C1BF9E6053FE1
S315080016A0B4F1807F06D2914213D211F8015B24026D
S315080016B045EA032364081D1BED0F013D2540013F44
S315080016C0A3EB0503ECD1042706F2446644E703209E
S315080016D08FE700208DE700230122C0E90B33C0E91C
S315080016E0123243628365026570472DE9F04F9846CA
S315080016F00025044685B09DF83830DDF83CB0D8F8AA
S315080017000070C8F8005007EE901A16460293FFF7C5
S315080017105BF98BF80050A36CB3F5897F09D1236A6E
S3150800172013B901238BF80030256A003D18BF01253F
S315080017301EE0E36C4BB3A36DA7B1042B04D994F850
S315080017405C30CBB1012513E05A1CA26516F8012BB3
S31508001750234483F85C20D8F80030013F0133C8F8E9
S315080017600030E8E7042BEAD8032300258BF800307D
S31508001770284605B0BDE8F08FD4F85D20E36412BAB8
S3150800178022624FF0FF32A365E26117EE902A636A80
S3150800179093420DD3A36C002B40F0B180256A002D2F
S315080017A040F0B58004238BF80030E1E70223DCE73C
S315080017B000230193236D9BB1D4E900321A444FF4F8
S315080017C0407393400022216903F23673934225D869
S315080017D00123C4E91033C4E90E3300236363236588
S315080017E0D4F85890B9F1000F5DD1132F01D9019B98
S315080017F003B33A4631462046FFF775FD054698B9C4
S315080018003A46314604F15C0002F063F9A765D8F858
S3150800181000303B44C8F800300323C4E74FF4806027
S3150800182021F812000132D1E7019A0AB102286AD1D9
S31508001830324602E0A7F11402324417EE901A204607
S31508001840A661FFF7EBF800287FF47CAFA169D8F80A
S3150800185000308E1B3344C8F80030BF1B0E465AE7CB
S3150800186016F80A2009F1010903F809200AF1010A04
S31508001870B9F1130F01D8BA45F2D1B9F1130FC4F86B
S31508001880589004F15C0301D9019AAAB119464A464F
S3150800189020460393FFF727FD039B054640B9D8F872
S315080018A000305344B6E74FF0000A04F15B03DFE764
S315080018B0019909B1022826D11A4617EE901A204630
S315080018C0A3610193FFF7AAF800287FF43BAFA2694A
S315080018D0019BD31A994510D3A9EB030292450CD361
S315080018E0D8F800205344A3EB09010A444F44C8F82A
S315080018F000203144FF1AA065B0E70B2538E7029BA4
S31508001900002B3FF453AF02238BF800301AE7029BF3
S31508001910002B3FF44BAF01234BE72DE9F04F89B07D
S3150800192099469DF84C30044603930023884616468C
S31508001930DDF848A01768DAF800B01360CAF8003076
S31508001940D4E909318B4204BF00236362656A149A9D
S315080019504B1BBB4232BF0023039B7919CDE90032EA
S3150800196020464A4607ABCDF81CB0FFF7BEFE079ADD
S31508001970DAF8003061691344CAF80030636A0290E5
S31508001980294440469144ABEB020B5A1B059304923B
S3150800199002F09FF8059B049AED1A336890441344A5
S315080019A03360029B2F4413B90AB1002FC8D102989D
S315080019B009B0BDE8F08F10B504464B6808462169A2
S315080019C098470023236110BD70B5D1E900532B4415
S315080019D04FF440759D4003690446164605F2367570
S315080019E023B1436DAB4201D1002070BD314620467C
S315080019F0FFF7E1FF3046336869009847656520615F
S31508001A000028F1D10220F0E738B504460D46FFF765
S31508001A10D2FF6B682846616998470023636138BD21
S31508001A20042A01D804207047D1F80130B3F5805F45
S31508001A3038BF4FF48053C3600A78E02AF2D80923E6
S31508001A40B2FBF3F303EBC301521AD2B202600522CA
S31508001A50B3FBF2F2826002EB82029B1ADBB24360AE
S31508001A60002070472DE9F04385B0E8460446404615
S31508001A709946FFF7D5FF054670BB4A4641462046BC
S31508001A80FFF7A2FF054638BB039FB7F1804F27D261
S31508001A9040F6FF76164BB7F5800F28BF1E46F3199A
S31508001AA023EA06066169B74238BF374611B1A36A09
S31508001AB0BB4217D04846D9F8043098470023394620
S31508001AC063614846D9F800309847606150B949467D
S31508001AD02046FFF770FF0225284605B0BDE8F083CB
S31508001AE0044EDCE798E80F00A76284E80F00F3E7E6
S31508001AF0FFFF0F00FFFF3F000A4B186830B9B1F52A
S31508001B00205F0DD8012208481A607047012806D1BF
S31508001B10B1F5005F03D8022204481A607047002016
S31508001B20704700BF2C010020A4210020A00100203E
S31508001B3031B1044A1368002BC4BF03F1FF331360A5
S31508001B40704700BF2C01002002232DE9F04F804684
S31508001B50894600278BB0DFF8C8A0DFF8C8B0049222
S31508001B608DF81F309DF81F20022A08D0049B002BF1
S31508001B7049D041F20231012A18BF0F4643E0DAF88C
S31508001B800010244DC1F540730893DBF80030224855
S31508001B9009930DF11F0302930023019309AB0093E8
S31508001BA008AA1E4B2944FFF7B8FE50BB9DF81F3004
S31508001BB06BB3089BDAF8004029461C4424F0030658
S31508001BC032464B46404600F047FCB4420746A4EB73
S31508001BD0060205D02846A919059201F087FF059A3D
S31508001BE00999CAF80020DBF800208A42A2EB010412
S31508001BF004D90A482246014401F078FFCBF8004090
S31508001C00B0E741F2033738460BB0BDE8F08F41F232
S31508001C100237F8E7A84B002030010020A44900202D
S31508001C20A84E0020A44B002008B5702200210648C3
S31508001C3001F076FF01220020044B1A70044B18604D
S31508001C40044B186008BD00BF30010020A021002009
S31508001C50A84E0020A44B00202DE9F843804658687A
S31508001C600F461446994620B31C4B1D787DB10022B9
S31508001C701A7051F8043B0522C8F860301848194B09
S31508001C80FFF7F0FE30BB1648FFF725FD1125164E67
S31508001C90641B3368C3F50073A3420CD3D6F80080DF
S31508001CA0124822467919404401F013FF00204444A3
S31508001CB03460BDE8F883002249464046FFF744FFF2
S31508001CC00028F6D13368C3F50073A342E6D241F281
S31508001CD00430EEE741F20530EBE700BFA021002013
S31508001CE03001002000010020A44B0020A449002058
S31508001CF0436D002B0CBF112001207047F8B54C68C6
S31508001D0006460D46ECB10122FFF71EFF0446C0B990
S31508001D100E4B186888B10E4F0428C0F104024FF024
S31508001D20FF0188BF0022384401F0FAFE2B46042240
S31508001D303946304600F090FB28B906490648FFF7B1
S31508001D4063FE2046F8BD0446FBE700BFA84E002008
S31508001D50A84B00200001002030010020B1F5C01F6B
S31508001D600BD800F17843B3F5C01F06D808440449D8
S31508001D7088428CBF0020012070470020704700BFB2
S31508001D800000180800487047303C00084FF48032BD
S31508001D90014B00209A66704700900040024BD869B4
S31508001DA000F00100704700BF0000034038B50C463C
S31508001DB011460546FFF7D2FF28B12946204601F00D
S31508001DC088FE002038BD40F20240FBE738B50D46D4
S31508001DD011460446FFF7C2FF80B940F2024038BDFB
S31508001DE0E15801310CD104339A42F9D829462046E4
S31508001DF001F052FB0028F0D00020F0E70023F3E7BB
S31508001E0040F20340EBE74FF0FF30704738B541EA40
S31508001E100003C3F30C0304460D469BB9FFF79EFF68
S31508001E2048B12544204604F5005401F0FFFAAC42B7
S31508001E3004D00028F6D140F2024038BD0028FAD076
S31508001E400020FAE740F20440F7E700004FF480323A
S31508001E50014B00209A66704700A000404FF0984357
S31508001E605A6CD202FCD5586D00F4702070472422B3
S31508001E70002101F055BE70B515460E4624220021F4
S31508001E80044601F04DFE25F04003802B02D0B5F53F
S31508001E90807F08D12046314640F8045BEA0801F005
S31508001EA018FE002070BD6FF01F00FBE72DE9F0411A
S31508001EB004681E4624F04003802B054688461746CC
S31508001EC092B002D0B4F5807F42D11C2200210BA823
S31508001ED001F026FE204A214B0121B8F1010F18BF57
S31508001EE013460A932B1D0193E4081D4B44F0005436
S31508001EF002910AA8039404970591069307960891F8
S31508001F0001A90993FEF7FFFC04A90AA8FEF7FBFC42
S31508001F1007A90AA8FEF701FD29680AA8C908FEF755
S31508001F2006FD10210AA8FEF702FD00F0D9F80446BE
S31508001F3050B90AA8FEF704FDFFF790FF054600F022
S31508001F40DDF8002D18BF2C46204612B0BDE8F081FA
S31508001F506FF07104F8E700BF0001010400010004F6
S31508001F60100000202DE9F04F9BB007468946984699
S31508001F701646DDF894B072B115683B6823F0400246
S31508001F80802A03D0B3F5807F40F0A0800BEB0903CD
S31508001F90002400930DE01546EFE7A5B1249A1BF837
S31508001FA00430525D01355340269A05F00F05135546
S31508001FB001344C45F1D3002E00F08B8000203560AB
S31508001FC01BB0BDE8F08FA9EB040ABAF10F0F52D97E
S31508001FD01C22294613A801F0A3FD3F4B3A68129329
S31508001FE03B1D03930123D20842F000520493059245
S31508001FF03A4A2699CDF818802AF00F0A07930892CC
S31508002000CDF824800A930B920BEB04020C92214420
S315080020104AF000520D9312A80E920F9103A910933D
S315080020201192FEF770FC06A912A8FEF76CFC0CA923
S3150800203012A8FEF768FC0FA912A8FEF76EFC09A9FC
S3150800204012A8FEF76AFC396812A8C908FEF76FFCE1
S31508002050514612A8FEF76BFC00F042F80028AFD1F3
S3150800206012A8FEF76DFCFFF7F9FE019000F046F89E
S31508002070019B544443BB269B0BEB040A1C44009B60
S315080020809A4501D14C4694E755B1249A1AF8013B72
S31508002090525D0135534004F8013B05F00F05EEE7A4
S315080020A0424601213846249BFFF700FF002887D1C6
S315080020B008F1100212F8013D0133DBB21370002B50
S315080020C0E3D19045F6D1E0E7184679E76FF01F00AF
S315080020D076E7304674E700BF0303000410000020CB
S315080020E008B500F03EF830B900F03EF8003818BFE1
S315080020F00120404208BD4FF0FF30FBE700F03CB836
S315080021000068024BC31A584258417047FD0707FD3D
S31508002110034A044B90420CBF18460020704700BF84
S31508002120FD0707FD5C3C000800207047002070474B
S315080021300020704700207047012070474FF0006369
S315080021409B6A186970474FF00063986A70470000E9
S3150800215000487047008000080120704741F20600D9
S3150800216070470020704700004FF48062014B002042
S315080021709A667047009000404FF48062014B002039
S315080021809A66704700A0004010B5ADF50A7D4FF479
S315080021900A726946002000F08FFF40F201240021F0
S315080021A0684600F0CEFEA042F9D040F203239842DA
S315080021B020D19DF8003059070CD49DF800309A07B5
S315080021C01DD4DB0716D50399869800F0E9FF88B178
S315080021D0002011E00A9801F021FB0028EDD086982E
S315080021E000F09AFF0028E8D0FFF7B2FF01F046FB9F
S315080021F00028E2D140F205400DF50A7D10BD4FF0EA
S315080022000062926A019992689142DAD9869800F03A
S31508002210A1FF0028EED0FFF79BFF099901F0B4FA59
S31508002220E8E700000048704700E00E08FFF7ACBF7B
S315080022304FF4806200B50B4B91B09A66694600234D
S3150800224040224FF48070FEF799FBB0F5A02F07D017
S31508002250B0F5302F044818BF002011B05DF804FB14
S315080022600148FAE7009000404CE317084FF48062F3
S3150800227000B50B4B91B09A666946002340224FF48D
S315080022808070FEF77BFBB0F5A02F07D0B0F5302F96
S31508002290044818BF002011B05DF804FB0148FAE7AE
S315080022A0009000406CE317080048704786E217085C
S315080022B070B5D1E90152AA4205D290F840302B44B4
S315080022C09B1A402B10D9002012E00A6890F840406B
S315080022D0D65C90F841200133224402F03F020134D3
S315080022E086548B6080F840408B689D42EDD801206B
S315080022F070BD2DE9F8431D461746D1E901329B1AF0
S3150800230090F84020044613449D420E469DF82090BE
S315080023109DF8248056D9FFF7CBFF00285CD11523FA
S3150800232041F2020084F84630BDE8F88394F841206B
S31508002330A25CFA5494F841200133013202F03F02BC
S3150800234084F8412094F84020013A84F8402094F813
S3150800235040200AB19D42E9D1D6E90121914201D234
S315080023609D4231D89D42DAD129463846D4F888208C
S31508002370FDF76AFFC4F88800B9F1000F04D02A46B1
S315080023803946E06CFEF744F8B8F1000F08D094F827
S3150800239043308BB12B463A463946A06CFDF796FF7B
S315080023A094F8433043B1E36DA26D2B449342E36541
S315080023B024BF002384F84330636D41F203002B44A5
S315080023C06365B1E70023C2E73268525CFA54B26823
S315080023D001330132B260BFE70020A5E77FB50023CD
S315080023E0CDE90033082315460DEB03020446FFF733
S315080023F080FF41F203039842064626D194F84330FB
S3150800240063B10822E06C0DEB0201FEF701F8082320
S315080024100DEB03021146A06CFDF758FF039A029BC9
S315080024206A6094F843202B605AB9094A934208D047
S31508002430084A934205D00822E06C0DEB0201FDF72D
S31508002440E7FF6B68236500236365304604B070BDFB
S31508002450F70A0AF7FC0404FC2DE9F3470446586812
S315080024600D4690469946002843D08B0744D1FFF77E
S3150800247065FE216E031D08EB010C63451DD800F1AE
S315080024801C07B94219D28B421E4638BF0E46BC45B8
S3150800249094BFC6EB0C02C6EB0702711AF61A05EBD7
S315080024A0010A06F1680051462044019201F011FB29
S315080024B0FF215046019A01F033FBFFF749FE226ED1
S315080024C0031D93420BD308EB02010830814206D361
S315080024D09B1AEA58C4F880204FF0FF32EA50424669
S315080024E0D9E90036206E2946B0470020226E4244BC
S315080024F0226602B0BDE8F08741F20200F9E72DE94D
S31508002500F04100264FF0FF3804460F46154603F003
S31508002510200380F842301822FF21C0E91866A0F887
S31508002520406080F84360A0F8446080F84660C0F8D0
S315080025308880683001F0F4FA88223146C4E91275B9
S31508002540C4F88080C4F8848004F1900001F0E8FAA9
S3150800255084F81861FFF7EAFD20B11FB941F20B00B4
S31508002560BDE8F081FFF7E0FD30B1002DF6D0E06C54
S31508002570FDF73EFF0020F3E7002DF8D12846EFE7E8
S315080025802DE9F04FB9B0CDE90B23049300274FF09E
S3150800259000630446D3F834900E46429D0D97FFF724
S315080025A0D2FD0369403B994500F2E680B8460D9A8C
S315080025B0049B9A425ED294F84630152BF8D8DFE889
S315080025C013F08E00A7008700D8005B004200390090
S315080025D079024200730242005A02420073028303E0
S315080025E063041600EE03F2030E04070363044FF0B8
S315080025F0000A636D0F2B70D8012710230EAA2046F8
S31508002600CDF804A000970BA9FFF773FE41F2030368
S315080026100890089A9A426DD1D4F848B0FFF744FE5C
S3150800262080230221CDE900030FAA3B465846FDF751
S3150800263023FEDEE70127D4E914329A42C0F0A281CC
S3150800264084F84670B3E74FF0010AD4E91473BB4225
S315080026500D9942D20C9AFF1A94F84030521A032F59
S315080026601A4440F22B82032A00F22B8220460BA939
S31508002670FFF71EFE0020B6E00127636D072B96D8EC
S3150800268008230EAA2046CDE900770BA9FFF731FEED
S3150800269041F203030890089A9A422BD1337843F003
S315080026A0020333700E9B7360236D083B73620F9BA6
S315080026B0B3F1006F07935CD1052384F8463094F88C
S315080026C0453043F0010384F8453000236366D4E7B8
S315080026D00027636D072B40F20481012315E009AA40
S315080026E020460BA9FFF77AFE41F203030890089AE1
S315080026F09A4201D0089876E00A9B099A2365002336
S315080027006365944B9A4234D1022384F846304EE7E7
S3150800271009AA20460BA9FFF761FE41F203030890B8
S31508002720089A9A42E6D194F84420099B22B18A4A2B
S3150800273093421ED10E23E8E794F84220D7075AD5CC
S3150800274094F84320002A56D184498B4200F0BD8074
S3150800275020D8834A93420CD011D8824A934200F07B
S31508002760AD801ED87B4A934203D002F1B64293420B
S3150800277017D1152384F8463041F2010033E07A4A2E
S3150800278093422BD00DD802F17E42023A9342F0D002
S31508002790764AECE776498B4217D00BD875498B42B7
S315080027A015D0152309A884F84630FFF7A9FC002898
S315080027B0E2D116E0684A934218D0013A9342F0D91A
S315080027C06D4A9342D5D06D4AD1E710239DE7112370
S315080027D084F84630236DC4E91632E8E6152384F8F2
S315080027E0463041F2080039B0BDE8F08FFFF79CFC8F
S315080027F000289FD0BDE75D4A934256D037D8584A3D
S31508002800934250D02ED802F1D54202F5E01202F6D4
S31508002810F742934245D0534A93424AD009A8FFF754
S315080028206FFC002853D01423099884F84630C4F85E
S315080028308C00FFF76DFC94F84230804698067FF5C9
S31508002840B6AEB8F1000F3FF4B2AED8F80430002B9C
S315080028503FF4ADAE204698470890089B002B3FF4FE
S31508002860A6AE89E7464A9342D8D104234DE7424AA1
S3150800287093421CD010D8394A934221D0364A934203
S31508002880CCD1FFF751FC00287FF473AF94F843309E
S31508002890002B3FF44FAF6CE7384A9342BED1092369
S315080028A033E70B2331E706232FE707232DE70D230D
S315080028B02BE794F84330002B7FF45BAF122324E711
S315080028C094F84330002B7FF454AF13231DE71523E8
S315080028D084F8463094F84330002B82D041F2040045
S315080028E081E701230EAA00932046082301970BA926
S315080028F0FFF7FFFC41F203030890089A9A427FF417
S31508002900F9AE0E9B03F07F43B3F1407F05D0152344
S3150800291041F2090084F8463065E70F9BD90707930B
S315080029200ED594F8423043F0010384F84230FFF79D
S31508002930FBFB00283FF4CDAE079BDA0504D5C8E6B5
S31508002940FFF7F4FB0028F2D0152341F20A0084F8B9
S31508002950463048E7EB17A603FC0404FCF70A0AF717
S31508002960F40A0AF4F30B0BF3F70909F7F60808F665
S31508002970FA0606FAF90707F9FD0303FDFE0101FE4B
S31508002980F50909F50EAA2046CDE900770BA9FFF748
S31508002990B0FC41F203030890089A9A427FF4AAAE63
S315080029A006F1080A53460DF1380C0DF1500E624631
S315080029B003CA724518605960944603F10803F6D1B4
S315080029C0106818603378504643F001033370FFF7F8
S315080029D0C3FB28B9152341F20C0084F8463002E7F8
S315080029E000215046FFF7A8FB00287FF424AEF1E744
S315080029F0012310AACDE90033204608230BA9FFF7C7
S31508002A0078FC41F203030890089A9A427FF472AE62
S31508002A10337843F004033370119BB36273785B0712
S31508002A2026D5EB238DF8383017238DF83930A623B1
S31508002A308DF83A305E2300208DF83B30236D6066B2
S31508002A40C4F8843094F8453043F0020384F84530DE
S31508002A50EF686FB104222B680EA9B8470822606E8A
S31508002A602B68EF6810A91044B847636E1033636685
S31508002A700C2384F84630636D072BB9D997E50423F0
S31508002A800EAA2046CDE900770BA9FFF732FC41F2E2
S31508002A9003030890089A9A427FF42CAE226D0E9B87
S31508002AA0042A079301D923660127636D032BE6D908
S31508002AB00A232AE600236366082326E697423FF69A
S31508002AC0D5AD402F28BF4027974228BF1746032F6A
S31508002AD088BF27F003073B460EAA2046CDE900AA81
S31508002AE00BA9FFF706FC41F203030890089A9A42DD
S31508002AF07FF400AE94F84630082B04D1D5F808B018
S31508002B00BBF1000F24D1042FC7F1040B88BF4FF087
S31508002B10000B05930EABD8195A46FF2101F000F8B1
S31508002B2007EB0B030393059B0A2B1AD16B683BB182
S31508002B30012106F10800FFF7FFFA00283FF44AAF23
S31508002B402B462046039A0EA9FFF786FC08907CE5DB
S31508002B503A462B68606E0EA9D847626E3A4462669A
S31508002B6073E5052B21D173789F077FF56EADEB686A
S31508002B70002B3FF46AAD626E042A0BD8039B1344FC
S31508002B80062B07D90FAB9B1A1A68C4F884204FF096
S31508002B90FF321A602B68039A606EEF680EA9B84771
S31508002BA0626E039B134463664FE50C2B7FF44DADB1
S31508002BB0737858077FF549ADD5F80CB0BBF1000F0F
S31508002BC03FF443AD2B68039A606E0EA9D847E7E732
S31508002BD094F84230990607D5D4F88C00FFF798FA8E
S31508002BE0804600283FF4C8AD6B683BB1012106F169
S31508002BF00800FFF7A1FA00283FF4ECAE4FF0010AEF
S31508002C0043E0002B5ED0B8F1000F5BD0D8F8103047
S31508002C10002B57D020469847DDE90C73FF1A94F825
S31508002C2040303B4498423FF621ADD4E91472BF1AAE
S31508002C30402F28BF40279F4228BF1F460EAA3B4663
S31508002C402046CDE900AA0BA9FFF753FB41F203037F
S31508002C500890089A9A427FF44DAD94F842309A0645
S31508002C6013D5B8F1000F3FF487ADD8F808B0BBF11B
S31508002C70000F3FF481AD2B463A4620460EA9D847A9
S31508002C800890089B002B7FF435ADD4E9142194F8FD
S31508002C904230914203F02003B3D3002B3FF41DAD1D
S31508002CA0B8F1000F3FF419ADD8F80C30002B3FF4FB
S31508002CB014AD2946204698470890089B002B3FF4F8
S31508002CC00CAD17E50120A7E700230EAACDE90033CE
S31508002CD0204604230BA9FFF70CFB41F203030890D7
S31508002CE0089A9A427FF406ADD4F88820684B9A422F
S31508002CF005D0152341F2050084F8463073E5FFF741
S31508002D0013FA002842D10123F37094F845309B0743
S31508002D1007D0EF682FB104222B68104604F184010E
S31508002D20B847236E002B34D06B6893B34FF0FF334C
S31508002D3004F18001042207A80793039100F0B9FE65
S31508002D4040B1FFF705FA28B1D5E9003704220399FF
S31508002D501044B84704F168070422394607A800F06A
S31508002D60A8FEB0B1D5F80480FFF7E8F92B6804F19E
S31508002D706C0114220830C047D5F80480FFF7DEF945
S31508002D80042239462B681044C04702E0F378002B2A
S31508002D90BBD10123B3700F2384F846306AE40123BC
S31508002DA084F84330B1E494F81831002B7FF4FFAB74
S31508002DB04A461EAB20460BA9FFF7D0F941F2060397
S31508002DC00890089A9A4203D1152384F8463091E46C
S31508002DD041F20303089A9A423FF4E9AB8AE494F86D
S31508002DE04430002B7FF479ACCDE900330EAA40239A
S31508002DF020460BA9FFF77DFA41F203030890089ACB
S31508002E009A427FF477ACE06CFDF704FB94F81871EE
S31508002E10A7B104F1B403009304F19403E06C16AA75
S31508002E200EA9FDF765FA0890089B43B30023F370D3
S31508002E30152341F2060084F84630D4E4FFF778F902
S31508002E4088B1D9F83830E06C03F1240200920433D3
S31508002E5016AA0EA9FDF74CFA0890089B002BE3D09A
S31508002E603B460097DAE7E76CFFF7E2F90390FFF7CE
S31508002E70FDF9039B009016AA38460EA9D1E701234F
S31508002E80F37084F8443028E441F20700ABE400BF4D
S31508002E90E320BBDE31B10A4B5A68824205D80023CB
S31508002EA0C1E9003340F201407047013053F8302041
S31508002EB003EBC00043680A6000204B60704700BF00
S31508002EC04C3C000801221A707047000070B40C468A
S31508002ED011460C4A556885420DD9013002EBC006E9
S31508002EE07668E518B5420AD852F830001A462044E2
S31508002EF070BCFEF75BBF40F2014070BC704740F201
S31508002F000240FAE74C3C000830B504460D46A3B02B
S31508002F10D0F8201202AA8023D0F81802FFF7D6FFAD
S31508002F2080232146009502AA04F12C00FFF728FB0E
S31508002F30D4F82032C4F824028033C4F8203223B0EF
S31508002F4030BD1FB50023CDE90033CDE90213D0F813
S31508002F502432044693B9D0E987329A420ED269469A
S31508002F60FFF7D2FFD4F8240298B141F2070240F2E3
S31508002F700123904208BF184604B010BDA3785BB180
S31508002F8040F2022040F20323E278002A18BF1846CE
S31508002F90F2E740F20120EFE740F20220ECE70000FA
S31508002FA070B50D46002186B00DF1070302931F4B3D
S31508002FB004461646116028461C22CDE903338DF8CF
S31508002FC00710059300F0ACFD94F87230142B28D046
S31508002FD0D4F824322BBBD4E98721914207D2204664
S31508002FE002A9FFF791FF9DF80730002BECD0227855
S31508002FF0910744BF61683160D20709D504F1080218
S3150800300004F1240152F8040B8A4245F8040BF9D15D
S315080030104BB9237840F20640002B18BF002006B0B3
S3150800302070BD0023E3E70020F9E700BFC52E0008BE
S3150800303070B40C4611460C4A556885420DD90130C4
S3150800304002EBC0067668E518B5420AD852F8300091
S315080030501A46204470BCFEF7B9BE40F2014070BC67
S31508003060704740F20240FAE74C3C0008074B5A68A2
S31508003070824207D9013003EBC002516853F8300089
S31508003080FEF7C4BE40F20140704700BF4C3C000842
S3150800309010B5044660B14FF480320023C0E900231E
S315080030A0044B1A785B680272C360FEF76BFE2061F8
S315080030B010BD00BF4C3C000837B50C460546114606
S315080030C0204600F011FC48B969462846FFF7E2FE9B
S315080030D020B9019BC4F81852C4F81C3203B030BD9D
S315080030E038B500F5D87204460D46202300F5A471BC
S315080030F02C30FFF704FAD4F824321BB9D4E9873206
S315080031009A4203D3A07800B1E07838BD2946204614
S31508003110FFF7FAFEEFE7000000B5ADF50F7D4FF4B7
S315080031200A7204A9FFF7C8FF78B904238DF811308D
S31508003130074BCDE900000290694604A80393FFF700
S31508003140CFFF0DF50F7D5DF804FB0020F9E700BF02
S315080031504935000830B5ADF50F7D0D460446FEF736
S31508003160F2FF8368AB4203D300200DF50F7D30BD17
S315080031704FF40A72204604A9FFF79EFF0028F3D1F0
S3150800318002238DF81130054BCDE9000002906946FF
S3150800319004A80393FFF7A4FFE7E700BF4935000833
S315080031A000B5ADF50F7D4FF40A7204A9FFF784FF49
S315080031B078B901238DF81130074B0090CDE901301D
S315080031C00390694604A8FFF78BFF0DF50F7D5DF8A0
S315080031D004FB0020F9E700BF1B3500082DE9F04184
S315080031E09AB0502204460D4606A8002100F098FC25
S315080031F01422002101A800F093FC01A8FFF748FF5C
S31508003200049B012B11D8002320466A1E9D424FEAD3
S3150800321082024FF0FF0108BF1A4640F8043B00F04F
S315080032207FFC00201AB0BDE8F081AB4258D3FEF708
S31508003230F9FF059B0C2206A90646DF68FEF7B6FDD0
S315080032400028EFD1DFF8A480069B434515D1089ADC
S3150800325006A93046FEF7AAFD4FF0FF32089906A8E0
S31508003260FCF7F2FF204B984226D0FF212046AA0001
S3150800327000F056FC40F20550D4E737440C22384695
S3150800328006A9FEF793FD0028CCD1069B4345ECD151
S3150800329006A93846089AFEF789FD059B3046D9687F
S315080032A0FEF7B4FD0028BDD13046089A06A9FEF7F8
S315080032B08DFD0028CBD0B5E7089E09A9103EB608B3
S315080032C0AE4228BF2E46B7003A46204600F001FC1B
S315080032D0AA1B9200B54238BF0022FF21E0199EE7DB
S315080032E040F204509EE700BFE320BBDE39528FE16F
S315080032F02DE9F0439BB00C4644220021814609A8DB
S3150800330000F00EFC012350262D4A0021CDE90623A4
S3150800331001A81422089600F003FC01A8FFF7B8FEDE
S31508003320049BA34249D3012B0AD8D9F8003040F2AE
S3150800333004500133012B98BF00201BB0BDE8F08371
S31508003340FEF770FF102C28BF1024059B4FEA84084F
S31508003350DF68424649460744054609A800F0B9FB16
S31508003360C4F1100406AB08F10C001844FF21A200B2
S3150800337000F0D6FB4C214FF0FF3206A8FCF764FF9D
S31508003380C043059B1990D9683846FEF73FFD0028CB
S31508003390D3D13246384606A9FEF718FD0028CCD107
S315080033A0059B2846D968FEF731FD0028C5D1324667
S315080033B0284606A9FEF70AFDBFE740F20450BCE717
S315080033C039528FE130B597B014220021054601A87D
S315080033D000F0A6FB01A8FFF75BFE049C012C1ED992
S315080033E0214606A8FFF7FAFE18B140F2055398429F
S315080033F00ED1002306AA52F8041B481C0AD116AAA5
S3150800340002EB8303214643F8405C06A8FFF770FFEA
S3150800341017B030BDA94205D001339C42EBD140F22A
S315080034200250F5E740F20350F2E700004FF480320D
S3150800343008B5044B9A66FDF789F9B0FA80F0400999
S3150800344008BD00BF00900040072BF8B506460F469A
S3150800345014461D4601D90020F8BD01212020FDF79C
S3150800346005F901212120FDF701F98CB144EA06038B
S315080034709B07F0D14FF48032064B31469A662846B0
S3150800348023463A46FDF7C6F9B0FA80F04009E3E765
S315080034900120E1E700900040134610B562B10343EE
S315080034A09B070BD14FF48034054B9C66FDF776F9E4
S315080034B0B0FA80F0400910BD0120FCE70020FAE7C9
S315080034C0009000404FF098435A6CD202FCD5586DD4
S315080034D000F470207047C0F30C032DE9F04105464F
S315080034E00F4616460BB9FFF7A1FF05F5005424F45D
S315080034F0FF5424F01F0405EB0608A04507D83246FA
S3150800350039462846BDE8F0410223FFF79DBF20460D
S31508003510FFF78CFF04F50054EFE737B50446154668
S315080035200191FEF710FE0369A3420BD8426963199D
S315080035309A4207D32A462046019903B0BDE830408F
S31508003540FFF7C9BF03B030BD2DE9F0411546074660
S315080035508846FEF7F8FD0646FEF7FAFD0B4BC4193A
S3150800356062199A420FD83FB9FEF7F2FD7369834292
S3150800357002D93069FFF75AFF2A4641462046BDE878
S31508003580F041FFF7A8BFBDE8F08100BF00001808AA
S315080035907FB50346E8B1B0F1006F1AD36D460E4AFF
S315080035A002F110062C4610685168083203C4B2426C
S315080035B02546F7D15A1E0DF10F010F3311F80109EF
S315080035C012F8014F844204D19A42F7D1012004B07F
S315080035D070BD0020FBE700BFB43C0008036913F088
S315080035E0FE0F0CBF012000207047000040F2046364
S315080035F02DE9F041A0B0446B06460593FEF7A3FDFE
S3150800360007462046FFF7C4FF18B9002020B0BDE8DA
S31508003610F0812046FFF7E2FF0028F6D0FEF78AFD84
S3150800362000284ED14FF00063D3F834804046FFF7A8
S31508003630AFFF0028E9D03B69403B9845E5D8002311
S3150800364020460DF113018DF81330FCF758FD0028BC
S31508003650DBD02046FFF79CFF002839D06369012B91
S31508003660D3D12046FFF7BAFF0028CED0A5693B691B
S31508003670AB42CAD8AE42C8D81D4B9D42C5D806A88B
S31508003680FCF7B6FEAA1B314606A8FCF7C1FE06A83B
S31508003690FCF7C0FEFEF74CFD05F12002E8B19DF8E7
S315080036A01330BBB1A36B03F12401009104332946FF
S315080036B006A8FCF71DFE05900598B0FA80F04009AB
S315080036C0A4E70121206AFCF717FD0028AAD19CE788
S315080036D02546CCE7D8F83830E5E70392FEF7A8FD8B
S315080036E00290FEF7C3FDDDE902320090DFE700BF76
S315080036F000001808F8B5D0E9006706F160460446E8
S31508003700456BFEF720FDB6F5802F01D90020F8BDE0
S315080037100369BB42FAD81A4A9742F7D84033AB42F4
S3150800372001D8954205D9FCF78DFD80F00100C0B29D
S31508003730EDE7FCF787FD20B12046BDE8F840FFF726
S3150800374055BF2846FFF724FFB8B12846FFF746FFBE
S315080037500028DBD06B69002BD9D0022BECD1AB69E2
S31508003760C4F1040119444FF0FF322046FCF76CFD02
S31508003770044BC31A58425841C9E70120C7E700BF9E
S3150800378000001808E320BBDE70B54FF0FF3290B09A
S3150800379005460C46FCF758FD1C4B984233D14FF4AE
S315080037A080621B4B00219A6601A81C2200F0B8F91A
S315080037B0184B294668460093FDF7B9F8214668462E
S315080037C0FDF7B5F86846FDF7BBF8FFF77BFE06463A
S315080037D0C8B9FCF793FC40F2022000F016F91C2247
S315080037E0314609A800F09CF90B4B294608A808930E
S315080037F0FDF79DF808A82146FDF799F808A8FDF7F2
S315080038009FF8FFF75FFE002010B070BDE320BBDE17
S315080038100090004001000543010006434FF4806212
S31508003820134B10B59A664FF0FF338CB01C2200215B
S31508003830044605A8009300F073F90E4BCDF804D0A2
S315080038400493012302930C4B04A801A90393FDF7E3
S3150800385064F804A8FDF774F8FFF734FE30B9009B46
S31508003860A3422CBF002001200CB010BD0020FBE7AE
S315080038700090004000000843040000204FF48062D6
S3150800388030B50446154B91B09A6600211C2201A852
S3150800389000F046F9124B214668460093FDF747F8B3
S315080038A06846FDF74DF8FFF70DFE054698B940F254
S315080038B0022000F0AAF81C22294609A800F030F9CF
S315080038C0084B08A821460893FDF731F808A8FDF724
S315080038D037F8FFF7F7FD002011B030BD0090004023
S315080038E00000024300000343B1F50A7F10B5044601
S315080038F00FD34FF40A72002100F012F904F5D872BA
S3150800390004F5A47104F12C000023BDE81040FEF76D
S31508003910F6BD40F2052010BD13B5044600910146D8
S315080039202C30FEF72DFEC4F8240218B141F2070325
S31508003930984209D1A3784BB140F2032040F2022302
S31508003940E278002A08BF184602B010BD40F20120EE
S31508003950FAE72DE9F04387B00DF1080904460E464B
S3150800396017460021102248461D46DDF8388000F02B
S31508003970D7F800211C22C8F80010284600F0D0F815
S3150800398032463B462146CDF8009004F12C00FEF75E
S31508003990F7FD23789A0744BF6268C8F80020DB075A
S315080039A009D504F1080304F1240253F8041B9342D1
S315080039B045F8041BF9D1237840F20640002B18BFBE
S315080039C0002007B0BDE8F0834FF40A7070474FF047
S315080039D000534CF23C325A8070474FF000534AF677
S315080039E0C0325A8070474FF000534FF20F025A8088
S315080039F070474FF000534AF6C0305B8823F00F0338
S31508003A009BB21B1A5842584170474FF0005208B5EE
S31508003A101080FFF7EEFF10B94FF20F03538008BD71
S31508003A2008B5FFF7E6FF20B14FF00053588800F0BD
S31508003A300F0008BD08B5FFF7DCFF50B14FF0005284
S31508003A40538803F00F010F2914BF013323F00F0326
S31508003A50538008BD08B5FFF7D8FFBFF34F8F054958
S31508003A60054BCA6802F4E0621343CB60BFF34F8F7D
S31508003A7000BFFDE700ED00E00400FA0508B5FFF712
S31508003A80B8FF30B94FF000534FF20F015A888A42F7
S31508003A9003D14FF00053188808BD3AB91B8840F285
S31508003AA00220012B18BF4FF40070F5E74FF40070A1
S31508003AB0F2E70139024410B5904201D1002005E031
S31508003AC0037811F8014FA34201D0181B10BD01302D
S31508003AD0F2E70A44431E914200D1704710B511F827
S31508003AE0014B914203F8014FF9D110BD884210B538
S31508003AF001EB020402D98442234607D8431EA14299
S31508003B0008D011F8012B03F8012FF8E70244014603
S31508003B108A4200D110BD13F8014D02F8014DF7E7AE
S31508003B2002440346934200D1704703F8011BF9E7A4
S31508003B30F8B500BFF8BC08BC9E467047F8B500BF8C
S31508003B40F8BC08BC9E46704707B0CD5E0100000071
S31508003B5000000C01E03C00000060000800001808A6
S31508003B60F00001000301000807010008F536000807
S31508003B70E938000819390008703C0008533900086C
S31508003B80C93900080000000013B779FAC925DDB75E
S31508003B90ADF3CFE0F1B614B8010100000000000053
S31508003BA0DC3C00004000000000000C0100000000A2
S31508003BB000000000000000000000000000000000F7
S31508003BC000000000000000006A09E667BB67AE85D2
S31508003BD03C6EF372A54FF53A510E527F9B05688CE1
S31508003BE01F83D9AB5BE0CD19800000000000000000
S31508003BF000000000000000000000000000000000B7
S31508003C0000000000000000000000000000000000A6
S31508003C100000000000000000000000000000000096
S31508003C200000000000000000454652333200000044
S31508003C300102030028000000280000000020000000
S31508003C4000001800283C00080400000001000000DD
S31508003C500100000000E00E0800600800FD0707FDEF
S31508003C60291C0008591C0008FD1C0008F11C000846
S31508003C700001000091300008952E0008CD2E00089E
S31508003C80313000086D300008F1320008DD310008D7
S31508003C90C5330008B9300008432F0008A12F0008D3
S31508003CA09D1D0008AD1D0008CD1D00080D1E00084D
S31508003CB0071E0008B814B6F1E0CFF3ADB7DD25C985
S31108003CC0FA79B7130000000000000000AD
S31508003CCCF91A0008311B00086500000841000008B5
S705080000A151
