S0220000636869702D65667233322D6C69676874696E672D6578616D706C652E733337C3
S3150800600000000420056D0108016D01082D870508AB
S31508006010119A0008016D0108016D0108016D01085A
S31508006020016D0108016D0108016D010891A50108BE
S31508006030016D01083800002031A50108FB47010859
S31508006040016D0108016D0108016D0108016D010866
S31508006050016D0108016D0108016D0108016D010856
S31508006060016D0108016D0108016D0108016D010846
S31508006070016D0108016D0108016D0108016D010836
S31508006080016D0108016D0108016D0108016D010826
S31508006090016D0108517C0008016D0108016D0108B8
S315080060A0016D0108617D00083D7D0008016D01084C
S315080060B0016D01085DD7090899E0090851E009084A
S315080060C04DE0090825D9090895E0090855E00908A9
S315080060D06DE0090859E00908F1E00908D9E009085E
S315080060E0016D0108016D0108016D0108016D0108C6
S315080060F081720108016D0108016D0108016D010831
S31508006100016D0108016D0108016D0108016D0108A5
S31508006110016D0108016D0108016D0108016D010895
S31508006120016D0108016D0108016D0108016D010885
S31508006130016D0108016D0108016D0108016D010875
S31508006140016D0108D5730108016D010803A3000854
S315080061507DBF0908016D01081D9F0908239F0908CD
S31508006160016D0108016D0108016D0108016D010845
S3150800617010B5054C237833B9044B13B1044800E035
S3150800618000BF0123237010BD78080020000000001E
S31508006190146F0B0808B5034B1BB10349034800E00D
S315080061A000BF08BD000000007C080020146F0B0823
S315080061B0A3F5803A704700BF174B002B08BF134B57
S315080061C09D46FFF7F5FF00218B460F461348144AF4
S315080061D0121A9BF021FD0E4B002B00D098470D4B51
S315080061E0002B00D098470020002104000D000D4820
S315080061F0002802D00C4800E000BF9BF089FC200074
S31508006200290001F091F89BF0F9FA00BF0000080098
S3150800621000000000000000000000042078080020AC
S3150800622038010220000000000000000001F0DCBB7D
S31508006230006908B101F0ACBC704700230022C0E930
S3150800624002330023C0E90023006920B109B101F037
S3150800625099BC01F09ABC704730B40022002400258E
S315080062600161C0E9004530BC1146C0E90222FFF7CA
S31508006270E4BF000073B583680446FBB1C368EBB19D
S315080062800F4B684619680B68DB689847DDE90065B7
S31508006290206901F080FCD4E90232002808BF1346C1
S315080062A0D4E900125B1842F10002B34272EB05030F
S315080062B004D22046FFF7BCFFC4E9006502B070BDF2
S315080062C08C010020C0E90212FFF7D4BFC0E9021111
S315080062D0FFF7D0BF10B50446E8B10FF07DFD0F4AB1
S315080062E054F8043C1068034206D114F00BF90C4923
S315080062F00C489BF089FFFEE754F8082C32B114F0DD
S3150800630001F9094907489BF07FFFFEE723EA0004E5
S31508006310083C0FF013FE204610BD00BF9858002019
S31508006320582F0A08872F0A08A02F0A08014B186851
S31508006330704700BF9C580020014B1868704700BF83
S31508006340A0580020F8B504460FF046FD184B1B6808
S3150800635043B300254FF0FF372E46164A11685A6890
S315080063601B68954238BF1546974228BF174699427B
S3150800637006F10106F3D10FF0E1FDC4E90157E66025
S3150800638013F0DCFF0C4B1B6823600C4B1B68636126
S315080063900B4B1B68A3610B4B1B682361BDE8F840D8
S315080063A013F0DABF4FF0FF371D461E46E3E700BF7E
S315080063B0AC580020940800209C580020A4580020BF
S315080063C0A8580020A058002010B5144B04461B6896
S315080063D088B013B901A8FFF7B5FF104B1A461B681A
S315080063E0A342FBD3506811188C4201BF616814465A
S315080063F00918516061686018834208D10848006826
S31508006400834204D05B680B44636013681B6894423C
S31508006410236018BF146008B010BD00BFAC58002038
S3150800642094080020F8B504460FF0D6FC3C493D4DCB
S315080064300B68CBB900203C4B3C4A5E071CBF0733B0
S3150800644023F0070313605060394A22F00702C2E9B5
S315080064500000D01AC3E90020364B0A601860364B94
S3150800646018604FF000432B602B681C4206D00FF0D3
S3150800647065FD00266FF01EFB3046F8BD631E0A3325
S31508006480F5D8600704F1080305D023F0070208329F
S315080064909A42ECD91346284F3A689A42E7D3234AD8
S315080064A014686068984201D22068A0B90968A142B8
S315080064B0DDD021681668116062680836D21A102A7B
S315080064C010D9E018410709D014F01CF81B491C48DC
S315080064D09BF09AFEFEE722460446E2E742606360C6
S315080064E0FFF772FF134962683B6808689B1A834284
S315080064F038BF0B603B602B68134363600023114A67
S3150800650023601368013313600FF018FD7307B3D0C7
S3150800651013F0F8FF0C490A489BF076FEFEE700BF29
S31508006520940800209858002098080020AC580020AD
S3150800653090580020A05800209C580020C02F0A0818
S31508006540872F0A08A4580020FB2F0A0813B501FB59
S3150800655000F219B1B2FBF1F181420CD11046019259
S31508006560FFF760FF044618B10021019A9BF054FB1F
S31508006570204602B010BD0024FAE7000010B5044614
S3150800658070B3184A50F8043C1268134206D113F047
S31508006590B9FF154915489BF037FEFEE750F8081C69
S315080065A031B113F0AFFF124910489BF02DFEFEE7FC
S315080065B023EA020340F8043C0FF00EFC0D4A54F897
S315080065C0043C1168A4F108000B441360FFF7FCFEB5
S315080065D0094A136801331360BDE810400FF0AEBCDA
S315080065E010BD00BF98580020582F0A08872F0A08A0
S315080065F0A02F0A089C580020A8580020F8B506467F
S315080066000C46FFF767FE0746C8B19CB1A0421CD0EE
S3150800661021460120FFF79AFF054648B1A7423A46A8
S31508006620314628BF22469BF0D0FA3046FFF7A6FF30
S315080066302846F8BD3046FFF7A1FF2546F8E721466C
S31508006640BDE8F8400120FFF781BF3546F0E7FFF7C0
S31508006650E9BEFFF793BF0846FFF7E4BE0846FFF713
S315080066608DBF08461146FFF7C9BF08B503F066FE99
S315080066700DF08EFA51F0D0FE27F01EF826F0EAF853
S31508006680BDE8084026F0E0BAFF22014B1A707047B1
S315080066900400002010B50C4658B9094851F0C8FE48
S315080066A001210848FFF7C9FD14B90122064BDA7023
S315080066B010BD0128F8D1054851F0BAFE0021F0E7CF
S315080066C039300A08B86A0020D06A00204A300A0819
S315080066D010B50488022C06D102798168084800F0B2
S315080066E047FC40B110BD002CFCD1054800F0CFFB9B
S315080066F021460246F2E70348BDE8104051F098BE2D
S31508006700D46A00205C300A0807B50B4800F0BFFBC6
S3150800671001901EF09DFE01210023019A1EF010FF34
S31508006720014628B1054803B05DF804EB51F080BE78
S3150800673003B05DF804FB00BFD46A002085300A0860
S31508006740037A417A6BB911B9094A022106E001298F
S3150800675001D1084AF9E7022908D1074A1D2032F073
S31508006760F9BD012B02D109B9044AEEE7704700BF0B
S315080067709D300A08E8300A0820310A0892310A08CA
S3150800678070B5037D1F4D0B2B04462B7007D1837DF7
S3150800679002211D201C4A32F0DDFDA37D2B702E78C8
S315080067A0FE2E0FD0FF2E1DD0022E24D834F066FA06
S315080067B0036841F288315D692346144AAC46BDE850
S315080067C07040604734F05AFA036822469B690F49BD
S315080067D0984734F053FA03684FF47A715D690B4AA7
S315080067E02346EBE734F04AFA036822469B690749D1
S315080067F098472E7070BD0221BDE870401D20044ADE
S3150800680032F0A8BD04000020FE310A088966000897
S3150800681050320A0810B568B9084851F009FE084C04
S31508006820E37833B100220749074852F013F90023E9
S31508006830E37010BD0128F2D10448EEE765320A0874
S31508006840D06A002009670008803E01206E320A08D7
S3150800685002211D20014A32F07DBD00BF78320A08A8
S3150800686002211D20014A32F075BD00BF87320A0891
S315080068701FB50023102100930A20114B114A0EF070
S315080068802FFC114B186030B9104851F0D1FD40F279
S31508006890017000F043FD0E4B4FF4806202930D4BDE
S315080068A00D49019301230D48009300230FF008FAC0
S315080068B0002840F2027018BF002005B05DF804FBFE
S315080068C0345A0020925900208859002097320A0825
S315080068D0D0580020985A0020BA320A083D6C0008A1
S315080068E01FB50390264852F087F85AF013F956F068
S315080068F0DBFA234852F08EF8224A039B00920121C4
S315080069000022214810F022F8204B186030B92048A0
S3150800691051F08EFD40F2047000F000FD1D491E483E
S3150800692051F086FD1D4800F077FA044628B11C4848
S3150800693051F07EFD204600F0F1FC1A4A1A49174824
S3150800694000F0A2FAFFF772FC18491948FFF784FC11
S3150800695018491948FFF780FC104800F098FA0146D4
S315080069601548FFF76AFC50F0D5FF0368D3F89C304A
S3150800697098474FF002005CF0DBF8204604B010BDE3
S31508006980803E0120056C0008BE320A088C5900209A
S31508006990C4320A08DE320A08E7320A08D46A002036
S315080069A004330A081568000895660008D8390A08E5
S315080069B0B8580020F0390A08B86A0020002313B531
S315080069C00446094800931A46032100680FF0EEFFB3
S315080069D030B9064851F02CFD40F2067000F09EFCD6
S315080069E00023A37002B010BD8C5900201D330A087D
S315080069F073B5114E044630680D4610F03BF928B1C0
S31508006A000E4851F015FD2046FFF7D8FF64232A46A5
S31508006A1000930421002330680FF0C8FF012806D030
S31508006A20074851F005FD40F2057000F077FC012398
S31508006A30A37002B070BD00BF8C59002035330A0818
S31508006A4050330A0810B50388012B2ED1174CA378AA
S31508006A505BB36378012B1FD140F6B831144851F067
S31508006A60E7FC204640F6B831FFF7C2FF02230021B3
S31508006A7010486370FFF7E1FB00210F48FFF7DDFBC5
S31508006A804FF4FA710B48FFF721FCBDE810404FF4AC
S31508006A90FA710948FFF71ABC022B06D100230748EA
S31508006AA06370BDE810405DF0ABB810BDD06A002039
S31508006AB069330A08B8580020B86A0020808E012079
S31508006AC038B505791D4C012DA37809D13BB96378F2
S31508006AD02BB940F6B8312046FFF78AFF657038BDF6
S31508006AE0002BFCD06578012D18D12046FFF766FFEC
S31508006AF000231348637052F0AFFD044648B929468F
S31508006B00104852F0B1FA2146BDE838400D4852F017
S31508006B10B1BA0D48BDE8384051F08ABC022DDED125
S31508006B200A4800F0B4F901460948FFF786FB2046F3
S31508006B30FFF744FF002307486370EBE7D06A00209D
S31508006B40805D0120785D0120A8330A08D46A0020F8
S31508006B50B86A0020E7330A081FB5134C0191236869
S31508006B60F3B113F093FC01990346A0B10023206802
S31508006B7003AA03930EF054FC039B2BB14FF0E023BA
S31508006B804FF08052C3F8042D60B9084804B0BDE838
S31508006B90104051F04DBC012220680EF055FBF3E77A
S31508006BA00348F3E704B010BD8859002007340A08E3
S31508006BB034340A0830B515460C4685B089B110221A
S31508006BC0002168469BF028F8094B8DF804509C4232
S31508006BD009D1012D07D1074B694607480393FFF7EB
S31508006BE0BBFF05B030BD054B9C42FAD1044BF3E719
S31508006BF0C0390A08D1660008D06A0020A8390A08F0
S31508006C00C16A00081FB50123ADF80030044B019096
S31508006C10694604480393FFF79FFF05B05DF804FB38
S31508006C20456A0008D06A0020CB68084603B11847B1
S31508006C30014851F0FDBB00BF5C340A08F0B53E4878
S31508006C4085B0FFF74DFE044628B13C4851F0F0FBED
S31508006C50204600F063FB3A4851F0EAFB394E364FBE
S31508006C60394C0A22694630680EF09CFC012805D189
S31508006C7069463846FFF7D8FF0022F3E7334851F054
S31508006C80C0FEA0B1324852F0E7FC324B18703048CB
S31508006C9052F096FC304B1870304852F0F7F900382D
S31508006CA018BF01202E4B1870284851F0B3FE7B7888
S31508006CB0022B30D02B4BDB7D23B1FA22204611461E
S31508006CC0FFF700FB284D2B78FF2B18D023B932226B
S31508006CD020461146FFF7F6FA2B78012B05D14FF41B
S31508006CE07A7220461146FFF7EDFA2B78022B06D169
S31508006CF04FF42F724FF496712046FFF7E3FA154BBF
S31508006D001B787BB1144B1B7863B1322240F2B63143
S31508006D102046FFF7D7FA2046FFF7ACFA1348FFF7E5
S31508006D20A9FA9EE70E4B1B7813B164221146EFE7CA
S31508006D3040F2B6323221EBE7D06A00208C340A08DA
S31508006D40A2340A0888590020B8580020803E01203D
S31508006D50805D0120845A002090590020785D01202A
S31508006D6091590020986A002004000020B86A002083
S31508006D707FB5124B002401930223114D114E009347
S31508006D800121114B2846CDE90244104A1CF0CCFCDF
S31508006D9028460F4D32460F4999F0E5FC2346012156
S31508006DA028460D4A00941EF02DFE324628460B4909
S31508006DB004B0BDE8704099F0D6BC00BF81670008F2
S31508006DC0986A0020000000205168000861680008E1
S31508006DD0885A00205D37020841670008215A0208D0
S31508006DE01FB50FF061FF0123017D084AADF8003099
S31508006DF0074B0190002908BF1346064869460393C6
S31508006E00FFF7AAFE05B05DF804FB00BF256F000872
S31508006E10B96F0008D06A00201FB5164B04460093C8
S31508006E2000220346012114480FF090FD134B186009
S31508006E3030B9134851F0FCFA40F2047004B010BDA2
S31508006E40104851F0D9FD1EF003FB01210DF10F0288
S31508006E501EF012FB0B4851F0DDFD9DF80F300020A7
S31508006E60002B14BF032301232075A3702073206110
S31508006E70E4E700BFE16D0008B3340A08EC6A0020B5
S31508006E80BC340A08803E0120C0E9011270478078A8
S31508006E90C31E584258417047002307B50A48009355
S31508006EA01A46032100680FF081FD48B9074851F0DA
S31508006EB0BFFA40F2067003B05DF804EB00F02EBA94
S31508006EC003B05DF804FB00BFEC6A0020DC340A0856
S31508006ED073B5114E054630680C460FF0CBFE28B147
S31508006EE00E4851F0A5FA2846FFF7D6FF6423224636
S31508006EF000930421002330680FF058FD012809D0BB
S31508006F00074851F095FA40F2057002B0BDE87040A6
S31508006F1000F004BA02B070BDEC6A002035330A08E6
S31508006F20F6340A0838B54468A378BBB90125A570B4
S31508006F30A3680BB128469847237BABB1A5B94FF494
S31508006F407A71236920465943FFF7C2FF0123237547
S31508006F5021690648BDE8384051F06ABA022B03D1C8
S31508006F6003230025A370E3E738BD00BF17350A08D9
S31508006F70F8B583780446012B0F46154602D1CAB1E7
S31508006F800020F8BD032BFBD1012AF9D10026237D69
S31508006F9023B11EB920462675FFF77EFF0A21204633
S31508006FA0FFF796FF6368A67013B1394628469847D7
S31508006FB00120E6E70226EAE738B54468237D5BB197
S31508006FC000250648257551F033FA29462046BDE8BE
S31508006FD038400122FFF7CCBF38BD00BF4E350A083E
S31508006FE02DE9FF411F46D0E90154ABB2009316467E
S31508006FF002211D20254A2B0CDDF8288032F0AAF93B
S31508007000062D0CD1D4B998F800200221B2FA82F2E2
S315080070101F48520904B0BDE8F041FFF7A9BF082D83
S315080070200FD1039798F800301A4ACDE90163A3B245
S315080070300093230C02211D2032F08CF904B0BDE820
S31508007040F081B5F5407F09D1039798F80030124AC8
S31508007050CDE90163A3B20093230CEBE7072D09D111
S31508007060039798F800300D4ACDE90163A3B200935F
S31508007070230CDFE7032DE1D1039798F80030084A7F
S31508007080CDE90163A3B20093230CD3E770350A0850
S31508007090D46A00208E350A08D4350A081A360A0832
S315080070A06D360A08704770477047704710B5044632
S315080070B0202199F05DFB204610BD10B50446082135
S315080070C099F056FB204610BD0D4A08B50260D0F867
S315080070D0D4210AB19AF07CFBD0F84821002AF9D1CC
S315080070E0D0F80421002AF5D1D0F89820002AF1D149
S315080070F0426D002AEED10369002BEBD108BD00BF13
S31508007100FCD50A08406808B151F02AB9032070472F
S3150800711013B5406810B9032002B010BD00248DF8DD
S31508007120074022B90BB12F20F6E70DF1070251F0FF
S31508007130E9F8F1E730B540681C4685B010B9032078
S3150800714005B030BD00251B888DF80B5022B90BB150
S315080071502F20F5E70DF10B020395019503AD009578
S3150800716051F0B2F8192801D00028E9D1039BB3F5EC
S31508007170803F28BF00232380E2E710B50446FFF7C7
S31508007180A3FF20464FF40A7199F0F2FA204610BD83
S31508007190254B37B51425036000230446234AC360EC
S315080071A0C0E9012300F12C0100F128020223009511
S315080071B0103031F0FFFF04F16C0204F17001022374
S315080071C0009504F1540031F0F5FF282304F1B002CC
S315080071D0009304F1B401022304F1980031F0EAFFA8
S315080071E004F58E7204F590710223009504F58270F9
S315080071F031F0E0FF382304F5B072009304F5B2715C
S31508007200022304F5A47031F0D5FF1C2304F5F672A9
S31508007210009304F5F871022304F5EA7031F0CAFF09
S31508007220204603B030BD00BFFCD50A0803000200A3
S31508007230F8B50446284DD5E88F3FD9070BD428461C
S3150800724099F098FA38B1284699F0A0FA234A2449C1
S31508007250244899F088FA244DD5E88F3FDA070ED4EA
S31508007260284699F087FA50B12048FFF791FF28463B
S3150800727099F08CFA194A1E491C4899F074FA1D4D62
S31508007280D5E88F3FDB070ED4284699F073FA50B13C
S31508007290194E1A4B2846336099F078FA30460F4A49
S315080072A0174999F060FA0F4D104F164B2946384684
S315080072B025616B6057F04EFD384656F0ECFE0646E3
S315080072C038B90D4B2846A76163615D6036F0C6FF85
S315080072D0E0613046F8BD00BF286D002000000020A0
S315080072E0A970000808000020FC6A0020006B002036
S315080072F0C9700008F06A0020F46A002040DD0A0818
S31508007300AB700008733E0120014608B5024851F0EB
S315080073108FF813F0F7F8FEE7AE360A0808B5FFF758
S31508007320F3FF50F061BE000038B5FFF79EF94449F7
S31508007330444808F03BFE444851F07AF8434851F077
S3150800734077F8414851F074F8414851F071F8002136
S31508007350404D084631F0BCFE2B7873B9284651F0EB
S315080073604BFC041E0CBF012300232B7005D03A48A2
S3150800737051F05EF82046FFF7C7FF3849384851F004
S315080073807FFE384851F054F8374852F069FF0446F2
S3150800739008B13648ECE70121334852F023FA04468F
S315080073A008B13348E4E7334851F026FB324CD4E8B9
S315080073B08F3FDB070BD4204699F0DCF938B120461D
S315080073C099F0E4F92D4A2E492E4899F0CCF92D4822
S315080073D0FFF72EFF2B492C485CF0EEF9254851F0B3
S315080073E019FB2A4851F024F8224851F0B7FB044605
S315080073F008B12748BCE7274851F01AF8264852F042
S3150800740065F8044608B12548B2E71A4851F0F4FA77
S3150800741000F068F9174851F0FDFA214851F008F8CC
S315080074202048FFF725FA044608B11F48A0E71F4879
S3150800743050F0FEFF02F08FFF31F060FE1C4897E720
S315080074402591030821910308DE360A0811370A0830
S3150800745036370A08783E012046370A086B370A0885
S31508007460785D012078370A08805D012096370A087A
S31508007470C0370A08803E01202C6D0020000000203D
S31508007480A770000810000020808E0120EF370A0838
S3150800749014380A083E380A08CC6B012057380A08FF
S315080074A081380A08D06A002093380A08AE380A08D4
S315080074B0CA380A0807B5019000F0AEFA02460199E3
S315080074C0024803B05DF804EBFFF774BBD06A0020EE
S315080074D010B50446082199F04BF9204610BD70B541
S315080074E00446D1E9042352EA03000DD064258868CE
S315080074F0CE68A0FB050105FB061199F0D9FF01230B
S3150800750060702370204670BD002323706370F9E70E
S31508007510D0E90201704770477047704704387047D2
S315080075207047704710B50446102199F021F9204696
S3150800753010BDA0F10400F5E710B5044B044603603E
S31508007540006B08B150F07AFA204610BDD4C90A0873
S3150800755010B5044601210C20054A31F0FBFEE0680F
S3150800756020B1BDE8104003689B68184710BD00BFEE
S3150800757018390A08A0F10400EAE700BF38B50B4C31
S31508007580D4E88F3FDB070ED4204699F0F3F850B1C4
S31508007590074D084B20462B6099F0F8F82846064A0E
S315080075A0064999F0E0F8024838BD00BF306D002062
S315080075B0346D002094AF0A080000002017750008F3
S315080075C010B50A4B0446036060334360836D1BB1F4
S315080075D00022383002629847A36A23B1002204F1D8
S315080075E00800A2629847204610BD00BFC48E0A084C
S315080075F0A0F10400E4E700BF10B50446006808B12E
S3150800760033F0F0FC204610BD10B50446034B40F895
S31508007610343BFFF7F1FF204610BD00BFB08A0A08C9
S31508007620F7B5C7680D4614461E463FB901210C201A
S315080076300F4A31F08FFE002003B0F0BD186833F012
S3150800764051FC33682146384601AA019320F0F6F921
S3150800765001A8FFF7D1FFA38823B9E38813B92378D4
S31508007660402BE8D02B8943F080032B81E3E700BF4A
S315080076702B390A08A0F10400D2E700BF7FB5866857
S315080076800C4616B9032004B070BD0023ADF80830C7
S315080076900B890D7B23B94B89022B17D1142D02D0E8
S315080076A00123ADF80830606833F01CFC63682A468D
S315080076B0039302AB0093A16803AB304631F0EDFFAC
S315080076C0044603A8FFF798FF2046DCE7002BE7D11E
S315080076D0402DE4E710B50446042199F049F8204600
S315080076E010BD0000F7B5104F104E384620F080FC4C
S315080076F00F49104D01F50053D3F8D43D0E4A0F4CEF
S31508007700536038463346009520F00EFE0C4B224651
S3150800771039463046336122F0E7F80A4B256263633F
S315080077206C6003B0F0BD00BF506E0020B87000203A
S31508007730808E0120386D002030000020186E002051
S31508007740805101005E390A0810B50446FFF738FF74
S3150800775020464FF41A7199F00BF8204610BDA0F197
S315080077600400F1E710B50446082199F001F820460F
S3150800777010BD10B504461C2198F0FAFF204610BD2E
S3150800778010B50446FFF740FF2046E02198F0F0FFC9
S31508007790204610BD10B50446FFF7CEFE2046382118
S315080077A098F0E6FF204610BDF8B53F483F4B002449
S315080077B003606033436000F10803C0E902333C4BC1
S315080077C0C0E90A40036300F13803C0E90E33394BB8
S315080077D0C0E916400366384BC0E91A44C0F8803041
S315080077E01C33C0F884300523C0E91E44C0E92C4484
S315080077F0C0E92E44C0E97044046780F8744080F8F4
S31508007800C841C0F8CC4180F8D04180F8E84180F8FA
S3150800781000422A4A80F818422949C0F84C3280F8B2
S315080078203042C0F8484280F8504298F09CFF234AFC
S315080078302449254898F097FF2448254B254AC0E94E
S31508007840003445F26043C0E904234FF48063224DB7
S315080078501A4A2249C0E90244038398F084FF28465D
S31508007860002600271E4B6C6040F8103B2C725CF01B
S31508007870B5FC2846114A1B49C5E93444C5E93644CE
S3150800788098F071FF1848194BC0E90267C0E9046708
S31508007890C0E90644C0E90C440360084A1449BDE837
S315080078A0F84098F060BF00BF506E0020C48E0A08EA
S315080078B0599302086581020870390A0800000020F9
S315080078C0C17500082175000830000020B870002036
S315080078D0C0910A0880510100386D00202375000800
S315080078E0B08A0A0809760008186E0020D4C90A0862
S315080078F03975000808B5002304221946012001F04D
S3150800790019FD002008BD08B501213A2000F0AEFC9B
S31508007910BDE8084000F004B801213A2000F0A6BCF2
S31508007920FFF7E8BF08B50321802001F0F1F803212D
S315080079304FF4806001F0ECF809214FF4C06001F0C3
S31508007940E7F809214FF4F06001F0E2F809213E203A
S3150800795001F0DEF809212D2001F0DAF8092151207D
S3150800796001F0D6F8002008BD08B501F0ABFFFFF717
S31508007970D3FF0FF09FFA01F0C3FF0FF0C1FA0FF023
S31508007980FBFAFFF7CFFF0FF0A9FAFFF7BCFFBDE838
S3150800799008400CF03FBF0CF067BF08B500F0A8F927
S315080079A000F014F8BDE8084000F01EB808B502F06B
S315080079B015FABDE8084001F0A5BF08B501F064FF57
S315080079C0BDE8084001F066BF7047000008B50448E6
S315080079D000F01CF8BDE80840024800F017B800BFE0
S315080079E0A8390A08C0390A0808B5044800F0C7F8D3
S315080079F0BDE80840024800F0C2B800BFD8390A08F6
S31508007A00F0390A0803680B600160704743680BB1D8
S31508007A10006818472220704743690BB10068184769
S31508007A20FF207047144B70B41D78144B00211E4676
S31508007A30CAB2954201D870BC704753F8042B146833
S31508007A406279824215D12278022A12D0302322790D
S31508007A505A4303F18043143203F57033D358C340B5
S31508007A60DB4303F00103237056F8210070BCFFF7CF
S31508007A7021BD0131DCE700BFA4390A0888000020CF
S31508007A8013B5044601213A2000F0F0FB0023012239
S31508007A906179207901F04EFC30222379534302F1B3
S31508007AA0804202F5703214339B586279D340DB4327
S31508007AB003F001032370A379022B0DD100F018F906
S31508007AC00749607900F02CF901236279CDE9003382
S31508007AD01146207901F0D6FB002002B010BD00BF88
S31508007AE0257A0008007870470378022B26D03022C2
S31508007AF00379534302F1804202F5703214339B58DE
S31508007B004279D340827903F00103012A12D14188D0
S31508007B1043EA41034FF6E07163F03F039BB28B42A1
S31508007B2002D10270438070474FF6DF729342F9D153
S31508007B300022F6E712B983F0010303707047027852
S31508007B40022A03D100224280FFF79ABF704713B575
S31508007B5003780446022B10D08379022B0BD100211F
S31508007B60407900F0DDF800236279CDE9003311464B
S31508007B70207901F087FB0223237002B010BDD0E9FB
S31508007B8000031847836800681847C36800681847E1
S31508007B9003690068184743690068184710B5044622
S31508007BA001213A2000F062FBA3782078B3FA83F328
S31508007BB0042261785B0901F0BDFB002010BD0000BE
S31508007BC010B5012243780178847830209A40054B15
S31508007BD000FB01331CB903F501531A6010BD03F508
S31508007BE08253FAE700C0034010B5012243780178B2
S31508007BF0847830209A40054B00FB01331CB903F505
S31508007C0082531A6010BD03F50153FAE700C003401A
S31508007C100122437801789A4030235943014B5A5040
S31508007C20704700BF40F00340302102460378407891
S31508007C304B4301F18041103301F570315B58C34065
S31508007C4003F0010093780BB980F00100704700003B
S31508007C502DE9F843174B1F6D5B6D1F4000D5FEE7F6
S31508007C6001260025144CDFF85480DFF8549037427B
S31508007C7017D0C8F8506023689BB1A168284601311F
S31508007C806268A1609847637B012B0AD148B909EB62
S31508007C9045131A7B60F341021A731A7F60F3410297
S31508007CA01A770135082D4FEA460604F11004DED18D
S31508007CB0BDE8F88300000440D4700020002004408A
S31508007CC05471002070B504460125084E04B970BDEC
S31508007CD094FAA4F0B0FA80F005FA00F324EA030453
S31508007CE056F82030002BF1D09847EFE75472002061
S31508007CF008B5192001F076F928B14FF00072074B44
S31508007D00C3F880211A601A2001F06CF928B14FF0E7
S31508007D108062024BC3F880211A6008BD00E100E0CA
S31508007D2038B504460D4601F056F9034B43F824507E
S31508007D30BDE8384001F053B954720020074BD3F818
S31508007D402404D3F8202403F50053104000F05530DE
S31508007D5020F05020C3F82004FFF7B4BF00C003404A
S31508007D60074BD3F82404D3F8202403F50053104016
S31508007D7000F0AA3020F0A020C3F82004FFF7A2BF25
S31508007D8000C00340024B1968024B186897F020BFE1
S31508007D909C000020980000207047000037B592002C
S31508007DA004460D4601929BF0CFF8431C0BD060B9F0
S31508007DB029462046019A99F0F8FE0028044808BF8B
S31508007DC0002003B030BD0348FBE70348F9E700BFCE
S31508007DD010E000F021E000F024E000F013B50446BE
S31508007DE001A801F0BBFB9DF80630012223804FF461
S31508007DF0807300206380054B9B680A3303F01F03DA
S31508007E0002FA03F3636002B010BD00BF0080E00F02
S31508007E1001F0E0BA08B501F0CDFA002008BD10B5AA
S31508007E20044644EA010313F00303084609D19342C2
S31508007E3001D1002010BD54F8231040F82310013357
S31508007E40F5E72146920099F0C0FEF2E710B5044620
S31508007E509BF072F8431C15D0B0B90C4B20469B68B2
S31508007E600A3303F01F020123934023F0030323443C
S31508007E70984201D1002010BD50F8042B0132F7D0EA
S31508007E800348F8E70348F6E70348F4E70080E00FFD
S31508007E900EE000F021E000F024E000F008B501F063
S31508007EA093F8014B186008BD48760020014B186806
S31508007EB001F08EB84876002070474FF04023D3F87B
S31508007EC08420D206FBD4D3F88400C0F3811070470F
S31508007ED038B5124B0546D3F820310C4603F0070394
S31508007EE0013B032B17D8DFE803F0020A120E0EF047
S31508007EF041FF052305B1286004B1237038BD0EF093
S31508007F006FFF0323F6E70EF087FF0723F2E70EF06D
S31508007F107FFF0223EEE700231846EBE700800040C8
S31508007F2038B5124B0546D3F828310C4603F007033B
S31508007F30013B032B17D8DFE803F0020E120A0EF0F6
S31508007F4019FF052305B1286004B1237038BD0EF06A
S31508007F5063FF0723F6E70EF043FF0323F2E70EF06D
S31508007F6057FF0223EEE700231846EBE700800040A0
S31508007F7073B50D460021124A0191D2F88041064692
S31508007F8004F00304022C13D0032C0CD0012C14D1BA
S31508007F9001A8FFF79DFF10230EB1019A326005B1C3
S31508007FA02B7002B070BD0EF037FF07230190F3E780
S31508007FB00EF02EFF23460190EEE70B46ECE700BFD6
S31508007FC000800040002337B50193154B0546D3F8CA
S31508007FD020320C4603F00703013B032B1ED8DFE8CB
S31508007FE003F0020E1318002101A8FFF799FF1223C8
S31508007FF00DB1019A2A6004B1237003B030BD0EF0AA
S315080080000BFF07230190F3E70EF048FF0A230190C0
S31508008010EEE70EF049FF09230190E9E70023E7E7B9
S315080080200080004038B5104B0546D3F840310C4661
S3150800803003F00303022B0BD0032B0DD0012B0FD11A
S315080080400EF02CFF0A2305B1286004B1237038BD51
S315080080500EF02AFF0923F6E70EF023FF0C23F2E7BA
S3150800806000231846EFE700BF00800040002337B51D
S315080080700193164B0546D3F860320C4603F0070306
S31508008080013B032B1FD8DFE803F0020E1914002169
S3150800809001A8FFF71DFF10230DB1019A2A6004B14C
S315080080A0237003B030BD002101A8FFF7BBFF1123E1
S315080080B0F2E70EF0B1FE07230190EDE70EF0A8FEF9
S315080080C002230190E8E70023E6E700BF00800040AE
S315080080D0002337B50193164B0546D3F894320C4660
S315080080E003F00703013B032B1FD8DFE803F0020E5A
S315080080F01914002101A8FFF7EBFE10230DB1019A10
S315080081002A6004B1237003B030BD002101A8FFF72F
S3150800811089FF1123F2E70EF07FFE07230190EDE7B2
S315080081200EF076FE02230190E8E70023E6E700BF9B
S315080081300080004038B5134B0546D3F800320C468C
S3150800814003F00703013B032B18D8DFE803F0020A04
S315080081500E120EF0A3FE0A2305B1286004B123709F
S3150800816038BD0EF0A1FE0923F6E70EF09AFE0C23A1
S31508008170F2E70EF01FFE0F23800AEDE700231846EC
S31508008180EAE700BF0080004038B5134B0546D3F830
S3150800819008320C4603F00703013B032B18D8DFE827
S315080081A003F0020A0E120EF079FE0A2305B12860C2
S315080081B004B1237038BD0EF077FE0923F6E70EF0FA
S315080081C070FE0C23F2E70EF0F5FD0F23800AEDE7AB
S315080081D000231846EAE700BF0080004038B5104B78
S315080081E00546D3F840320C4603F00303022B0BD0A6
S315080081F0032B0DD0012B0FD10EF050FE0A2305B12B
S31508008200286004B1237038BD0EF04EFE0923F6E748
S315080082100EF047FE0C23F2E700231846EFE700BFEF
S315080082200080004038B5104B0546D3F860310C463F
S3150800823003F00303022B0BD0032B0DD0012B0FD118
S315080082400EF02CFE0A2305B1286004B1237038BD50
S315080082500EF02AFE0923F6E70EF023FE0C23F2E7BA
S3150800826000231846EFE700BF00800040430905D009
S31508008270012B0DD0022B094B18BF002300F01F005D
S3150800828041B103F58053012202FA00F018607047E5
S31508008290034BF3E703F50053F5E700BF688000409A
S315080082A064800040B0F5207F1FD009D8B0F5007F64
S315080082B015D003D868B1B0F5C07F0AD000200CE00D
S315080082C0B0F5607FFAD10B4BD3F88000C0F30110EC
S315080082D003E0084B186FC0F3033001307047054BB5
S315080082E0D3F89000C0F30460F7E7024B186FC0F3A9
S315080082F08020F2E7008000401FB50022802804464F
S31508008300029200F098802AD8002800F09880A0F100
S315080083102004A3B23D2B35D83D2C33D8DFE804F032
S315080083208F9B8F9BB4B4B4B4B49BBE3CD5623C9BC4
S315080083309B9B32323232323232329B9B9B6ADF9BB4
S3150800834032323232323232323232323232B48F8FC3
S315080083508FDA3C3CE4794DB9323232323286B0F5A6
S31508008360B06F00F09B802DD8B0F5207F73D00CD865
S31508008370B0F5C07F63D0B0F5007F63D0B0F5807FDD
S3150800838000F09180029804B010BDB0F5607F68D007
S315080083900DD8B0F5407FF5D10EF00CFD02464FF42E
S315080083A02070FFF77FFFB2FBF0F0400845E0B0F51C
S315080083B0806F69D0B0F5A06FE4D1002102A8FFF75D
S315080083C001FEDFE7B0F5106F00F0848017D8B0F52E
S315080083D0E06F00F084800AD8B0F5C06F75D0B0F5AC
S315080083E0D06FCFD1002102A8FFF7A4FECAE7B0F5E7
S315080083F0F06FC7D1002102A8FFF714FFC2E7B0F556
S31508008400406F46D00FD8B0F5206F6DD0B0F5286F05
S31508008410B8D10021374B0391D3F8703203F0030328
S31508008420012B49D14DE0B0F5486FABD1002102A828
S31508008430FFF74EFEA6E70EF0A3FC0290A2E70EF0A9
S31508008440B9FCFAE70EF09CFC02462046FFF72AFF25
S31508008450B2FBF0F0F1E70EF0ADFC02464FF42070E7
S31508008460F4E7244BD3F8803003F00303012B04D040
S31508008470022B06D04FF46070E8E70EF081FC024646
S31508008480F8E70EF0C9FCFAE7002102A8FFF720FD7D
S3150800849078E7002102A8FFF743FD73E7002102A849
S315080084A0FFF766FD6EE74FF0E02303921B695B0753
S315080084B005D50EF07FFC0390039B029362E70DF14E
S315080084C0070103A8FFF7AEFDF6E7002102A8FFF7AC
S315080084D0A9FD57E7002102A8FFF756FE52E700213B
S315080084E002A8FFF77BFE4DE7002102A8FFF7BEFDB5
S315080084F048E700BF0080004008B58020FFF7FCFE73
S31508008500034B98429EBF4FF48032024B1A6708BD50
S31508008510005A620200A000404FF4803238B50E4B74
S3150800852005469A660020FFF7BDFE0C4B6843DC69DA
S315080085300B4D144041F67132DA635A68A84222F4A8
S31508008540401203D9012918BF42F480125A600CB1AF
S315080085500022DA6338BD00BF0090004000000340E7
S31508008560005A620208B50EF037FCBDE80840002143
S31508008570FFF7D2BF002307B5B0F5807F8DF802302C
S3150800858000F0CD8066D85D2857D84C2808D82D2805
S3150800859048D823282CD89DF8020003B05DF804FBC0
S315080085A04D381028F7D801A353F820F01387000890
S315080085B0978500089785000897850008BF860008F4
S315080085C09785000897850008BF870008DF8600089A
S315080085D07B860008B38700089785000897850008FA
S315080085E0978500089785000897850008CB870008B7
S315080085F024380928CFD801A353F820F01387000898
S3150800860013870008138700081387000813870008D4
S315080086109785000807870008978500089B86000845
S31508008620538700083D2800F08E803E28B3D10020ED
S315080086300DF10201FFF7D2FDADE78028ABD1684BFB
S315080086401B6F03F00703013B032BA4D8DFE803F0F5
S315080086505955949CB0F5F06F75D024D8B0F5B06F25
S3150800866051D010D8B0F5607F00F0928093D3B0F562
S31508008670806F4ED0B0F5A06F8DD100200DF10201AC
S31508008680FFF7A0FC87E7B0F5D06F62D0B0F5E06FD2
S31508008690CDD0B0F5C06F7FF47EAF00200DF102019A
S315080086A0FFF7C0FC77E7B0F5206F00F088800CD89C
S315080086B0B0F5086F53D0B0F5106F7FF46CAF00209B
S315080086C00DF10201FFF760FD65E7B0F5406F70D068
S315080086D0B0F5486F79D0B0F5286F7FF45CAF00210C
S315080086E03F4B0191D3F8703203F00303012B72D08C
S315080086F0022B14BF0B46152300E005238DF8023024
S3150800870049E70223FAE700200DF10201FFF730FCE2
S3150800871041E700200DF10201FFF7DAFB3BE7019381
S315080087204FF0E0231B695B0707D50EF043FB0D23CB
S315080087308DF803309DF80330E0E70DF1030101A839
S31508008740FFF770FCF6E700200DF10201FFF76AFD5E
S3150800875021E700200DF10201FFF7ECFC1BE7204B97
S31508008760D3F8003103F00303022B07D0032B09D0FB
S31508008770012B0BD10EF034FB0323BFE70EF094FB5D
S315080087800923BBE70EF042FB0823B7E70123B5E749
S31508008790134AD2F8802002F00302012A05D0022AE1
S315080087A0ACD10EF039FB0723A8E70EF0E9FA0E2341
S315080087B0A4E700200DF10201FFF7B2FBEBE600206B
S315080087C00DF10201FFF752FCE5E600200DF102016A
S315080087D0FFF77EFCDFE601A8FFF724FC11238DE7EF
S315080087E00080004008B5FFF7C5FE092812D00A38F0
S315080087F0C0B2012811D84FF48002094B4FF6FF701A
S315080088005A6603F5D8335B6A13F0010F18BF4FF4A5
S31508008810FA7008BD034B1888FBE74FF6FF70F8E7B8
S3150800882000900040BE00002070B504468020FFF787
S31508008830A1FE03287BD04FF48012444B44495A6664
S3150800884045F60E034FF08072C1F88030414B9A62AC
S315080088504FF4803203F580539A628A6D12F480329F
S31508008860FBD1637820781B0543EA0063A0793A4D6B
S315080088700343E07843EA0043207943EA003360790A
S3150800888043EA80130B618B69E07A03F000430343E4
S31508008890E07943EA8063207A43EA0063607A43EA30
S315080088A00043A07A43EA00238B61637B096A002BA5
S315080088B018BF0822207B21F00F010B4343EA8003EF
S315080088C023491A430A62627BA67BA37C002A2FD11E
S315080088D08A6ADB002A4043EA46131343E27B43EAEB
S315080088E0021343F480338B621C4B8A6D33EA02020F
S315080088F0FBD14FF08072174882620B69A57823F482
S31508008900700343EA05530B614FF000438361237CF0
S315080089100BB9134B9A62637C1BB94FF48032104B28
S315080089209A62E37C1BB10A4B0E4AC3F8802070BDDD
S31508008930227C886A120642EA46122840024342EA24
S31508008940C303627C43EA02438B62EAE70090004075
S315080089500040004A0050004AC7FFFEFE030001001F
S315080089600060004AF1A7FFFF014B93F9000070472A
S31508008970BC0000204FF400011B4A437810B551662D
S315080089804FF4D151022402F5B832516217494F2BE0
S315080089904C604FF0010428BF4F2301F580514C600D
S315080089A01169C903FCD4017843EA01235361C378EA
S315080089B081781B0143EA012341790B43017943EA94
S315080089C041039360C37981791B0143EA4113417AD4
S315080089D00B43017A43EA41035360837A13B16FF478
S315080089E0D153536210BD00BF0090004000100240F2
S315080089F0014B1880704700BFBE0000200029CCBF7D
S31508008A0001210021FFF788BDB0F5207F10B50C467F
S31508008A1057D008D8B0F5007F48D003D830B3B0F5A2
S31508008A20C07F23D010BDB0F5607FFBD129492A4805
S31508008A30D1F8FC2012F080721EBFD1F8FC3023F06A
S31508008A408073C1F8FC30D0F88030611E23F0300402
S31508008A5044EA0114C0F88040002AE3D01D4AD2F83F
S31508008A60FC3043F08073C2F8FC30DBE7FFF77AFD91
S31508008A7000F036F84FF48031184B174A1967136F10
S31508008A80611E23F4704444EA013414670EF092F927
S31508008A900446FFF712FAC0F102012046FFF7AEFFBF
S31508008AA000F024F8BDE81040FFF726BD0A4A013950
S31508008AB0D2F8903023F0F85444EA0164C2F89040A2
S31508008AC0B0E7054B013C196F21F4806141EA842423
S31508008AD01C67A7E700ED00E000800040009000401A
S31508008AE002214FF42070FFF78FBF000008B54FF43E
S31508008AF0C070FFF701FCBDE80840044988428CBFF6
S31508008B00022101214FF42070FFF77EBF80F0FA02A0
S31508008B10B0F5807FF8B50C4600F054816CD85D2816
S31508008B205ED84C2804D82D2844D8232828D8F8BD40
S31508008B304D381028FBD801A353F820F0A38D000860
S31508008B402F8B00082F8B00082F8B0008998C0008A4
S31508008B502F8B00082F8B0008638F0008D38C000822
S31508008B60258C0008418F00082F8B00082F8B0008E2
S31508008B702F8B00082F8B00082F8B0008858F000885
S31508008B8024380928D3D801A353F820F0A38D000868
S31508008B90A38D0008A38D0008A38D0008A38D0008E7
S31508008BA02F8B0008818D00082F8B00085D8C00082C
S31508008BB0758E00083D2800F04C813E28B7D1093C47
S31508008BC0E4B2032C8CBF0021B34BB44A98BF195D9D
S31508008BD0D2F8403223F003030B43C2F84032A6E72B
S31508008BE08028A4D18B1E062B00F2C780DFE803F08D
S31508008BF0C2B0C581C5C5BF00B0F5F06F00F02981C8
S31508008C003DD8B0F5B06F00F0BB801CD8B0F5607FDA
S31508008C1000F06F818BD3B0F5806F00F0C280B0F59D
S31508008C20A06F84D1073CE4B20B2C8CBF00219C4B6F
S31508008C309A4A98BF195DD2F8203223F007030B43EE
S31508008C40C2F8203273E7B0F5D06F00F01381B0F5A3
S31508008C50E06FB4D0B0F5C06F7FF469AF093CE4B2F9
S31508008C60032C8CBF00218F4B8C4A98BF195DD2F814
S31508008C70403123F003030B43C2F8403157E7B0F500
S31508008C80206F00F06E8118D8B0F5086F00F02081CB
S31508008C90B0F5106F7FF44BAF093CE4B2062C8CBFDD
S31508008CA00021814B7D4A98BF195DD2F8083223F01E
S31508008CB007030B43C2F8083239E7B0F5406F00F0F6
S31508008CC03F81B0F5486F00F05D81B0F5286F7FF4FD
S31508008CD02EAF112C00F06781152C14BF002102213C
S31508008CE06E4AD2F8703223F003030B43C2F870328F
S31508008CF01DE7002502264FF480370121022000F0E7
S31508008D0089F9FFF72FFCFFF7EBFE684B634A1F67ED
S31508008D10136F23F00703334313670EF04BF8064629
S31508008D20FFF7CBF8C0F102013046FFF767FE0121D5
S31508008D30002000F0AFF9FFF7D9FEFFF7DDFB002DA5
S31508008D407FF4F5AE032C7FF4F2AE594B9F62EEE644
S31508008D504FF48012554B03265A664FF48032554B12
S31508008D609D6A03F58053C5F300659A62C3E700253B
S31508008D700426C0E700250126BDE700252E46BAE7EA
S31508008D80023CE4B20E2C8CBF00214B4B434A98BFE1
S31508008D90195DD2F8803123F003030B43C2F8803102
S31508008DA0C5E6023CE4B2052C8CBF0021434B3B4A86
S31508008DB098BF195DD2F8203123F007030B43C2F898
S31508008DC02031B4E6A1F10904082C3FF6B0AE01A3A0
S31508008DD053F824F0F98D0008F98D00082F8B000848
S31508008DE0F98D0008278E00082F8B00082F8B0008A6
S31508008DF02F8B0008F98D00084FF48032274B304935
S31508008E00586E03F580535A664B6A43F001034B626A
S31508008E10C1035CBF2B4B5A664FF0E022136923F05F
S31508008E200403136183E64FF480321C4B2449586EC1
S31508008E3003F580535A664B6A23F001034B62C3035A
S31508008E405CBF204B5A664FF0E022136943F00403D7
S31508008E50E7E7093CE4B2032C8CBF00211A4B0F4A02
S31508008E6098BF195DD2F8603123F003030B43C2F8AB
S31508008E7060315CE6093CE4B2062C8CBF0021134B3A
S31508008E80064A98BF195DD2F8003223F007030B4350
S31508008E90C2F800324BE600BF413A0A08008000409B
S31508008EA05C3A0A08413A0A08453A0A08009000401E
S31508008EB00060004A0040004A2C3A0A083B3A0A0871
S31508008EC000C0074000A00040413A0A08453A0A088F
S31508008ED0CC1EE4B2062C8CBF0021344B344A98BF12
S31508008EE0195DD2F8003123F003030B43C2F80031B1
S31508008EF01DE63049063CD1F8FC20E4B212F0807237
S31508008F001EBFD1F8FC3023F08073C1F8FC30082C62
S31508008F108CBF0020284B264998BF185DD1F88030B1
S31508008F2023F003030343C1F88030002A3FF4FFAD62
S31508008F30204AD2F8FC3043F08073C2F8FC30F6E5DC
S31508008F40023CE4B2052C8CBF00211C4B184A98BF82
S31508008F50195DD2F8283123F007030B43C2F82831EC
S31508008F60E5E5023CE4B20F2C8CBF0021144B104AF5
S31508008F7098BF195DD2F8603223F007030B43C2F895
S31508008F806032D4E5023CE4B20F2C8CBF00210D4BB5
S31508008F90074A98BF195DD2F8943223F007030B43AA
S31508008FA0C2F89432C3E501219AE600BF4C3A0A0892
S31508008FB00080004000ED00E0533A0A083B3A0A08F0
S31508008FC0683A0A08683A0A08EFF3108072B67047DA
S31508008FD000B962B67047EFF3108072B67047FFF7B4
S31508008FE0F7BF0000054B420953F8223000F01F0076
S31508008FF023FA00F0C04300F00100704700E100E0EA
S31508009000024A536B0342FCD1704700BF0040094037
S3150800901070477047F8B504464FF04023D3F88420CC
S31508009020D106FBD4D3F88430C3F381139C422DD0E8
S315080090300DF0A6FE012C064602D12146FFF7DEFCFE
S31508009040FFF7C2FF4FF00072114B07465A662046DB
S31508009050FFF7DEFF4FF480634FF04025621E934012
S315080090602B676B6E9A0103D4D5F884309B060AD514
S315080090703846FFF7ADFF022C08D13046BDE8F84068
S315080090800021FFF7BBBCD5F88430EAE7F8BD00BF7E
S315080090900060004007B518B901910DF071FE0199FD
S315080090A0064B1B7843B1064B984205D8012003B0FE
S315080090B05DF804EBFFF7AEBF0220F8E7FC76002068
S315080090C0005A62024FF04022D36E017923F0300332
S315080090D00B43D366704700004FF00042144B10B59F
S315080090E05A664AF6CD3313494C6C0B6404F00104F6
S315080090F078B90120FFF784FF4B68DB0704D50E4BD0
S3150800910058600B6BD807FCD514B10A4B0B4A1A6486
S3150800911010BD0B6B1A07FCD42022074B9A6201225A
S31508009120A3F580535A60034A936A9B06FCD5EBE77E
S315080091300090004000400940006009403254FFFF9B
S315080091404FF0004238B5174B01465A664AF6CD33FA
S315080091504FF04022144C656C236443780B205B0067
S3150800916043F00103D363FFF74BFF63688A7823F460
S31508009170F87343EA02136360CA784B7943EA022319
S31508009180A3600A798B7943EA022323610878FFF7FB
S31508009190A3FFEB0748BF054B4FF0010048BF236408
S315080091A038BD00BF00900040004009403254FFFF20
S315080091B04FF0004270B5114B04465D6E03F58053BF
S315080091C05A664AF6CD330E4980204E6C0B64FFF77B
S315080091D017FF0B6A23F00F030F2C94BF234343F0AA
S315080091E00F030B62F30744BF064B0B64002DA2BFA7
S315080091F04FF00042044B5A6670BD00BF0080004025
S31508009200004009403254FFFF00A000404FF00042E2
S3150800921070B50F4B04465D6E03F580535A664AF6E1
S31508009220CD330C4980204E6C0B64FFF7E9FE0B6AC0
S3150800923023F4F85343EA04230B62F30744BF064BAF
S315080092400B64002DA2BF4FF00042044B5A6670BD56
S3150800925000800040004009403254FFFF00A0004053
S3150800926070B5054614460E46FFF7AEFE296881EA34
S31508009270040202EA06044C402C60BDE87040FFF781
S31508009280A7BE0000072AF7B501F0030614461F46D5
S315080092904FF003012CD89500A94000FA05F21C48A6
S315080092A00191FFF7DDFF01991A4806FA05F2FFF763
S315080092B0D7FF194B19499DF82000002F08BF1946FA
S315080092C0012303FA04F40C60154B1649002808BF5D
S315080092D00B461C60144B1031C3F820449DF824003B
S315080092E0A3F6DC33002808BF0B461C6003B0F0BDAC
S315080092F0A2F10805AD00A94000FA05F20B48019154
S31508009300FFF7AEFF01990A4806FA05F2CFE700BF54
S3150800931000C4034008C4034010E4034010D40340CB
S3150800932014D4034014E4034000E0034004C403409B
S315080093300CC40340F0B54AB1012530261C4C8D40BB
S3150800934006FB00440BB304F58254256030244443DD
S31508009350072904F1804404F5703419D80F27656B82
S315080093608E00B74025EA070502FA06F63543656317
S3150800937052B90122302402FA01F10D4A04FB0022F7
S315080093809BB102F582521160F0BD04F50154DCE789
S315080093900F27A1F10805E66BAD00AF4026EA0706E0
S315080093A002FA05F53543E563E2E702F50152EAE715
S315080093B000C003404FF48032054B9A6641F671327D
S315080093C003F51C33DA63012203F50053DA607047AC
S315080093D00090004041F671320121064BDA6303F52D
S315080093E00052D1600022DA634FF48032A3F51833B5
S315080093F09A66704700000340013831289ABF024B2D
S31508009400185C0020704700BF783A0A08122801D075
S31508009410142804D1022904D0032908BF01210846CB
S3150800942070470021FBE70000021E30B54FF0000030
S315080094300CBF1025042547F60774084952B9831D41
S3150800944051F82330234023B101308542F6D14FF03D
S31508009450FF3030BD00F11603F2E700BF008003407D
S3150800946010B5C2F30623044602F0070241B942EAE0
S3150800947003220B4B42F44022063443F8242010BD45
S3150800948018461146FFF7C2FF01461846FFF7B4FF14
S31508009490034B41EA0020163443F82400EFE700BFE7
S315080094A0008003400A4392B20021FFF7D9BF3AB1C0
S315080094B022F0030202F1804202F5603209B9106017
S315080094C070470002FBE700004FF40032014B1A67B1
S315080094D0704700BF005000404FF04023D3F8940077
S315080094E07047436813B9416070475B685A68012A38
S315080094F0FBD159607047836813B9816070475B6810
S315080095005A68012AFBD159607047C369032B9FBF6C
S3150800951000EB83020133D160C3617047C36910B59C
S31508009520042B15D84FF09842116CC902FCD50433A8
S315080095309B00136503684FF09844136043681360F3
S3150800954083681360002300F10C02C1698B4200D3C3
S3150800955010BD52F8041B01332160F6E74FF4803240
S31508009560064B5A6603F5E6239B69C3F38512827098
S3150800957003F03F021B0B42700370704700900040D7
S3150800958040F6B732064B5B689BB293429FBF4FF4D7
S315080095907A72B3FBF2F3034AD05C88BF00207047A7
S315080095A00080E00FAA3A0A08054B9A689107FCD48E
S315080095B05A689207F9D4DA69002AF6D1704700BFCB
S315080095C000800A4008B5FFF7EFFF0122024B03F5BA
S315080095D080514A601A6108BD00800A40074B5A68E4
S315080095E0012A0AD15A68D20702D5DA69002AF9D1BE
S315080095F002221A610122024B5A60704700800A4013
S3150800960000A00A4010B5064CFFF7CEFF6368012B91
S3150800961003D1FFF7E3FFFFF7C7FF0378E36010BD49
S3150800962000800A40E8B94A680B7812B1127843EA12
S31508009630C2034A78002A14BF0222002213438A680A
S3150800964012B1127843EA82138A78002A14BF0422D8
S3150800965000221343CA6812B1127843EA4223014A28
S315080096609364704700800A4008B9014B59647047F3
S3150800967000900A4008B9014B5964704700A00A4097
S3150800968008B9014B1964704700A00A4010B9024B8B
S31508009690186C70470020704700800A4048B911B11D
S315080096A0012903D07047044BD86C7047024B186DDC
S315080096B070470020704700BF00800A4040B911B1CA
S315080096C0012903D07047034BDA647047014B1A65CA
S315080096D0704700BF00800A4038B50446054D8CF037
S315080096E0C7F80FCC0FC594E8030085E803000020EF
S315080096F038BD00BF0077002047F6FF739A42F0B5E1
S315080097005ED002295ED8304ECF0016F8313006EB0F
S31508009710C100012B85780DD1C3785B1B23B1416845
S3150800972031F91310914202DCE818C0B2F0BD013BD2
S315080097301BB2F3E740680028F8D0B0F9003093422E
S3150800974004DBB0F902309342B8BF134682883E4420
S31508009750FF2A19BFC8242821B0F90640B0F9081015
S31508009760A4EB03040CBF0122002294FBF1F47678E3
S31508009770224414B2721EA242A8BF22464FF47A7738
S3150800978000EBC204E188A468013213FB014112B25E
S3150800979021EAE17101F5FA71B242B1FBF7F104DA97
S315080097A000EBC204A4888C42EAD200EBC20232F86B
S315080097B0040C884228BF0846A84238BF2846B4E7A2
S315080097C0FF20B3E70020B1E7007700200229F0B5B3
S315080097D054D82B4800EBC10310F831105C680129F6
S315080097E00FD19878D978914294BFC0EB0103C0EBAA
S315080097F00203091ADBB28B42C8BF002334F91300EF
S31508009800F0BD002C3AD09978914202D3B4F90200FF
S31508009810F6E7D978B4F900009142F1D9A1885B78C6
S31508009820FF294FF0000114BF03F1FF33023BDBB2FF
S31508009830251D04F10C071FFA82FCCEB2B34216D8D6
S3150800984005EBC1014FF47A756A43B1F902304968EC
S31508009850521A03EBD37102EB610292FBF3F29042C8
S31508009860CEDBB4F902009042CADC10B2C8E737F87A
S3150800987031E04E1CE645E3D33146DEE70148BFE753
S31508009880007700200080FFFF0148FFF725BF00BFD3
S31508009890DC1F0B087FB50222084B0949CDE90123D5
S315080098A04FF04073CDE90313052301A94FF0FF30AC
S315080098B005938CF027FA07B05DF804FB006A1800D8
S315080098C0000304006FF00402502110B50A480B4C3F
S315080098D012F0800FD3B21BBF03F00F03043BA3188B
S315080098E01B1802F101020CBF83F8001319764C2AE3
S315080098F0EED1002010BD00BF00ED00E000E100E061
S315080099000DF054BB38B500F069FA0446E0B900F02A
S3150800991047FB4FF4167343430C4803F5742303F2CD
S315080099203F23B3FBF0F30A4A0A4913600A220D687B
S315080099300948013A12F0FF0240F8043BF9D103EB5B
S31508009940C3022B4413440B60204638BD40420F0027
S3150800995054770020207700202477002070470000E5
S31508009960012208B5034B1A7000F0F3FA024B18608F
S3150800997008BD00BF1C77002050770020F8B5144CAE
S31508009980237823B300F0E5FA124B134D1B68134EE8
S31508009990C01A012838BF0120114B124F18602B78C6
S315080099A056F8232046F82300111A3A680E48521A28
S315080099B00A213A600932B2FBF1F20133DBB20260E6
S315080099C0B3FBF1F201FB12332B7000232370F8BDB1
S315080099D01C770020507700204C7700202477002041
S315080099E0187700202077002054770020BFF34F8F88
S315080099F00549064BCA6802F4E0621343CB60BFF31D
S31508009A004F8F00BFFDE700BF00ED00E00400FA0538
S31508009A1008B5FFF7EBFF08BD034B1B78002B14BFF7
S31508009A2001200220704700BF647700200329F8B59B
S31508009A3098BF124B05460E468CBF00245C5C032873
S31508009A4005D8DFE800F002080B0E44F002040C4BC0
S31508009A501F684FB9F8BD44F00804F8E744F020043D
S31508009A60F5E744F08004F2E77B681A68144203D0ED
S31508009A70314628465B6898473F68EAE7AD3A0A08E0
S31508009A806077002000292DE9F34114BF0121FF2149
S31508009A90254A00F1FF30135C0B4413543AD0234E89
S31508009AA03278012A36D9FFF7B7FF0128044634D899
S31508009AB01F4FFFF789FA3B781BB31E4D2B781BB94E
S31508009AC001222A701C4A1370DFF8708098F800305B
S31508009AD033B1019000F082F80023019888F800302D
S31508009AE0FFF776FA012000F09DF8FFF76DFA2B785C
S31508009AF02BB1019000F0A0F8002301982B700023E9
S31508009B003B70FFF765FA3078A04203D02146FFF78D
S31508009B108DFF347002B0BDE8F081032AF3D1022824
S31508009B20F1D100F0ADF8EEE7647700205877002011
S31508009B305D770020597700205C7700205A7700204F
S31508009B4010B50446FFF740FA002C14BF0121FF2187
S31508009B50064A13780B44DBB21370B3FA83F3044A4C
S31508009B605B091370BDE81040FFF732BA677700202B
S31508009B706677002038B541600446FFF725FA0546A2
S31508009B8021460448FDF73EFF2846BDE83840FFF762
S31508009B901FBA00BF6077002038B50B4D2B788BB104
S31508009BA00A4C237873B100F047F8094B012118785D
S31508009BB0FFF73CFF00220123064922700A70064A75
S31508009BC02B70137038BD00BF587700205C770020D3
S31508009BD0687700205D7700205B77002038B50D4B4D
S31508009BE01B7873B10C4C23788BB90C4B0C4D9A6DC2
S31508009BF012F4803F06D0DB6D9B0703D54FF4803304
S31508009C00AB6238BDFFF7ACFE4FF48033AB6200237E
S31508009C102370F6E771770020707700200040004A2D
S31508009C200050004A034B1B780BB10DF0DDB901203B
S31508009C30704700BF7177002008B5FFF7EAF9094AAF
S31508009C400949136F096823F007030B431367074B8A
S31508009C501B781BB14FF48032054B9A62BDE8084069
S31508009C600DF0A8B8008000406C77002071770020BE
S31508009C700060004A0122014B1A7070477177002074
S31508009C807047000030B50F4C41612368ABB92060BE
S31508009C90836011E0891A41619A681D462AB1134604
S31508009CA05A698A42F6D955B11A461346A86083609E
S31508009CB013B15A69511A596130BD0025F0E7206081
S31508009CC0F5E700BF8877002038B500F0ABFA094BF6
S31508009CD0094A196839B113684C69C51AAC4204D3E4
S31508009CE023441B1A4B61106003E00023001B10601D
S31508009CF04B6138BD887700207477002038B50F4B44
S31508009D000F4D1C682B6802205B691C4400F096FA0C
S31508009D10204600F09DFA00230A492A680B70D0886D
S31508009D20800702D501230B7038BD9268002AFBD044
S31508009D3050690344012BF2D9F6E700BF7477002077
S31508009D40887700207C77002070B59DF81450164659
S31508009D5005710025049A8560BDF818500446C5802B
S31508009D60C0E903360D46026029B941610BB11146B7
S31508009D70984796B13546FFF72EF90646FFF7A4FF32
S31508009D8029462046FFF77EFF054B1B68A34201D1F3
S31508009D90FFF7B4FF3046FFF722F9002070BD00BF79
S31508009DA08877002000220C490B687BB183420AD1D0
S31508009DB083687AB1936083681BB15A6941690A441A
S31508009DC05A61002070471A469B68EEE70028EFD0D4
S31508009DD0022070470B60EEE78877002070B5FFF722
S31508009DE0FAF8144E05463478FCB9134B1C60134B2D
S31508009DF01C60134B1C8000F0E3F9012000F01EFAEA
S31508009E0000F099FA0F4B0246186020B92846FFF76A
S31508009E10E6F8232070BD234640F2E7310A4897F05A
S31508009E2047FB0A4B1860012333702846FFF7D7F81B
S31508009E300020EFE7727700208877002074770020EB
S31508009E407E7700208477002018FCFFFF78770020B3
S31508009E502DE9F0410546F8B1FFF7BDF80F4F064664
S31508009E60FFF732FF2846D7F80080FFF79BFF044626
S31508009E7028B13046FFF7B3F82046BDE8F081A8457B
S31508009E803B6803D123B1FFF739FFF2E7002BF0D186
S31508009E90022000F00FFAECE72224EDE7887700208D
S31508009EA070B586B015461E460446059180B1FFF783
S31508009EB0CFFFBDF82C30002202939DF828302046AB
S31508009EC0CDE9006305992B46FFF73EFF06B070BD46
S31508009ED02220FBE738B50C46054698B191B1002318
S31508009EE00B70FFF778F80121074B1B680BB1227836
S31508009EF01AB1FFF774F8002038BDAB4214BF9B684F
S31508009F002170F3E72220F7E788770020F0B51F468F
S31508009F10002387B00D46164604468DF81730A0B1C3
S31508009F200DF11701FFF7D6FF9DF817207AB9BDF88E
S31508009F303430294602939DF830302046CDE9007327
S31508009F403346FFF701FF07B0F0BD2220FBE70320E9
S31508009F50F9E738B5FFF73FF8054600F063F9044618
S31508009F602846FFF73CF8204638BD000070B5FFF7D5
S31508009F7032F8064600F056F9084B04461D880120BB
S31508009F80ADB200F0ADF918B100F04CF90446013550
S31508009F903046FFF724F82046294670BD7E77002014
S31508009FA0014B1868704700BF8477002010B50A4B2C
S31508009FB00C461B6883420CD3084B4FF47A72196817
S31508009FC00023A0FB010197F073FA013020600020FE
S31508009FD010BD2120FCE700BF787700208477002099
S31508009FE010B50F4B1A689AB14FF47A71531E134283
S31508009FF0A0FB01010ED1B2FA82F2C2F11F04531C72
S3150800A000D243E04001FA03F3184321FA02F202436D
S3150800A010104610BD002397F04BFA0246F8E700BF3A
S3150800A02084770020164B70B58342164B15468B4134
S3150800A03024D3154B1A680AB34FF47A76A0FB0603A5
S3150800A040541E144006FB013111D1B2FA82F3C3F152
S3150800A0501F025E1CDB4301FA06F6D04021FA03F321
S3150800A06030431843D140C5E90001204670BD00239E
S3150800A07097F01EFA0024C5E90001F6E72124F4E763
S3150800A080EFA7C64B3789410084770020C2072DE920
S3150800A090F84F04460BD5414A138801339BB2138007
S3150800A0A0FFF712FE3E4B1B680BB1FFF727FEA3070F
S3150800A0B071D500F0B7F8DFF8F0904FF00008D9F83E
S3150800A0C000700646C71BFEF786FFC346054642468E
S3150800A0D0334B1C6814B16369BB4219D90021314B53
S3150800A0E0B8F1010F197005D122B1D288022A08BF2A
S3150800A0F083F80080002C4AD06369C9F80060DB1B2E
S3150800A1006361FFF7FBFD2846BDE8F84FFEF767BF1A
S3150800A11023463A46C9F800605969914209D8187920
S3150800A12094F804C0521A844588BF1C469B68002BC5
S3150800A130F2D12846FEF753FF6569C4F814B0FEF756
S3150800A1404AFF82462046FFF72DFE5046FEF747FF98
S3150800A15023694BB1FEF73FFF824621692046FFF788
S3150800A16091FD5046FEF73BFFE36813B12046216890
S3150800A170984700F057F835447F1B82460744FEF798
S3150800A1802AFF56460546224608F10108A0E702209E
S3150800A19000F090F8B7E7BDE8F88F00BF7E7700209B
S3150800A1A0887700208077002074770020034B5A6850
S3150800A1B0D20702D5DA69002AF9D1704700800A4029
S3150800A1C010B50121002486B03E20ADF80810CDE96F
S3150800A1D003448DF804408DF80A400594FEF746F8C6
S3150800A1E001A8FFF70FFA204602A98DF80840FFF7E5
S3150800A1F019FA20460F21FFF73DFA0F212046FFF7EF
S3150800A2003FFAFFF7DFF9FFF7D1FF0822034B9C61FE
S3150800A210034BC3F888219A6006B010BD00800A4037
S3150800A22000E100E008B5FFF7C1FF014B986908BDDA
S3150800A23000800A4000210846FFF730BA00F0010105
S3150800A240830748BF41F002010020FFF70DBA00005E
S3150800A25070B5FFF7ABFF154B04469D69FFF7EAFF9C
S3150800A26006460020FFF712FA830704D4731B032B54
S3150800A27001D8AE420FD10021631B022B98BFEC1CFC
S3150800A2800846B4F1FF3F2CBF2246621EFFF716FAB6
S3150800A2900220FFF7D3FF064A137833B103498B6CC4
S3150800A2A043F001038B640023137070BD00800A40DD
S3150800A2B0C0000020830700F0010109D50122064BE2
S3150800A2C041F002011A70054A936C23F00103936466
S3150800A2D00020FFF7CFB900BFC000002000800A4069
S3150800A2E010B504460020FFF7D1F9012C04D0022C42
S3150800A2F005D1C0F3400010BD00F00100FBE70020C7
S3150800A300F9E738B5FEF767FE04460020FFF7BEF901
S3150800A310830700F0010548BF45F0020500F0030178
S3150800A3200020FFF7ADF92846FFF7B0FE2046BDE846
S3150800A3303840FEF754BE3E20FDF7DEBF08B5FDF7F0
S3150800A34013FBFDF72AFBFDF731FBFDF736FBBDE8EE
S3150800A3500840FDF739BBFDF71EBB70B50368CD1A7B
S3150800A360002D0DDD93F900601C78002E0BDB5C1CBC
S3150800A37004601B7813600368C91A13688B4236D9C0
S3150800A3806FF05F0070BD04F07F04013C032C2BD8EE
S3150800A390DFE804F0020A1421012DF1D05B7813607E
S3150800A3A0036802330360E6E7022DE9DDB3F80130FE
S3150800A3B05BBA9BB2136003680333F3E7032DDFDD53
S3150800A3C09C785D782402DB7844EA054423431360CD
S3150800A3D003680433E6E7042DD2DDD3F801301BBA4F
S3150800A3E0136003680533DDE76FF06300CAE70020F2
S3150800A3F0C8E770B404680E1B002E07DD26789E4257
S3150800A40008D10134046070BCFFF7A7BF6FF05F0086
S3150800A41070BC70476FF06100FAE737B51D46134602
S3150800A42001AA0446FFF7E5FF18B9019B1BB96FF0AF
S3150800A430630003B030BD236893F90030002BF6DBC8
S3150800A440019B3BB122681178A9B1042BEFD801D141
S3150800A4500B06ECD400232B60019B5A1E0192002B9D
S3150800A460E7D023682A681B7843EA02232B6023680F
S3150800A47001332360F0E70132013B22600193DFE7F5
S3150800A48013460222FFF7C9BF37B50223154601AAAC
S3150800A4900446FFF7AEFF40B9019A2846216800F046
S3150800A4A0AFFD2368019A1344236003B030BD38B565
S3150800A4B003230446FFF79DFF18B9136813B96FF015
S3150800A4C0670038BD013B136023681A78002AF6D165
S3150800A4D001332360F5E72DE9F34190461F4601AAAB
S3150800A4E0302305460E46FFF784FF0446F0B92B686D
S3150800A4F0F61A002E37DD42461B78019942F8043BCE
S3150800A5002E6806230E4431462846FFF772FF044696
S3150800A51060B92B68D8F80420C8F808309918B142F1
S3150800A520296007D10C21384605F04AFD204602B0BD
S3150800A530BDE8F0819B5C3A4642F8043B2B683146FD
S3150800A540013328462B60FFF708FF04460028EDD1A3
S3150800A5502B687A68BB601344B3420CBF04466FF09D
S3150800A56065042B60E2E76FF05F04DFE71FB50023A1
S3150800A570CDE90133039301ABFFF7ADFF40B9019B6A
S3150800A580052B00D03BB9029B002B18BF6FF0670064
S3150800A59005B05DF804FB6FF06700F9E710B50446EF
S3150800A5A058B1806805F0FCFC606905F0F9FC2046A6
S3150800A5B0BDE81040202105F003BD10BD38B505469D
S3150800A5C02C6804B938BDA36920462B60FFF7E6FF5F
S3150800A5D0204605F0E5FCF3E703687F2AA3EB0101B3
S3150800A5E007D8002969DD591E0160012003F8012CEE
S3150800A5F07047FF2A0DD801295FDD591E016003F84F
S3150800A600012C03685A1E02608122022003F8012CDD
S3150800A6107047B2F5803F13D202294EDD591E0160FC
S3150800A62003F8012C0368120A591E016003F8012C6D
S3150800A63003685A1E02608222032003F8012C704721
S3150800A640B2F1807F19D2032937DD591E016003F85C
S3150800A650012C0368591E0160110A03F8011C0368DE
S3150800A660120C591E016003F8012C03685A1E026079
S3150800A6708322042003F8012C704704291DDD591E86
S3150800A680016003F8012C0368591E0160110A03F8DA
S3150800A690011C0368591E0160110C03F8011C0368AC
S3150800A6A0120E591E016003F8012C03685A1E026037
S3150800A6B08422052003F8012C70476FF06B00704761
S3150800A6C00368591A0029C1BF03F1FF31016001204F
S3150800A6D003F8012CD8BF6FF06B0070472DE9F041E5
S3150800A6E0984605460E4600232968881B002806DC7E
S3150800A6F06FF06B042046BDE8F0813B46F4E7481E40
S3150800A700286001F8012C1212002A03F10107F4DC73
S3150800A710296891F90020002A08DA8A1B002AE7DD51
S3150800A7204A1E2A6000229F1C01F8012C3A4631462F
S3150800A7302846FFF751FF041EDCDB314628465FFA40
S3150800A74088F2FFF7BDFF0028AABFE41904462418BB
S3150800A750D0E770B50D46064600681146A8421C4665
S3150800A76009D3451B9D4206D3C01A1A46306097F096
S3150800A7702CFA204670BD6FF06B00FBE72DE9F0411F
S3150800A780074688461046154600F000FC3968064616
S3150800A790414504D26FF06B042046BDE8F081A1EB79
S3150800A7A008028242F6D3091A02463960284600F0A2
S3150800A7B093FC04460028EFD12B68012B0DD13B688A
S3150800A7C093F90020002A08DAA3EB0802002AE1DD43
S3150800A7D05A1E3A60013603F8010C3246414638469D
S3150800A7E0FFF7FAFE041ED7DB022241463846FFF77A
S3150800A7F067FF031EAABFA0191C461C18CCE770B534
S3150800A800002205460E46FFF7E7FE041E08DB052272
S3150800A81031462846FFF754FF0028B4BF04462418DB
S3150800A820204670BDF8B505460E46FFF792FF041E92
S3150800A83011DB224631462846FFF7CEFE2746041E80
S3150800A84009DB062231462846FFF73AFF0028B2BF41
S3150800A8500446E41924182046F8BDF7B5089D0646AF
S3150800A8600F4645B9CDE90023FFF7C9FF041E1ADBD9
S3150800A870DDE90023254639463046FFF7D3FF041E97
S3150800A88011DB25442A4639463046FFF7A5FE041E45
S3150800A89009DB302239463046FFF712FF0028B2BFDF
S3150800A8A0044664192418204603B0F0BD70B5036841
S3150800A8B005465C1A002C0E4617DD003A18BF012221
S3150800A8C05C1E5242046003F8012C0122FFF784FE45
S3150800A8D0041E08DB012231462846FFF7F1FE002850
S3150800A8E006DB14440444204670BD6FF06B04FAE797
S3150800A8F00446F8E70223FFF7F1BE2DE9F0411746B3
S3150800A9001A46069B05460E46FFF723FF041E11DB73
S3150800A910224631462846FFF75FFEA046041E09DB9D
S3150800A92031462846FAB2FFF7CBFE0028B2BF0446E6
S3150800A930444424182046BDE8F081F8B505460E467D
S3150800A940FFF707FF041E11DB224631462846FFF7AC
S3150800A95043FE2746041E09DB042231462846FFF734
S3150800A960AFFE0028B2BF0446E41924182046F8BDF5
S3150800A9702DE9F04781468A4616469846089F046898
S3150800A980A4B92021012005F005FB0546002841D081
S3150800A990314601206E6005F0FDFA0446A86080B9CC
S3150800A9A0284605F0FDFA2046BDE8F08763689E4212
S3150800A9B005D132465146A06897F0F7F890B3A469D6
S3150800A9C0DEE73246514697F000F92F6157B139460E
S3150800A9D0012005F0DFFA0446686118B9A86805F091
S3150800A9E0DFFADDE72C46D9F80030AB61C9F800502C
S3150800A9F0B8F1000FD7D03A464146606997F0E5F8B6
S3150800AA00D1E72369BB42F3D03946012005F0C2FAE3
S3150800AA10054608B90024C6E7606905F0C1FAC4E925
S3150800AA200475E5E7002FECD1606905F0B9FA6761AE
S3150800AA30DEE7F0B506460020044684EA02035D42D6
S3150800AA402B43DB43355DDB0F5F420134013B3D4061
S3150800AA500340A14245EA0300EFD1F0BD2DE9F74FC7
S3150800AA604FF0000882460F4691464446C3461D46A7
S3150800AA700C9E524BB3450CD35E4605E00BF1010B19
S3150800AA805E4501F1010105D194BB0020C9F80040DB
S3150800AA9052E0002115F80B20202AEFD05E45F3D0AE
S3150800AAA0A6EB0B00012821D00D2A1FD105EB0B00C0
S3150800AAB040780A2817D000297CD13D2A04D108F10C
S3150800AAC00108B8F1020F75D818468021FFF7B1FFC3
S3150800AAD013066FD47F286DD03F28384B02D8B8F1BB
S3150800AAE0000F67D101340BF1010BC3E70A2AE1E72E
S3150800AAF0062204F00703E008534350430733A0EB4C
S3150800AB00080000EBD300BAF1000F11D0B8420FD8F5
S3150800AB104FF00008AB195446032746460193DFF861
S3150800AB209CB0274B019AAA4209D1A4EB0A04ACE7C8
S3150800AB30C9F800006FF0290003B0BDE8F08F15F8DA
S3150800AB40012BA2F10A01C9B2162903D823FA01F189
S3150800AB50C907E7D480215846FFF76BFF80F040020B
S3150800AB60D2B2B2FA82F25209791EC2F1000C01364B
S3150800AB70013A01EA0C01174000F03F00042E104B81
S3150800AB8047EA010740EA8818CCD18FB14FEA184244
S3150800AB90012F227002D101340026C3E7022F4FEAA3
S3150800ABA01822627016BF84F8028002340334F3E771
S3150800ABB03E46B7E76FF02B00BEE700BFB13A0A087A
S3150800ABC009004000F0B505460E46074600240F2F3B
S3150800ABD044D86FF00F01280901FB0055072D38D915
S3150800ABE056F8040B1168E3FB601442F8041B56F888
S3150800ABF0040B1168E3FB601442F8041B56F8040BB7
S3150800AC001168E3FB601442F8041B56F8040B11683C
S3150800AC10E3FB601442F8041B56F8040B1168E3FBC7
S3150800AC20601442F8041B56F8040B1168E3FB601421
S3150800AC3042F8041B56F8040B1168E3FB601442F84B
S3150800AC40041B56F8040B1168E3FB601442F8041B56
S3150800AC50083D002D74D1002C7BD1F0BD103F56F86D
S3150800AC60040B1168E3FB601442F8041B56F8040B46
S3150800AC701168E3FB601442F8041B56F8040B1168CC
S3150800AC80E3FB601442F8041B56F8040B1168E3FB57
S3150800AC90601442F8041B56F8040B1168E3FB6014B1
S3150800ACA042F8041B56F8040B1168E3FB601442F8DB
S3150800ACB0041B56F8040B1168E3FB601442F8041BE6
S3150800ACC056F8040B1168E3FB601442F8041B56F8A7
S3150800ACD0040B1168E3FB601442F8041B56F8040BD6
S3150800ACE01168E3FB601442F8041B56F8040B11685C
S3150800ACF0E3FB601442F8041B56F8040B1168E3FBE7
S3150800AD00601442F8041B56F8040B1168E3FB601440
S3150800AD1042F8041B56F8040B1168E3FB601442F86A
S3150800AD20041B56F8040B1168E3FB601442F8041B75
S3150800AD3056F8040B1168E3FB601442F8041B46E757
S3150800AD40013D56F8040B1168E3FB601442F8041B36
S3150800AD507FE713681B192CBF0124002442F8043B23
S3150800AD6079E739B101F18041013900EB810181426E
S3150800AD70034600D270471B680A681BBA12BA40F825
S3150800AD80042B41F80439F2E7002301228360C0E965
S3150800AD900023704710B5044668B1806830B1616811
S3150800ADA0890005F00DF9A06805F0FAF800230122DC
S3150800ADB0C4E90023A36010BD42F21073994270B52E
S3150800ADC004460D4602D96FF00F0070BD43688B42EA
S3150800ADD016D20421284605F0DDF806460028F2D0EA
S3150800ADE0A16859B16268920096F0EFFE6168A068A2
S3150800ADF0890005F0E5F8A06805F0D2F8C4E901561F
S3150800AE000020E2E7884270B505460E4603D04C6836
S3150800AE103CB9FFF7BFFF002011E0B36853F82430B0
S3150800AE2013B9013C002CF8D16A6833680134A24290
S3150800AE302B6005D221462846FFF7BEFF40B170BDFC
S3150800AE40A868121B0021920000EB840096F0E4FE2D
S3150800AE50B168A868A20096F0B8FEDCE72DE9F041D3
S3150800AE600E46496805461446FFF7A6FFB0B90746D9
S3150800AE70624233682243C2F3C01253432968C2F1BF
S3150800AE80010401FB04332B60AB68D6E901CE043B11
S3150800AE90BC4505D173686A689A420BD8BDE8F0814B
S3150800AEA05EF8271053F8048F514308FB0411013745
S3150800AEB01960EDE7A96851F82320624341F8232079
S3150800AEC00133E8E770B50E4601210446FFF774FF23
S3150800AED0054688B9626801469200A06896F09CFE0D
S3150800AEE0A36886EAE672002EA2EBE6721A60B4BF81
S3150800AEF04FF0FF3301232360284670BD4368B1EB4A
S3150800AF00431F3FBF83684A0953F8220001F01F0117
S3150800AF103ABF20FA01F101F0010000207047002134
S3150800AF200A46F0B54568954202D100242046F0BD90
S3150800AF30836853F82260002326FA03F7FF0701EB1C
S3150800AF400304F3D40133202B01EB0304F4D1214687
S3150800AF500132E8E70246406888B19268431E7BB929
S3150800AF6052F8231000204FF00042114204D101305C
S3150800AF7020284FEA5202F8D10133C0EB431070473C
S3150800AF8052F823100029EBD1013BE8E708B5FFF793
S3150800AF90E1FF0730C00808BDF8B512F0030318BF73
S3150800AFA0012303EB920743680446BB420E46154647
S3150800AFB018D100212046FFF785FF00BB0346AB42A8
S3150800AFC01DD0F25CD4F808C0D90023F0030701F0BD
S3150800AFD0180102FA01F15CF8072001330A434CF81C
S3150800AFE00720ECE7FFF7D6FE002301223946204664
S3150800AFF0C4E90023A360FFF7DFFE0028D9D0F8BD17
S3150800B0002DE9F04112F0030618BF0126436806EB46
S3150800B0109206B34204468846174608D100212046C0
S3150800B020FFF750FF054688B12846BDE8F081FFF7CF
S3150800B030B1FE0023012231462046C4E90023A3605D
S3150800B040FFF7BAFE05460028E8D0EDE7B8F1000F8D
S3150800B050EAD0A368C7EB860041463A46184496F0FC
S3150800B060B4FD3146A068FFF77CFEDDE7F8B5436816
S3150800B0700E46B2EB830F4FEA83041CD81346A3424D
S3150800B0800CD1944600239C4517D1944204D2002142
S3150800B090121B301996F0C0FD00201CE0876803F0EB
S3150800B0A0030523F0030CE90057F80C50CD40EDB228
S3150800B0B07DB90133E3E7A446E4E7876803F00301B3
S3150800B0C023F0030ECD0057F80E10E940F154013372
S3150800B0D0D9E76FF00700F8BDF8B504466368084677
S3150800B0E0B2EB830F4FEA83051BD9521B8E1800213A
S3150800B0F096F092FD30462A46002381189A4212D1CC
S3150800B1000020F8BDA76803F0030123F0030CCE0066
S3150800B11057F80C10F140C9B289B90133AB42F1D1E5
S3150800B120EAE71346FAE7A76803F0030023F00306E5
S3150800B130C500B8590133E84001F8010DDEE76FF0A4
S3150800B1400700DEE7F8B505460E464C0901F01F076D
S3150800B150FFF700FF6B683044B0EB431F05D81F2E7E
S3150800B1600FD8002F41D100200AE010F01F0118BFA8
S3150800B170012101EB50112846FFF71EFE0028EED0EC
S3150800B180F8BD6FF003006B68604319469A00A14248
S3150800B190A2F104020CD8E21A9C4288BF002213448A
S3150800B1A000229B00043B191DDBD0A968CA50F9E7A9
S3150800B1B0AE68013906EB020C5CF800C046F802C01E
S3150800B1C0E5E7AB6853F8241001FA07F043F82400C2
S3150800B1D0A86850F82430134340F8243021FA06F2C0
S3150800B1E001346B68A342ECD8BDE70022C7F12006FC
S3150800B1F0F7E7F0B443684C09A34201F01F0201D3F4
S3150800B20004D192B3F0BC0021FFF75CBE1F292ED8EB
S3150800B210AAB9F0BC0020704785686E58043145F815
S3150800B2202360013345682D1B9D42F5D800244168EB
S3150800B2309942EDD9816841F823400133F7E70024A4
S3150800B2404368C2F12007013BE3D3816851F82350D4
S3150800B25025FA02F641F82360866856F8231021433A
S3150800B26046F8231005FA07F4EDE71F29D1D900237C
S3150800B270A100D7E730B543682BB94A6862B9181EEA
S3150800B28018BF012028E0826802EB830252F8042CDA
S3150800B290002AF2D1013BEFE78C6804EB820555F8EA
S3150800B2A0045C35B9013AE9E7012015E04FF0FF30B3
S3150800B2B012E0002BFAD09342F6D8F7D3013B826806
S3150800B2C052F8231054F823209142EDD803F1FF33A6
S3150800B2D0ECD35A1CF3D1002030BD024630B5436882
S3150800B2E023B9486858B9002B36D12FE0906800EB8F
S3150800B2F0830050F8040C0028F3D1013BF0E78C6872
S3150800B30004EB800555F8045C15BB0138EAE702D260
S3150800B3100868404221E010680968002803DD002912
S3150800B32007DA012019E0002903DD10B14FF0FF30DC
S3150800B33013E0013B916851F8235054F823108D42CD
S3150800B3400BD803F1FF33E4D3591CF3D1002004E0F2
S3150800B350002BDDD08342DAD9106830BD2DE9F043E1
S3150800B3604B6844689C4244D104680B68C4F3400C9B
S3150800B3705C40C4F340030CEA540414604668CCF1FC
S3150800B380010E013E02D20020BDE8F0838C68C3F1AD
S3150800B390010754F82650846854F82640A5EB04089B
S3150800B3A0654084EA0804254085EA08050CEAD57450
S3150800B3B02740146843EAD573274317608D68846865
S3150800B3C055F8268054F82640A4EB080984EA0804B0
S3150800B3D088EA090804EA080484EA0904C3F10108AA
S3150800B3E00EEAD47505EA08052F43176043EAD473B5
S3150800B3F0C7E76FF00300C7E71FB581EAE173A3EB60
S3150800B400E17300290093B4BF4FF0FF330123019382
S3150800B410012301A90293CDF80CD0FFF75EFF05B012
S3150800B4205DF804FB90422DE9F04106460F461546A5
S3150800B43002D0884229D12F46012333607D6865BB37
S3150800B44029463046FFF7B8FC044618BBB368B96806
S3150800B4509C460746854229D103EB8503D7B1726816
S3150800B46005F10108AA4207D841463046FFF7A4FC71
S3150800B47068BBB36803EB85031A684546D2192CBF27
S3150800B4800127002743F8042BE8E7FFF7BBFC04462F
S3150800B4900028D0D02046BDE8F081BB6803EB8503C1
S3150800B4A053F8043C002BCBD1013DC8E7DCF800205B
S3150800B4B0D2192CBF4FF0010E4FF0000E51F8207034
S3150800B4C00130D2194CF8042B4EF10007C2E70446A6
S3150800B4D0E0E72DE9F84305460E46904654683CB920
S3150800B4E07168A1420ED26FF009073846BDE8F883A5
S3150800B4F0D8F8083003EB840353F8043C002BEFD14B
